{
    "contractName": "auction",
    "abi": [
        {
            "inputs": [],
            "stateMutability": "nonpayable",
            "type": "constructor"
        },
        {
            "inputs": [],
            "name": "auctionState",
            "outputs": [
                {
                    "internalType": "enum auction.auction_state",
                    "name": "",
                    "type": "uint8"
                }
            ],
            "stateMutability": "view",
            "type": "function"
        },
        {
            "inputs": [],
            "name": "auctioner",
            "outputs": [
                {
                    "internalType": "address payable",
                    "name": "",
                    "type": "address"
                }
            ],
            "stateMutability": "view",
            "type": "function"
        },
        {
            "inputs": [],
            "name": "bid",
            "outputs": [],
            "stateMutability": "payable",
            "type": "function"
        },
        {
            "inputs": [],
            "name": "bidIncrement",
            "outputs": [
                {
                    "internalType": "uint256",
                    "name": "",
                    "type": "uint256"
                }
            ],
            "stateMutability": "view",
            "type": "function"
        },
        {
            "inputs": [
                {
                    "internalType": "address",
                    "name": "",
                    "type": "address"
                }
            ],
            "name": "bids",
            "outputs": [
                {
                    "internalType": "uint256",
                    "name": "",
                    "type": "uint256"
                }
            ],
            "stateMutability": "view",
            "type": "function"
        },
        {
            "inputs": [],
            "name": "currentBidder",
            "outputs": [
                {
                    "internalType": "address payable",
                    "name": "",
                    "type": "address"
                }
            ],
            "stateMutability": "view",
            "type": "function"
        },
        {
            "inputs": [],
            "name": "etblock",
            "outputs": [
                {
                    "internalType": "uint256",
                    "name": "",
                    "type": "uint256"
                }
            ],
            "stateMutability": "view",
            "type": "function"
        },
        {
            "inputs": [],
            "name": "highestBid",
            "outputs": [
                {
                    "internalType": "uint256",
                    "name": "",
                    "type": "uint256"
                }
            ],
            "stateMutability": "view",
            "type": "function"
        },
        {
            "inputs": [],
            "name": "highestBidder",
            "outputs": [
                {
                    "internalType": "address payable",
                    "name": "",
                    "type": "address"
                }
            ],
            "stateMutability": "view",
            "type": "function"
        },
        {
            "inputs": [],
            "name": "highestPayableBid",
            "outputs": [
                {
                    "internalType": "uint256",
                    "name": "",
                    "type": "uint256"
                }
            ],
            "stateMutability": "view",
            "type": "function"
        },
        {
            "inputs": [],
            "name": "stblock",
            "outputs": [
                {
                    "internalType": "uint256",
                    "name": "",
                    "type": "uint256"
                }
            ],
            "stateMutability": "view",
            "type": "function"
        }
    ],
    "bytecode": "608060405234801561001057600080fd5b50600080546001600160a01b0319163317905561027e806100326000396000f3fe60806040526004361061009c5760003560e01c80639d957d45116100645780639d957d4514610158578063a118be021461016e578063b3cc167a14610184578063d33db6971461019a578063d57bde79146101ba578063f3fb05df146101d057600080fd5b80631998aeef146100a15780634f5150ca146100a357806362ea82db146100cc5780637fb45099146100f957806391f9015714610120575b600080fd5b005b3480156100af57600080fd5b506100b960055481565b6040519081526020015b60405180910390f35b3480156100d857600080fd5b506100b96100e73660046101f0565b60096020526000908152604090205481565b34801561010557600080fd5b506003546101139060ff1681565b6040516100c39190610220565b34801561012c57600080fd5b50600754610140906001600160a01b031681565b6040516001600160a01b0390911681526020016100c3565b34801561016457600080fd5b506100b960025481565b34801561017a57600080fd5b506100b960015481565b34801561019057600080fd5b506100b960065481565b3480156101a657600080fd5b50600854610140906001600160a01b031681565b3480156101c657600080fd5b506100b960045481565b3480156101dc57600080fd5b50600054610140906001600160a01b031681565b60006020828403121561020257600080fd5b81356001600160a01b038116811461021957600080fd5b9392505050565b602081016004831061024257634e487b7160e01b600052602160045260246000fd5b9190529056fea2646970667358221220914e4441f5da0b514f900ffcc95f9921d69fbf5cd9d836fe814caa25833899d064736f6c63430008110033",
    "sourcePath": "d:/Blockchain Development/Solidity/auction-smart-contract/auction.sol",
    "compiler": {
        "name": "solc",
        "version": "0.8.17+commit.8df45f5f"
    },
    "functionHashes": {
        "auctionState()": "7fb45099",
        "auctioner()": "f3fb05df",
        "bid()": "1998aeef",
        "bidIncrement()": "b3cc167a",
        "bids(address)": "62ea82db",
        "currentBidder()": "d33db697",
        "etblock()": "9d957d45",
        "highestBid()": "d57bde79",
        "highestBidder()": "91f90157",
        "highestPayableBid()": "4f5150ca",
        "stblock()": "a118be02"
    },
    "gasEstimates": {
        "creation": {
            "codeDepositCost": "127600",
            "executionCost": "24406",
            "totalCost": "152006"
        },
        "external": {
            "auctionState()": "2418",
            "auctioner()": "2447",
            "bid()": "97",
            "bidIncrement()": "2328",
            "bids(address)": "2518",
            "currentBidder()": "2403",
            "etblock()": "2284",
            "highestBid()": "2372",
            "highestBidder()": "2426",
            "highestPayableBid()": "2307",
            "stblock()": "2306"
        }
    }
}