{
    "contractName": "auction",
    "abi": [
        {
            "inputs": [],
            "stateMutability": "nonpayable",
            "type": "constructor"
        },
        {
            "inputs": [],
            "name": "auctionState",
            "outputs": [
                {
                    "internalType": "enum auction.auction_state",
                    "name": "",
                    "type": "uint8"
                }
            ],
            "stateMutability": "view",
            "type": "function"
        },
        {
            "inputs": [],
            "name": "auctioner",
            "outputs": [
                {
                    "internalType": "address payable",
                    "name": "",
                    "type": "address"
                }
            ],
            "stateMutability": "view",
            "type": "function"
        },
        {
            "inputs": [],
            "name": "bid",
            "outputs": [],
            "stateMutability": "payable",
            "type": "function"
        },
        {
            "inputs": [],
            "name": "bidIncrement",
            "outputs": [
                {
                    "internalType": "uint256",
                    "name": "",
                    "type": "uint256"
                }
            ],
            "stateMutability": "view",
            "type": "function"
        },
        {
            "inputs": [
                {
                    "internalType": "address",
                    "name": "",
                    "type": "address"
                }
            ],
            "name": "bids",
            "outputs": [
                {
                    "internalType": "uint256",
                    "name": "",
                    "type": "uint256"
                }
            ],
            "stateMutability": "view",
            "type": "function"
        },
        {
            "inputs": [],
            "name": "cancelAuc",
            "outputs": [],
            "stateMutability": "nonpayable",
            "type": "function"
        },
        {
            "inputs": [],
            "name": "endAuc",
            "outputs": [],
            "stateMutability": "nonpayable",
            "type": "function"
        },
        {
            "inputs": [],
            "name": "etblock",
            "outputs": [
                {
                    "internalType": "uint256",
                    "name": "",
                    "type": "uint256"
                }
            ],
            "stateMutability": "view",
            "type": "function"
        },
        {
            "inputs": [],
            "name": "finalizeAuction",
            "outputs": [],
            "stateMutability": "nonpayable",
            "type": "function"
        },
        {
            "inputs": [],
            "name": "highestBidder",
            "outputs": [
                {
                    "internalType": "address payable",
                    "name": "",
                    "type": "address"
                }
            ],
            "stateMutability": "view",
            "type": "function"
        },
        {
            "inputs": [],
            "name": "highestPayableBid",
            "outputs": [
                {
                    "internalType": "uint256",
                    "name": "",
                    "type": "uint256"
                }
            ],
            "stateMutability": "view",
            "type": "function"
        },
        {
            "inputs": [],
            "name": "stblock",
            "outputs": [
                {
                    "internalType": "uint256",
                    "name": "",
                    "type": "uint256"
                }
            ],
            "stateMutability": "view",
            "type": "function"
        }
    ],
    "bytecode": "608060405234801561001057600080fd5b50600080546001600160a01b031916331790556003805460ff1916600190811790915543908190556100439060f0610057565b600255670de0b6b3a764000060055561007e565b8082018082111561007857634e487b7160e01b600052601160045260246000fd5b92915050565b6107518061008d6000396000f3fe6080604052600436106100a75760003560e01c806391f901571161006457806391f901571461015d5780639d957d4514610195578063a118be02146101ab578063b3cc167a146101c1578063f3fb05df146101d7578063f77282ab146101f757600080fd5b80631998aeef146100ac5780632352f320146100b65780633fdceefd146100cb5780634f5150ca146100e057806362ea82db146101095780637fb4509914610136575b600080fd5b6100b461020c565b005b3480156100c257600080fd5b506100b4610408565b3480156100d757600080fd5b506100b461046f565b3480156100ec57600080fd5b506100f660045481565b6040519081526020015b60405180910390f35b34801561011557600080fd5b506100f6610124366004610671565b60076020526000908152604090205481565b34801561014257600080fd5b506003546101509060ff1681565b60405161010091906106b7565b34801561016957600080fd5b5060065461017d906001600160a01b031681565b6040516001600160a01b039091168152602001610100565b3480156101a157600080fd5b506100f660025481565b3480156101b757600080fd5b506100f660015481565b3480156101cd57600080fd5b506100f660055481565b3480156101e357600080fd5b5060005461017d906001600160a01b031681565b34801561020357600080fd5b506100b46104d5565b6000546001600160a01b0316330361025e5760405162461bcd60e51b815260206004820152601060248201526f13dddb995c8818d85b9b9bdd08189a5960821b60448201526064015b60405180910390fd5b60015443101561026d57600080fd5b600254431061027b57600080fd5b60016003805460ff1690811115610294576102946106a1565b146102d45760405162461bcd60e51b815260206004820152601060248201526f105d58dd1a5bdb881a5cc8195b99195960821b6044820152606401610255565b670de0b6b3a76400003410156103235760405162461bcd60e51b81526020600482015260146024820152734574686572206973206c657373207468616e203160601b6044820152606401610255565b3360009081526007602052604081205461033e9034906106f5565b905060045481116103915760405162461bcd60e51b815260206004820152601860248201527f4c657373207468616e206869676865737470617961626c6500000000000000006044820152606401610255565b336000908152600760205260408082208390556006546001600160a01b03168252902054811015610405576005546006546001600160a01b03166000908152600760205260409020546103ef9183916103ea91906106f5565b610658565b600455600680546001600160a01b031916331790555b50565b6000546001600160a01b0316331461045a5760405162461bcd60e51b81526020600482015260156024820152742cb7ba9030b932903737ba103a34329037bbb732b960591b6044820152606401610255565b60038054819060ff19166001825b0217905550565b6000546001600160a01b031633146104c15760405162461bcd60e51b81526020600482015260156024820152742cb7ba9030b932903737ba103a34329037bbb732b960591b6044820152606401610255565b600380546002919060ff1916600183610468565b6003805460ff16818111156104ec576104ec6106a1565b148061050e575060026003805460ff169081111561050c5761050c6106a1565b145b8061051a575060025443115b61052357600080fd5b6000546001600160a01b031633148061054a57503360009081526007602052604090205415155b61055357600080fd5b600080600380805460ff169081111561056e5761056e6106a1565b0361058a5750503360008181526007602052604090205461060e565b6000546001600160a01b031633036105b55750506000546004546001600160a01b039091169061060e565b6006546001600160a01b031633036105fb576006546004546001600160a01b039091166000818152600760205260409020549093506105f49190610708565b905061060e565b5050336000818152600760205260409020545b33600090815260076020526040808220829055516001600160a01b0384169183156108fc02918491818181858888f19350505050158015610653573d6000803e3d6000fd5b505050565b600081831161066857508161066b565b50805b92915050565b60006020828403121561068357600080fd5b81356001600160a01b038116811461069a57600080fd5b9392505050565b634e487b7160e01b600052602160045260246000fd5b60208101600483106106d957634e487b7160e01b600052602160045260246000fd5b91905290565b634e487b7160e01b600052601160045260246000fd5b8082018082111561066b5761066b6106df565b8181038181111561066b5761066b6106df56fea26469706673582212205618b227b9d2bcd240e01b3be4ae8153d3f5b7995bba5310577b5cc8a36d6cfb64736f6c63430008110033",
    "sourcePath": "d:/Blockchain Development/Solidity/auction-smart-contract/auction.sol",
    "compiler": {
        "name": "solc",
        "version": "0.8.17+commit.8df45f5f"
    },
    "functionHashes": {
        "auctionState()": "7fb45099",
        "auctioner()": "f3fb05df",
        "bid()": "1998aeef",
        "bidIncrement()": "b3cc167a",
        "bids(address)": "62ea82db",
        "cancelAuc()": "2352f320",
        "endAuc()": "3fdceefd",
        "etblock()": "9d957d45",
        "finalizeAuction()": "f77282ab",
        "highestBidder()": "91f90157",
        "highestPayableBid()": "4f5150ca",
        "stblock()": "a118be02"
    },
    "gasEstimates": {
        "creation": {
            "codeDepositCost": "374600",
            "executionCost": "115286",
            "totalCost": "489886"
        },
        "external": {
            "auctionState()": "2462",
            "auctioner()": "2425",
            "bid()": "infinite",
            "bidIncrement()": "2350",
            "bids(address)": "2562",
            "cancelAuc()": "26548",
            "endAuc()": "26584",
            "etblock()": "2306",
            "finalizeAuction()": "infinite",
            "highestBidder()": "2337",
            "highestPayableBid()": "2351",
            "stblock()": "2328"
        },
        "internal": {
            "min(uint256,uint256)": "61"
        }
    }
}