{
	"auction.sol": {
		"auction": {
			"abi": [
				{
					"inputs": [],
					"stateMutability": "nonpayable",
					"type": "constructor"
				},
				{
					"inputs": [],
					"name": "auctionState",
					"outputs": [
						{
							"internalType": "enum auction.auction_state",
							"name": "",
							"type": "uint8"
						}
					],
					"stateMutability": "view",
					"type": "function"
				},
				{
					"inputs": [],
					"name": "auctioner",
					"outputs": [
						{
							"internalType": "address payable",
							"name": "",
							"type": "address"
						}
					],
					"stateMutability": "view",
					"type": "function"
				},
				{
					"inputs": [],
					"name": "bid",
					"outputs": [],
					"stateMutability": "payable",
					"type": "function"
				},
				{
					"inputs": [],
					"name": "bidIncrement",
					"outputs": [
						{
							"internalType": "uint256",
							"name": "",
							"type": "uint256"
						}
					],
					"stateMutability": "view",
					"type": "function"
				},
				{
					"inputs": [
						{
							"internalType": "address",
							"name": "",
							"type": "address"
						}
					],
					"name": "bids",
					"outputs": [
						{
							"internalType": "uint256",
							"name": "",
							"type": "uint256"
						}
					],
					"stateMutability": "view",
					"type": "function"
				},
				{
					"inputs": [],
					"name": "currentBidder",
					"outputs": [
						{
							"internalType": "address payable",
							"name": "",
							"type": "address"
						}
					],
					"stateMutability": "view",
					"type": "function"
				},
				{
					"inputs": [],
					"name": "etblock",
					"outputs": [
						{
							"internalType": "uint256",
							"name": "",
							"type": "uint256"
						}
					],
					"stateMutability": "view",
					"type": "function"
				},
				{
					"inputs": [],
					"name": "highestBid",
					"outputs": [
						{
							"internalType": "uint256",
							"name": "",
							"type": "uint256"
						}
					],
					"stateMutability": "view",
					"type": "function"
				},
				{
					"inputs": [],
					"name": "highestBidder",
					"outputs": [
						{
							"internalType": "address payable",
							"name": "",
							"type": "address"
						}
					],
					"stateMutability": "view",
					"type": "function"
				},
				{
					"inputs": [],
					"name": "highestPayableBid",
					"outputs": [
						{
							"internalType": "uint256",
							"name": "",
							"type": "uint256"
						}
					],
					"stateMutability": "view",
					"type": "function"
				},
				{
					"inputs": [],
					"name": "stblock",
					"outputs": [
						{
							"internalType": "uint256",
							"name": "",
							"type": "uint256"
						}
					],
					"stateMutability": "view",
					"type": "function"
				}
			],
			"devdoc": {
				"kind": "dev",
				"methods": {},
				"version": 1
			},
			"evm": {
				"assembly": "    /* \"auction.sol\":63:1053  contract auction{\r... */\n  mstore(0x40, 0x80)\n    /* \"auction.sol\":202:265  constructor(){\r... */\n  callvalue\n  dup1\n  iszero\n  tag_1\n  jumpi\n  0x00\n  dup1\n  revert\ntag_1:\n  pop\n    /* \"auction.sol\":246:256  msg.sender */\n  caller\n    /* \"auction.sol\":226:235  auctioner */\n  0x00\n  dup1\n    /* \"auction.sol\":226:257  auctioner = payable(msg.sender) */\n  0x0100\n  exp\n  dup2\n  sload\n  dup2\n  0xffffffffffffffffffffffffffffffffffffffff\n  mul\n  not\n  and\n  swap1\n  dup4\n  0xffffffffffffffffffffffffffffffffffffffff\n  and\n  mul\n  or\n  swap1\n  sstore\n  pop\n    /* \"auction.sol\":63:1053  contract auction{\r... */\n  dataSize(sub_0)\n  dup1\n  dataOffset(sub_0)\n  0x00\n  codecopy\n  0x00\n  return\nstop\n\nsub_0: assembly {\n        /* \"auction.sol\":63:1053  contract auction{\r... */\n      mstore(0x40, 0x80)\n      jumpi(tag_1, lt(calldatasize, 0x04))\n      shr(0xe0, calldataload(0x00))\n      dup1\n      0x9d957d45\n      gt\n      tag_13\n      jumpi\n      dup1\n      0x9d957d45\n      eq\n      tag_7\n      jumpi\n      dup1\n      0xa118be02\n      eq\n      tag_8\n      jumpi\n      dup1\n      0xb3cc167a\n      eq\n      tag_9\n      jumpi\n      dup1\n      0xd33db697\n      eq\n      tag_10\n      jumpi\n      dup1\n      0xd57bde79\n      eq\n      tag_11\n      jumpi\n      dup1\n      0xf3fb05df\n      eq\n      tag_12\n      jumpi\n      jump(tag_1)\n    tag_13:\n      dup1\n      0x1998aeef\n      eq\n      tag_2\n      jumpi\n      dup1\n      0x4f5150ca\n      eq\n      tag_3\n      jumpi\n      dup1\n      0x62ea82db\n      eq\n      tag_4\n      jumpi\n      dup1\n      0x7fb45099\n      eq\n      tag_5\n      jumpi\n      dup1\n      0x91f90157\n      eq\n      tag_6\n      jumpi\n    tag_1:\n      0x00\n      dup1\n      revert\n        /* \"auction.sol\":1011:1050  function bid() public payable{\r... */\n    tag_2:\n      tag_14\n      tag_15\n      jump\t// in\n    tag_14:\n      stop\n        /* \"auction.sol\":422:451  uint public highestPayableBid */\n    tag_3:\n      callvalue\n      dup1\n      iszero\n      tag_16\n      jumpi\n      0x00\n      dup1\n      revert\n    tag_16:\n      pop\n      tag_17\n      tag_18\n      jump\t// in\n    tag_17:\n      mload(0x40)\n      tag_19\n      swap2\n      swap1\n      tag_20\n      jump\t// in\n    tag_19:\n      mload(0x40)\n      dup1\n      swap2\n      sub\n      swap1\n      return\n        /* \"auction.sol\":577:611  mapping(address=>uint) public bids */\n    tag_4:\n      callvalue\n      dup1\n      iszero\n      tag_21\n      jumpi\n      0x00\n      dup1\n      revert\n    tag_21:\n      pop\n      tag_22\n      0x04\n      dup1\n      calldatasize\n      sub\n      dup2\n      add\n      swap1\n      tag_23\n      swap2\n      swap1\n      tag_24\n      jump\t// in\n    tag_23:\n      tag_25\n      jump\t// in\n    tag_22:\n      mload(0x40)\n      tag_26\n      swap2\n      swap1\n      tag_20\n      jump\t// in\n    tag_26:\n      mload(0x40)\n      dup1\n      swap2\n      sub\n      swap1\n      return\n        /* \"auction.sol\":351:384  auction_state public auctionState */\n    tag_5:\n      callvalue\n      dup1\n      iszero\n      tag_27\n      jumpi\n      0x00\n      dup1\n      revert\n    tag_27:\n      pop\n      tag_28\n      tag_29\n      jump\t// in\n    tag_28:\n      mload(0x40)\n      tag_30\n      swap2\n      swap1\n      tag_31\n      jump\t// in\n    tag_30:\n      mload(0x40)\n      dup1\n      swap2\n      sub\n      swap1\n      return\n        /* \"auction.sol\":491:527  address payable public highestBidder */\n    tag_6:\n      callvalue\n      dup1\n      iszero\n      tag_32\n      jumpi\n      0x00\n      dup1\n      revert\n    tag_32:\n      pop\n      tag_33\n      tag_34\n      jump\t// in\n    tag_33:\n      mload(0x40)\n      tag_35\n      swap2\n      swap1\n      tag_36\n      jump\t// in\n    tag_35:\n      mload(0x40)\n      dup1\n      swap2\n      sub\n      swap1\n      return\n        /* \"auction.sol\":164:183  uint public etblock */\n    tag_7:\n      callvalue\n      dup1\n      iszero\n      tag_37\n      jumpi\n      0x00\n      dup1\n      revert\n    tag_37:\n      pop\n      tag_38\n      tag_39\n      jump\t// in\n    tag_38:\n      mload(0x40)\n      tag_40\n      swap2\n      swap1\n      tag_20\n      jump\t// in\n    tag_40:\n      mload(0x40)\n      dup1\n      swap2\n      sub\n      swap1\n      return\n        /* \"auction.sol\":125:144  uint public stblock */\n    tag_8:\n      callvalue\n      dup1\n      iszero\n      tag_41\n      jumpi\n      0x00\n      dup1\n      revert\n    tag_41:\n      pop\n      tag_42\n      tag_43\n      jump\t// in\n    tag_42:\n      mload(0x40)\n      tag_44\n      swap2\n      swap1\n      tag_20\n      jump\t// in\n    tag_44:\n      mload(0x40)\n      dup1\n      swap2\n      sub\n      swap1\n      return\n        /* \"auction.sol\":458:482  uint public bidIncrement */\n    tag_9:\n      callvalue\n      dup1\n      iszero\n      tag_45\n      jumpi\n      0x00\n      dup1\n      revert\n    tag_45:\n      pop\n      tag_46\n      tag_47\n      jump\t// in\n    tag_46:\n      mload(0x40)\n      tag_48\n      swap2\n      swap1\n      tag_20\n      jump\t// in\n    tag_48:\n      mload(0x40)\n      dup1\n      swap2\n      sub\n      swap1\n      return\n        /* \"auction.sol\":534:570  address payable public currentBidder */\n    tag_10:\n      callvalue\n      dup1\n      iszero\n      tag_49\n      jumpi\n      0x00\n      dup1\n      revert\n    tag_49:\n      pop\n      tag_50\n      tag_51\n      jump\t// in\n    tag_50:\n      mload(0x40)\n      tag_52\n      swap2\n      swap1\n      tag_36\n      jump\t// in\n    tag_52:\n      mload(0x40)\n      dup1\n      swap2\n      sub\n      swap1\n      return\n        /* \"auction.sol\":393:415  uint public highestBid */\n    tag_11:\n      callvalue\n      dup1\n      iszero\n      tag_53\n      jumpi\n      0x00\n      dup1\n      revert\n    tag_53:\n      pop\n      tag_54\n      tag_55\n      jump\t// in\n    tag_54:\n      mload(0x40)\n      tag_56\n      swap2\n      swap1\n      tag_20\n      jump\t// in\n    tag_56:\n      mload(0x40)\n      dup1\n      swap2\n      sub\n      swap1\n      return\n        /* \"auction.sol\":86:118  address payable public auctioner */\n    tag_12:\n      callvalue\n      dup1\n      iszero\n      tag_57\n      jumpi\n      0x00\n      dup1\n      revert\n    tag_57:\n      pop\n      tag_58\n      tag_59\n      jump\t// in\n    tag_58:\n      mload(0x40)\n      tag_60\n      swap2\n      swap1\n      tag_36\n      jump\t// in\n    tag_60:\n      mload(0x40)\n      dup1\n      swap2\n      sub\n      swap1\n      return\n        /* \"auction.sol\":1011:1050  function bid() public payable{\r... */\n    tag_15:\n      jump\t// out\n        /* \"auction.sol\":422:451  uint public highestPayableBid */\n    tag_18:\n      sload(0x05)\n      dup2\n      jump\t// out\n        /* \"auction.sol\":577:611  mapping(address=>uint) public bids */\n    tag_25:\n      mstore(0x20, 0x09)\n      dup1\n      0x00\n      mstore\n      keccak256(0x00, 0x40)\n      0x00\n      swap2\n      pop\n      swap1\n      pop\n      sload\n      dup2\n      jump\t// out\n        /* \"auction.sol\":351:384  auction_state public auctionState */\n    tag_29:\n      0x03\n      0x00\n      swap1\n      sload\n      swap1\n      0x0100\n      exp\n      swap1\n      div\n      0xff\n      and\n      dup2\n      jump\t// out\n        /* \"auction.sol\":491:527  address payable public highestBidder */\n    tag_34:\n      0x07\n      0x00\n      swap1\n      sload\n      swap1\n      0x0100\n      exp\n      swap1\n      div\n      0xffffffffffffffffffffffffffffffffffffffff\n      and\n      dup2\n      jump\t// out\n        /* \"auction.sol\":164:183  uint public etblock */\n    tag_39:\n      sload(0x02)\n      dup2\n      jump\t// out\n        /* \"auction.sol\":125:144  uint public stblock */\n    tag_43:\n      sload(0x01)\n      dup2\n      jump\t// out\n        /* \"auction.sol\":458:482  uint public bidIncrement */\n    tag_47:\n      sload(0x06)\n      dup2\n      jump\t// out\n        /* \"auction.sol\":534:570  address payable public currentBidder */\n    tag_51:\n      0x08\n      0x00\n      swap1\n      sload\n      swap1\n      0x0100\n      exp\n      swap1\n      div\n      0xffffffffffffffffffffffffffffffffffffffff\n      and\n      dup2\n      jump\t// out\n        /* \"auction.sol\":393:415  uint public highestBid */\n    tag_55:\n      sload(0x04)\n      dup2\n      jump\t// out\n        /* \"auction.sol\":86:118  address payable public auctioner */\n    tag_59:\n      0x00\n      dup1\n      sload\n      swap1\n      0x0100\n      exp\n      swap1\n      div\n      0xffffffffffffffffffffffffffffffffffffffff\n      and\n      dup2\n      jump\t// out\n        /* \"#utility.yul\":7:146   */\n    tag_63:\n        /* \"#utility.yul\":53:58   */\n      0x00\n        /* \"#utility.yul\":91:97   */\n      dup2\n        /* \"#utility.yul\":78:98   */\n      calldataload\n        /* \"#utility.yul\":69:98   */\n      swap1\n      pop\n        /* \"#utility.yul\":107:140   */\n      tag_65\n        /* \"#utility.yul\":134:139   */\n      dup2\n        /* \"#utility.yul\":107:140   */\n      tag_66\n      jump\t// in\n    tag_65:\n        /* \"#utility.yul\":7:146   */\n      swap3\n      swap2\n      pop\n      pop\n      jump\t// out\n        /* \"#utility.yul\":152:481   */\n    tag_24:\n        /* \"#utility.yul\":211:217   */\n      0x00\n        /* \"#utility.yul\":260:262   */\n      0x20\n        /* \"#utility.yul\":248:257   */\n      dup3\n        /* \"#utility.yul\":239:246   */\n      dup5\n        /* \"#utility.yul\":235:258   */\n      sub\n        /* \"#utility.yul\":231:263   */\n      slt\n        /* \"#utility.yul\":228:347   */\n      iszero\n      tag_68\n      jumpi\n        /* \"#utility.yul\":266:345   */\n      tag_69\n      tag_70\n      jump\t// in\n    tag_69:\n        /* \"#utility.yul\":228:347   */\n    tag_68:\n        /* \"#utility.yul\":386:387   */\n      0x00\n        /* \"#utility.yul\":411:464   */\n      tag_71\n        /* \"#utility.yul\":456:463   */\n      dup5\n        /* \"#utility.yul\":447:453   */\n      dup3\n        /* \"#utility.yul\":436:445   */\n      dup6\n        /* \"#utility.yul\":432:454   */\n      add\n        /* \"#utility.yul\":411:464   */\n      tag_63\n      jump\t// in\n    tag_71:\n        /* \"#utility.yul\":401:464   */\n      swap2\n      pop\n        /* \"#utility.yul\":357:474   */\n      pop\n        /* \"#utility.yul\":152:481   */\n      swap3\n      swap2\n      pop\n      pop\n      jump\t// out\n        /* \"#utility.yul\":487:629   */\n    tag_72:\n        /* \"#utility.yul\":590:622   */\n      tag_74\n        /* \"#utility.yul\":616:621   */\n      dup2\n        /* \"#utility.yul\":590:622   */\n      tag_75\n      jump\t// in\n    tag_74:\n        /* \"#utility.yul\":585:588   */\n      dup3\n        /* \"#utility.yul\":578:623   */\n      mstore\n        /* \"#utility.yul\":487:629   */\n      pop\n      pop\n      jump\t// out\n        /* \"#utility.yul\":635:794   */\n    tag_76:\n        /* \"#utility.yul\":736:787   */\n      tag_78\n        /* \"#utility.yul\":781:786   */\n      dup2\n        /* \"#utility.yul\":736:787   */\n      tag_79\n      jump\t// in\n    tag_78:\n        /* \"#utility.yul\":731:734   */\n      dup3\n        /* \"#utility.yul\":724:788   */\n      mstore\n        /* \"#utility.yul\":635:794   */\n      pop\n      pop\n      jump\t// out\n        /* \"#utility.yul\":800:918   */\n    tag_80:\n        /* \"#utility.yul\":887:911   */\n      tag_82\n        /* \"#utility.yul\":905:910   */\n      dup2\n        /* \"#utility.yul\":887:911   */\n      tag_83\n      jump\t// in\n    tag_82:\n        /* \"#utility.yul\":882:885   */\n      dup3\n        /* \"#utility.yul\":875:912   */\n      mstore\n        /* \"#utility.yul\":800:918   */\n      pop\n      pop\n      jump\t// out\n        /* \"#utility.yul\":924:1178   */\n    tag_36:\n        /* \"#utility.yul\":1033:1037   */\n      0x00\n        /* \"#utility.yul\":1071:1073   */\n      0x20\n        /* \"#utility.yul\":1060:1069   */\n      dup3\n        /* \"#utility.yul\":1056:1074   */\n      add\n        /* \"#utility.yul\":1048:1074   */\n      swap1\n      pop\n        /* \"#utility.yul\":1084:1171   */\n      tag_85\n        /* \"#utility.yul\":1168:1169   */\n      0x00\n        /* \"#utility.yul\":1157:1166   */\n      dup4\n        /* \"#utility.yul\":1153:1170   */\n      add\n        /* \"#utility.yul\":1144:1150   */\n      dup5\n        /* \"#utility.yul\":1084:1171   */\n      tag_72\n      jump\t// in\n    tag_85:\n        /* \"#utility.yul\":924:1178   */\n      swap3\n      swap2\n      pop\n      pop\n      jump\t// out\n        /* \"#utility.yul\":1184:1434   */\n    tag_31:\n        /* \"#utility.yul\":1291:1295   */\n      0x00\n        /* \"#utility.yul\":1329:1331   */\n      0x20\n        /* \"#utility.yul\":1318:1327   */\n      dup3\n        /* \"#utility.yul\":1314:1332   */\n      add\n        /* \"#utility.yul\":1306:1332   */\n      swap1\n      pop\n        /* \"#utility.yul\":1342:1427   */\n      tag_87\n        /* \"#utility.yul\":1424:1425   */\n      0x00\n        /* \"#utility.yul\":1413:1422   */\n      dup4\n        /* \"#utility.yul\":1409:1426   */\n      add\n        /* \"#utility.yul\":1400:1406   */\n      dup5\n        /* \"#utility.yul\":1342:1427   */\n      tag_76\n      jump\t// in\n    tag_87:\n        /* \"#utility.yul\":1184:1434   */\n      swap3\n      swap2\n      pop\n      pop\n      jump\t// out\n        /* \"#utility.yul\":1440:1662   */\n    tag_20:\n        /* \"#utility.yul\":1533:1537   */\n      0x00\n        /* \"#utility.yul\":1571:1573   */\n      0x20\n        /* \"#utility.yul\":1560:1569   */\n      dup3\n        /* \"#utility.yul\":1556:1574   */\n      add\n        /* \"#utility.yul\":1548:1574   */\n      swap1\n      pop\n        /* \"#utility.yul\":1584:1655   */\n      tag_89\n        /* \"#utility.yul\":1652:1653   */\n      0x00\n        /* \"#utility.yul\":1641:1650   */\n      dup4\n        /* \"#utility.yul\":1637:1654   */\n      add\n        /* \"#utility.yul\":1628:1634   */\n      dup5\n        /* \"#utility.yul\":1584:1655   */\n      tag_80\n      jump\t// in\n    tag_89:\n        /* \"#utility.yul\":1440:1662   */\n      swap3\n      swap2\n      pop\n      pop\n      jump\t// out\n        /* \"#utility.yul\":1749:1845   */\n    tag_92:\n        /* \"#utility.yul\":1786:1793   */\n      0x00\n        /* \"#utility.yul\":1815:1839   */\n      tag_94\n        /* \"#utility.yul\":1833:1838   */\n      dup3\n        /* \"#utility.yul\":1815:1839   */\n      tag_95\n      jump\t// in\n    tag_94:\n        /* \"#utility.yul\":1804:1839   */\n      swap1\n      pop\n        /* \"#utility.yul\":1749:1845   */\n      swap2\n      swap1\n      pop\n      jump\t// out\n        /* \"#utility.yul\":1851:1955   */\n    tag_75:\n        /* \"#utility.yul\":1896:1903   */\n      0x00\n        /* \"#utility.yul\":1925:1949   */\n      tag_97\n        /* \"#utility.yul\":1943:1948   */\n      dup3\n        /* \"#utility.yul\":1925:1949   */\n      tag_95\n      jump\t// in\n    tag_97:\n        /* \"#utility.yul\":1914:1949   */\n      swap1\n      pop\n        /* \"#utility.yul\":1851:1955   */\n      swap2\n      swap1\n      pop\n      jump\t// out\n        /* \"#utility.yul\":1961:2104   */\n    tag_98:\n        /* \"#utility.yul\":2014:2021   */\n      0x00\n        /* \"#utility.yul\":2043:2048   */\n      dup2\n        /* \"#utility.yul\":2032:2048   */\n      swap1\n      pop\n        /* \"#utility.yul\":2049:2098   */\n      tag_100\n        /* \"#utility.yul\":2092:2097   */\n      dup3\n        /* \"#utility.yul\":2049:2098   */\n      tag_101\n      jump\t// in\n    tag_100:\n        /* \"#utility.yul\":1961:2104   */\n      swap2\n      swap1\n      pop\n      jump\t// out\n        /* \"#utility.yul\":2110:2236   */\n    tag_95:\n        /* \"#utility.yul\":2147:2154   */\n      0x00\n        /* \"#utility.yul\":2187:2229   */\n      0xffffffffffffffffffffffffffffffffffffffff\n        /* \"#utility.yul\":2180:2185   */\n      dup3\n        /* \"#utility.yul\":2176:2230   */\n      and\n        /* \"#utility.yul\":2165:2230   */\n      swap1\n      pop\n        /* \"#utility.yul\":2110:2236   */\n      swap2\n      swap1\n      pop\n      jump\t// out\n        /* \"#utility.yul\":2242:2319   */\n    tag_83:\n        /* \"#utility.yul\":2279:2286   */\n      0x00\n        /* \"#utility.yul\":2308:2313   */\n      dup2\n        /* \"#utility.yul\":2297:2313   */\n      swap1\n      pop\n        /* \"#utility.yul\":2242:2319   */\n      swap2\n      swap1\n      pop\n      jump\t// out\n        /* \"#utility.yul\":2325:2468   */\n    tag_79:\n        /* \"#utility.yul\":2389:2398   */\n      0x00\n        /* \"#utility.yul\":2422:2462   */\n      tag_105\n        /* \"#utility.yul\":2456:2461   */\n      dup3\n        /* \"#utility.yul\":2422:2462   */\n      tag_98\n      jump\t// in\n    tag_105:\n        /* \"#utility.yul\":2409:2462   */\n      swap1\n      pop\n        /* \"#utility.yul\":2325:2468   */\n      swap2\n      swap1\n      pop\n      jump\t// out\n        /* \"#utility.yul\":2474:2654   */\n    tag_106:\n        /* \"#utility.yul\":2522:2599   */\n      0x4e487b7100000000000000000000000000000000000000000000000000000000\n        /* \"#utility.yul\":2519:2520   */\n      0x00\n        /* \"#utility.yul\":2512:2600   */\n      mstore\n        /* \"#utility.yul\":2619:2623   */\n      0x21\n        /* \"#utility.yul\":2616:2617   */\n      0x04\n        /* \"#utility.yul\":2609:2624   */\n      mstore\n        /* \"#utility.yul\":2643:2647   */\n      0x24\n        /* \"#utility.yul\":2640:2641   */\n      0x00\n        /* \"#utility.yul\":2633:2648   */\n      revert\n        /* \"#utility.yul\":2783:2900   */\n    tag_70:\n        /* \"#utility.yul\":2892:2893   */\n      0x00\n        /* \"#utility.yul\":2889:2890   */\n      dup1\n        /* \"#utility.yul\":2882:2894   */\n      revert\n        /* \"#utility.yul\":2906:3027   */\n    tag_101:\n        /* \"#utility.yul\":2995:2996   */\n      0x04\n        /* \"#utility.yul\":2988:2993   */\n      dup2\n        /* \"#utility.yul\":2985:2997   */\n      lt\n        /* \"#utility.yul\":2975:3021   */\n      tag_112\n      jumpi\n        /* \"#utility.yul\":3001:3019   */\n      tag_113\n      tag_106\n      jump\t// in\n    tag_113:\n        /* \"#utility.yul\":2975:3021   */\n    tag_112:\n        /* \"#utility.yul\":2906:3027   */\n      pop\n      jump\t// out\n        /* \"#utility.yul\":3033:3155   */\n    tag_66:\n        /* \"#utility.yul\":3106:3130   */\n      tag_115\n        /* \"#utility.yul\":3124:3129   */\n      dup2\n        /* \"#utility.yul\":3106:3130   */\n      tag_92\n      jump\t// in\n    tag_115:\n        /* \"#utility.yul\":3099:3104   */\n      dup2\n        /* \"#utility.yul\":3096:3131   */\n      eq\n        /* \"#utility.yul\":3086:3149   */\n      tag_116\n      jumpi\n        /* \"#utility.yul\":3145:3146   */\n      0x00\n        /* \"#utility.yul\":3142:3143   */\n      dup1\n        /* \"#utility.yul\":3135:3147   */\n      revert\n        /* \"#utility.yul\":3086:3149   */\n    tag_116:\n        /* \"#utility.yul\":3033:3155   */\n      pop\n      jump\t// out\n\n    auxdata: 0xa2646970667358221220810bb390628768d65ae8480c1649eb5b92ffadcca2363454627dea405ea8ec8d64736f6c63430008070033\n}\n",
				"bytecode": {
					"linkReferences": {},
					"object": "608060405234801561001057600080fd5b50336000806101000a81548173ffffffffffffffffffffffffffffffffffffffff021916908373ffffffffffffffffffffffffffffffffffffffff1602179055506104ee806100606000396000f3fe60806040526004361061009c5760003560e01c80639d957d45116100645780639d957d4514610169578063a118be0214610194578063b3cc167a146101bf578063d33db697146101ea578063d57bde7914610215578063f3fb05df146102405761009c565b80631998aeef146100a15780634f5150ca146100ab57806362ea82db146100d65780637fb450991461011357806391f901571461013e575b600080fd5b6100a961026b565b005b3480156100b757600080fd5b506100c061026d565b6040516100cd91906103cb565b60405180910390f35b3480156100e257600080fd5b506100fd60048036038101906100f8919061033b565b610273565b60405161010a91906103cb565b60405180910390f35b34801561011f57600080fd5b5061012861028b565b60405161013591906103b0565b60405180910390f35b34801561014a57600080fd5b5061015361029e565b6040516101609190610395565b60405180910390f35b34801561017557600080fd5b5061017e6102c4565b60405161018b91906103cb565b60405180910390f35b3480156101a057600080fd5b506101a96102ca565b6040516101b691906103cb565b60405180910390f35b3480156101cb57600080fd5b506101d46102d0565b6040516101e191906103cb565b60405180910390f35b3480156101f657600080fd5b506101ff6102d6565b60405161020c9190610395565b60405180910390f35b34801561022157600080fd5b5061022a6102fc565b60405161023791906103cb565b60405180910390f35b34801561024c57600080fd5b50610255610302565b6040516102629190610395565b60405180910390f35b565b60055481565b60096020528060005260406000206000915090505481565b600360009054906101000a900460ff1681565b600760009054906101000a900473ffffffffffffffffffffffffffffffffffffffff1681565b60025481565b60015481565b60065481565b600860009054906101000a900473ffffffffffffffffffffffffffffffffffffffff1681565b60045481565b60008054906101000a900473ffffffffffffffffffffffffffffffffffffffff1681565b600081359050610335816104a1565b92915050565b60006020828403121561035157610350610488565b5b600061035f84828501610326565b91505092915050565b610371816103f8565b82525050565b61038081610447565b82525050565b61038f8161043d565b82525050565b60006020820190506103aa6000830184610368565b92915050565b60006020820190506103c56000830184610377565b92915050565b60006020820190506103e06000830184610386565b92915050565b60006103f18261041d565b9050919050565b60006104038261041d565b9050919050565b60008190506104188261048d565b919050565b600073ffffffffffffffffffffffffffffffffffffffff82169050919050565b6000819050919050565b60006104528261040a565b9050919050565b7f4e487b7100000000000000000000000000000000000000000000000000000000600052602160045260246000fd5b600080fd5b6004811061049e5761049d610459565b5b50565b6104aa816103e6565b81146104b557600080fd5b5056fea2646970667358221220810bb390628768d65ae8480c1649eb5b92ffadcca2363454627dea405ea8ec8d64736f6c63430008070033",
					"opcodes": "PUSH1 0x80 PUSH1 0x40 MSTORE CALLVALUE DUP1 ISZERO PUSH2 0x10 JUMPI PUSH1 0x0 DUP1 REVERT JUMPDEST POP CALLER PUSH1 0x0 DUP1 PUSH2 0x100 EXP DUP2 SLOAD DUP2 PUSH20 0xFFFFFFFFFFFFFFFFFFFFFFFFFFFFFFFFFFFFFFFF MUL NOT AND SWAP1 DUP4 PUSH20 0xFFFFFFFFFFFFFFFFFFFFFFFFFFFFFFFFFFFFFFFF AND MUL OR SWAP1 SSTORE POP PUSH2 0x4EE DUP1 PUSH2 0x60 PUSH1 0x0 CODECOPY PUSH1 0x0 RETURN INVALID PUSH1 0x80 PUSH1 0x40 MSTORE PUSH1 0x4 CALLDATASIZE LT PUSH2 0x9C JUMPI PUSH1 0x0 CALLDATALOAD PUSH1 0xE0 SHR DUP1 PUSH4 0x9D957D45 GT PUSH2 0x64 JUMPI DUP1 PUSH4 0x9D957D45 EQ PUSH2 0x169 JUMPI DUP1 PUSH4 0xA118BE02 EQ PUSH2 0x194 JUMPI DUP1 PUSH4 0xB3CC167A EQ PUSH2 0x1BF JUMPI DUP1 PUSH4 0xD33DB697 EQ PUSH2 0x1EA JUMPI DUP1 PUSH4 0xD57BDE79 EQ PUSH2 0x215 JUMPI DUP1 PUSH4 0xF3FB05DF EQ PUSH2 0x240 JUMPI PUSH2 0x9C JUMP JUMPDEST DUP1 PUSH4 0x1998AEEF EQ PUSH2 0xA1 JUMPI DUP1 PUSH4 0x4F5150CA EQ PUSH2 0xAB JUMPI DUP1 PUSH4 0x62EA82DB EQ PUSH2 0xD6 JUMPI DUP1 PUSH4 0x7FB45099 EQ PUSH2 0x113 JUMPI DUP1 PUSH4 0x91F90157 EQ PUSH2 0x13E JUMPI JUMPDEST PUSH1 0x0 DUP1 REVERT JUMPDEST PUSH2 0xA9 PUSH2 0x26B JUMP JUMPDEST STOP JUMPDEST CALLVALUE DUP1 ISZERO PUSH2 0xB7 JUMPI PUSH1 0x0 DUP1 REVERT JUMPDEST POP PUSH2 0xC0 PUSH2 0x26D JUMP JUMPDEST PUSH1 0x40 MLOAD PUSH2 0xCD SWAP2 SWAP1 PUSH2 0x3CB JUMP JUMPDEST PUSH1 0x40 MLOAD DUP1 SWAP2 SUB SWAP1 RETURN JUMPDEST CALLVALUE DUP1 ISZERO PUSH2 0xE2 JUMPI PUSH1 0x0 DUP1 REVERT JUMPDEST POP PUSH2 0xFD PUSH1 0x4 DUP1 CALLDATASIZE SUB DUP2 ADD SWAP1 PUSH2 0xF8 SWAP2 SWAP1 PUSH2 0x33B JUMP JUMPDEST PUSH2 0x273 JUMP JUMPDEST PUSH1 0x40 MLOAD PUSH2 0x10A SWAP2 SWAP1 PUSH2 0x3CB JUMP JUMPDEST PUSH1 0x40 MLOAD DUP1 SWAP2 SUB SWAP1 RETURN JUMPDEST CALLVALUE DUP1 ISZERO PUSH2 0x11F JUMPI PUSH1 0x0 DUP1 REVERT JUMPDEST POP PUSH2 0x128 PUSH2 0x28B JUMP JUMPDEST PUSH1 0x40 MLOAD PUSH2 0x135 SWAP2 SWAP1 PUSH2 0x3B0 JUMP JUMPDEST PUSH1 0x40 MLOAD DUP1 SWAP2 SUB SWAP1 RETURN JUMPDEST CALLVALUE DUP1 ISZERO PUSH2 0x14A JUMPI PUSH1 0x0 DUP1 REVERT JUMPDEST POP PUSH2 0x153 PUSH2 0x29E JUMP JUMPDEST PUSH1 0x40 MLOAD PUSH2 0x160 SWAP2 SWAP1 PUSH2 0x395 JUMP JUMPDEST PUSH1 0x40 MLOAD DUP1 SWAP2 SUB SWAP1 RETURN JUMPDEST CALLVALUE DUP1 ISZERO PUSH2 0x175 JUMPI PUSH1 0x0 DUP1 REVERT JUMPDEST POP PUSH2 0x17E PUSH2 0x2C4 JUMP JUMPDEST PUSH1 0x40 MLOAD PUSH2 0x18B SWAP2 SWAP1 PUSH2 0x3CB JUMP JUMPDEST PUSH1 0x40 MLOAD DUP1 SWAP2 SUB SWAP1 RETURN JUMPDEST CALLVALUE DUP1 ISZERO PUSH2 0x1A0 JUMPI PUSH1 0x0 DUP1 REVERT JUMPDEST POP PUSH2 0x1A9 PUSH2 0x2CA JUMP JUMPDEST PUSH1 0x40 MLOAD PUSH2 0x1B6 SWAP2 SWAP1 PUSH2 0x3CB JUMP JUMPDEST PUSH1 0x40 MLOAD DUP1 SWAP2 SUB SWAP1 RETURN JUMPDEST CALLVALUE DUP1 ISZERO PUSH2 0x1CB JUMPI PUSH1 0x0 DUP1 REVERT JUMPDEST POP PUSH2 0x1D4 PUSH2 0x2D0 JUMP JUMPDEST PUSH1 0x40 MLOAD PUSH2 0x1E1 SWAP2 SWAP1 PUSH2 0x3CB JUMP JUMPDEST PUSH1 0x40 MLOAD DUP1 SWAP2 SUB SWAP1 RETURN JUMPDEST CALLVALUE DUP1 ISZERO PUSH2 0x1F6 JUMPI PUSH1 0x0 DUP1 REVERT JUMPDEST POP PUSH2 0x1FF PUSH2 0x2D6 JUMP JUMPDEST PUSH1 0x40 MLOAD PUSH2 0x20C SWAP2 SWAP1 PUSH2 0x395 JUMP JUMPDEST PUSH1 0x40 MLOAD DUP1 SWAP2 SUB SWAP1 RETURN JUMPDEST CALLVALUE DUP1 ISZERO PUSH2 0x221 JUMPI PUSH1 0x0 DUP1 REVERT JUMPDEST POP PUSH2 0x22A PUSH2 0x2FC JUMP JUMPDEST PUSH1 0x40 MLOAD PUSH2 0x237 SWAP2 SWAP1 PUSH2 0x3CB JUMP JUMPDEST PUSH1 0x40 MLOAD DUP1 SWAP2 SUB SWAP1 RETURN JUMPDEST CALLVALUE DUP1 ISZERO PUSH2 0x24C JUMPI PUSH1 0x0 DUP1 REVERT JUMPDEST POP PUSH2 0x255 PUSH2 0x302 JUMP JUMPDEST PUSH1 0x40 MLOAD PUSH2 0x262 SWAP2 SWAP1 PUSH2 0x395 JUMP JUMPDEST PUSH1 0x40 MLOAD DUP1 SWAP2 SUB SWAP1 RETURN JUMPDEST JUMP JUMPDEST PUSH1 0x5 SLOAD DUP2 JUMP JUMPDEST PUSH1 0x9 PUSH1 0x20 MSTORE DUP1 PUSH1 0x0 MSTORE PUSH1 0x40 PUSH1 0x0 KECCAK256 PUSH1 0x0 SWAP2 POP SWAP1 POP SLOAD DUP2 JUMP JUMPDEST PUSH1 0x3 PUSH1 0x0 SWAP1 SLOAD SWAP1 PUSH2 0x100 EXP SWAP1 DIV PUSH1 0xFF AND DUP2 JUMP JUMPDEST PUSH1 0x7 PUSH1 0x0 SWAP1 SLOAD SWAP1 PUSH2 0x100 EXP SWAP1 DIV PUSH20 0xFFFFFFFFFFFFFFFFFFFFFFFFFFFFFFFFFFFFFFFF AND DUP2 JUMP JUMPDEST PUSH1 0x2 SLOAD DUP2 JUMP JUMPDEST PUSH1 0x1 SLOAD DUP2 JUMP JUMPDEST PUSH1 0x6 SLOAD DUP2 JUMP JUMPDEST PUSH1 0x8 PUSH1 0x0 SWAP1 SLOAD SWAP1 PUSH2 0x100 EXP SWAP1 DIV PUSH20 0xFFFFFFFFFFFFFFFFFFFFFFFFFFFFFFFFFFFFFFFF AND DUP2 JUMP JUMPDEST PUSH1 0x4 SLOAD DUP2 JUMP JUMPDEST PUSH1 0x0 DUP1 SLOAD SWAP1 PUSH2 0x100 EXP SWAP1 DIV PUSH20 0xFFFFFFFFFFFFFFFFFFFFFFFFFFFFFFFFFFFFFFFF AND DUP2 JUMP JUMPDEST PUSH1 0x0 DUP2 CALLDATALOAD SWAP1 POP PUSH2 0x335 DUP2 PUSH2 0x4A1 JUMP JUMPDEST SWAP3 SWAP2 POP POP JUMP JUMPDEST PUSH1 0x0 PUSH1 0x20 DUP3 DUP5 SUB SLT ISZERO PUSH2 0x351 JUMPI PUSH2 0x350 PUSH2 0x488 JUMP JUMPDEST JUMPDEST PUSH1 0x0 PUSH2 0x35F DUP5 DUP3 DUP6 ADD PUSH2 0x326 JUMP JUMPDEST SWAP2 POP POP SWAP3 SWAP2 POP POP JUMP JUMPDEST PUSH2 0x371 DUP2 PUSH2 0x3F8 JUMP JUMPDEST DUP3 MSTORE POP POP JUMP JUMPDEST PUSH2 0x380 DUP2 PUSH2 0x447 JUMP JUMPDEST DUP3 MSTORE POP POP JUMP JUMPDEST PUSH2 0x38F DUP2 PUSH2 0x43D JUMP JUMPDEST DUP3 MSTORE POP POP JUMP JUMPDEST PUSH1 0x0 PUSH1 0x20 DUP3 ADD SWAP1 POP PUSH2 0x3AA PUSH1 0x0 DUP4 ADD DUP5 PUSH2 0x368 JUMP JUMPDEST SWAP3 SWAP2 POP POP JUMP JUMPDEST PUSH1 0x0 PUSH1 0x20 DUP3 ADD SWAP1 POP PUSH2 0x3C5 PUSH1 0x0 DUP4 ADD DUP5 PUSH2 0x377 JUMP JUMPDEST SWAP3 SWAP2 POP POP JUMP JUMPDEST PUSH1 0x0 PUSH1 0x20 DUP3 ADD SWAP1 POP PUSH2 0x3E0 PUSH1 0x0 DUP4 ADD DUP5 PUSH2 0x386 JUMP JUMPDEST SWAP3 SWAP2 POP POP JUMP JUMPDEST PUSH1 0x0 PUSH2 0x3F1 DUP3 PUSH2 0x41D JUMP JUMPDEST SWAP1 POP SWAP2 SWAP1 POP JUMP JUMPDEST PUSH1 0x0 PUSH2 0x403 DUP3 PUSH2 0x41D JUMP JUMPDEST SWAP1 POP SWAP2 SWAP1 POP JUMP JUMPDEST PUSH1 0x0 DUP2 SWAP1 POP PUSH2 0x418 DUP3 PUSH2 0x48D JUMP JUMPDEST SWAP2 SWAP1 POP JUMP JUMPDEST PUSH1 0x0 PUSH20 0xFFFFFFFFFFFFFFFFFFFFFFFFFFFFFFFFFFFFFFFF DUP3 AND SWAP1 POP SWAP2 SWAP1 POP JUMP JUMPDEST PUSH1 0x0 DUP2 SWAP1 POP SWAP2 SWAP1 POP JUMP JUMPDEST PUSH1 0x0 PUSH2 0x452 DUP3 PUSH2 0x40A JUMP JUMPDEST SWAP1 POP SWAP2 SWAP1 POP JUMP JUMPDEST PUSH32 0x4E487B7100000000000000000000000000000000000000000000000000000000 PUSH1 0x0 MSTORE PUSH1 0x21 PUSH1 0x4 MSTORE PUSH1 0x24 PUSH1 0x0 REVERT JUMPDEST PUSH1 0x0 DUP1 REVERT JUMPDEST PUSH1 0x4 DUP2 LT PUSH2 0x49E JUMPI PUSH2 0x49D PUSH2 0x459 JUMP JUMPDEST JUMPDEST POP JUMP JUMPDEST PUSH2 0x4AA DUP2 PUSH2 0x3E6 JUMP JUMPDEST DUP2 EQ PUSH2 0x4B5 JUMPI PUSH1 0x0 DUP1 REVERT JUMPDEST POP JUMP INVALID LOG2 PUSH5 0x6970667358 0x22 SLT KECCAK256 DUP2 SIGNEXTEND 0xB3 SWAP1 PUSH3 0x8768D6 GAS 0xE8 BASEFEE 0xC AND 0x49 0xEB JUMPDEST SWAP3 SELFDESTRUCT 0xAD 0xCC LOG2 CALLDATASIZE CALLVALUE SLOAD PUSH3 0x7DEA40 0x5E 0xA8 0xEC DUP14 PUSH5 0x736F6C6343 STOP ADDMOD SMOD STOP CALLER "
				},
				"gasEstimates": {
					"creation": {
						"codeDepositCost": "252400",
						"executionCost": "24560",
						"totalCost": "276960"
					},
					"external": {
						"auctionState()": "2627",
						"auctioner()": "2621",
						"bid()": "121",
						"bidIncrement()": "2473",
						"bids(address)": "2859",
						"currentBidder()": "2580",
						"etblock()": "2429",
						"highestBid()": "2517",
						"highestBidder()": "2603",
						"highestPayableBid()": "2452",
						"stblock()": "2451"
					}
				},
				"methodIdentifiers": {
					"auctionState()": "7fb45099",
					"auctioner()": "f3fb05df",
					"bid()": "1998aeef",
					"bidIncrement()": "b3cc167a",
					"bids(address)": "62ea82db",
					"currentBidder()": "d33db697",
					"etblock()": "9d957d45",
					"highestBid()": "d57bde79",
					"highestBidder()": "91f90157",
					"highestPayableBid()": "4f5150ca",
					"stblock()": "a118be02"
				}
			},
			"storageLayout": {
				"storage": [
					{
						"astId": 3,
						"contract": "auction.sol:auction",
						"label": "auctioner",
						"offset": 0,
						"slot": "0",
						"type": "t_address_payable"
					},
					{
						"astId": 5,
						"contract": "auction.sol:auction",
						"label": "stblock",
						"offset": 0,
						"slot": "1",
						"type": "t_uint256"
					},
					{
						"astId": 7,
						"contract": "auction.sol:auction",
						"label": "etblock",
						"offset": 0,
						"slot": "2",
						"type": "t_uint256"
					},
					{
						"astId": 27,
						"contract": "auction.sol:auction",
						"label": "auctionState",
						"offset": 0,
						"slot": "3",
						"type": "t_enum(auction_state)24"
					},
					{
						"astId": 29,
						"contract": "auction.sol:auction",
						"label": "highestBid",
						"offset": 0,
						"slot": "4",
						"type": "t_uint256"
					},
					{
						"astId": 31,
						"contract": "auction.sol:auction",
						"label": "highestPayableBid",
						"offset": 0,
						"slot": "5",
						"type": "t_uint256"
					},
					{
						"astId": 33,
						"contract": "auction.sol:auction",
						"label": "bidIncrement",
						"offset": 0,
						"slot": "6",
						"type": "t_uint256"
					},
					{
						"astId": 35,
						"contract": "auction.sol:auction",
						"label": "highestBidder",
						"offset": 0,
						"slot": "7",
						"type": "t_address_payable"
					},
					{
						"astId": 37,
						"contract": "auction.sol:auction",
						"label": "currentBidder",
						"offset": 0,
						"slot": "8",
						"type": "t_address_payable"
					},
					{
						"astId": 41,
						"contract": "auction.sol:auction",
						"label": "bids",
						"offset": 0,
						"slot": "9",
						"type": "t_mapping(t_address,t_uint256)"
					}
				],
				"types": {
					"t_address": {
						"encoding": "inplace",
						"label": "address",
						"numberOfBytes": "20"
					},
					"t_address_payable": {
						"encoding": "inplace",
						"label": "address payable",
						"numberOfBytes": "20"
					},
					"t_enum(auction_state)24": {
						"encoding": "inplace",
						"label": "enum auction.auction_state",
						"numberOfBytes": "1"
					},
					"t_mapping(t_address,t_uint256)": {
						"encoding": "mapping",
						"key": "t_address",
						"label": "mapping(address => uint256)",
						"numberOfBytes": "32",
						"value": "t_uint256"
					},
					"t_uint256": {
						"encoding": "inplace",
						"label": "uint256",
						"numberOfBytes": "32"
					}
				}
			},
			"userdoc": {
				"kind": "user",
				"methods": {},
				"version": 1
			}
		}
	}
}