{
	"auction.sol": {
		"auction": {
			"abi": [
				{
					"inputs": [],
					"stateMutability": "nonpayable",
					"type": "constructor"
				},
				{
					"inputs": [],
					"name": "auctionState",
					"outputs": [
						{
							"internalType": "enum auction.auction_state",
							"name": "",
							"type": "uint8"
						}
					],
					"stateMutability": "view",
					"type": "function"
				},
				{
					"inputs": [],
					"name": "auctioner",
					"outputs": [
						{
							"internalType": "address payable",
							"name": "",
							"type": "address"
						}
					],
					"stateMutability": "view",
					"type": "function"
				},
				{
					"inputs": [],
					"name": "bid",
					"outputs": [],
					"stateMutability": "payable",
					"type": "function"
				},
				{
					"inputs": [],
					"name": "bidIncrement",
					"outputs": [
						{
							"internalType": "uint256",
							"name": "",
							"type": "uint256"
						}
					],
					"stateMutability": "view",
					"type": "function"
				},
				{
					"inputs": [
						{
							"internalType": "address",
							"name": "",
							"type": "address"
						}
					],
					"name": "bids",
					"outputs": [
						{
							"internalType": "uint256",
							"name": "",
							"type": "uint256"
						}
					],
					"stateMutability": "view",
					"type": "function"
				},
				{
					"inputs": [],
					"name": "cancelAuc",
					"outputs": [],
					"stateMutability": "nonpayable",
					"type": "function"
				},
				{
					"inputs": [],
					"name": "etblock",
					"outputs": [
						{
							"internalType": "uint256",
							"name": "",
							"type": "uint256"
						}
					],
					"stateMutability": "view",
					"type": "function"
				},
				{
					"inputs": [],
					"name": "highestBidder",
					"outputs": [
						{
							"internalType": "address payable",
							"name": "",
							"type": "address"
						}
					],
					"stateMutability": "view",
					"type": "function"
				},
				{
					"inputs": [],
					"name": "highestPayableBid",
					"outputs": [
						{
							"internalType": "uint256",
							"name": "",
							"type": "uint256"
						}
					],
					"stateMutability": "view",
					"type": "function"
				},
				{
					"inputs": [],
					"name": "stblock",
					"outputs": [
						{
							"internalType": "uint256",
							"name": "",
							"type": "uint256"
						}
					],
					"stateMutability": "view",
					"type": "function"
				}
			],
			"devdoc": {
				"kind": "dev",
				"methods": {},
				"version": 1
			},
			"evm": {
				"assembly": "    /* \"auction.sol\":63:1942  contract auction{\r... */\n  mstore(0x40, 0x80)\n    /* \"auction.sol\":506:716  constructor(){\r... */\n  callvalue\n  dup1\n  iszero\n  tag_1\n  jumpi\n  0x00\n  dup1\n  revert\ntag_1:\n  pop\n    /* \"auction.sol\":550:560  msg.sender */\n  caller\n    /* \"auction.sol\":530:539  auctioner */\n  0x00\n  dup1\n    /* \"auction.sol\":530:561  auctioner = payable(msg.sender) */\n  0x0100\n  exp\n  dup2\n  sload\n  dup2\n  0xffffffffffffffffffffffffffffffffffffffff\n  mul\n  not\n  and\n  swap1\n  dup4\n  0xffffffffffffffffffffffffffffffffffffffff\n  and\n  mul\n  or\n  swap1\n  sstore\n  pop\n    /* \"auction.sol\":587:608  auction_state.running */\n  0x01\n    /* \"auction.sol\":572:584  auctionState */\n  0x03\n  0x00\n    /* \"auction.sol\":572:608  auctionState = auction_state.running */\n  0x0100\n  exp\n  dup2\n  sload\n  dup2\n  0xff\n  mul\n  not\n  and\n  swap1\n  dup4\n  0x03\n  dup2\n  gt\n  iszero\n  tag_4\n  jumpi\n  tag_5\n  tag_6\n  jump\t// in\ntag_5:\ntag_4:\n  mul\n  or\n  swap1\n  sstore\n  pop\n    /* \"auction.sol\":629:641  block.number */\n  number\n    /* \"auction.sol\":619:626  stblock */\n  0x01\n    /* \"auction.sol\":619:641  stblock = block.number */\n  dup2\n  swap1\n  sstore\n  pop\n    /* \"auction.sol\":672:675  240 */\n  0xf0\n    /* \"auction.sol\":662:669  stblock */\n  sload(0x01)\n    /* \"auction.sol\":662:675  stblock + 240 */\n  tag_7\n  swap2\n  swap1\n  tag_8\n  jump\t// in\ntag_7:\n    /* \"auction.sol\":652:659  etblock */\n  0x02\n    /* \"auction.sol\":652:675  etblock = stblock + 240 */\n  dup2\n  swap1\n  sstore\n  pop\n    /* \"auction.sol\":701:708  1 ether */\n  0x0de0b6b3a7640000\n    /* \"auction.sol\":686:698  bidIncrement */\n  0x05\n    /* \"auction.sol\":686:708  bidIncrement = 1 ether */\n  dup2\n  swap1\n  sstore\n  pop\n    /* \"auction.sol\":63:1942  contract auction{\r... */\n  jump(tag_9)\n    /* \"#utility.yul\":7:312   */\ntag_8:\n    /* \"#utility.yul\":47:50   */\n  0x00\n    /* \"#utility.yul\":66:86   */\n  tag_12\n    /* \"#utility.yul\":84:85   */\n  dup3\n    /* \"#utility.yul\":66:86   */\n  tag_13\n  jump\t// in\ntag_12:\n    /* \"#utility.yul\":61:86   */\n  swap2\n  pop\n    /* \"#utility.yul\":100:120   */\n  tag_14\n    /* \"#utility.yul\":118:119   */\n  dup4\n    /* \"#utility.yul\":100:120   */\n  tag_13\n  jump\t// in\ntag_14:\n    /* \"#utility.yul\":95:120   */\n  swap3\n  pop\n    /* \"#utility.yul\":254:255   */\n  dup3\n    /* \"#utility.yul\":186:252   */\n  0xffffffffffffffffffffffffffffffffffffffffffffffffffffffffffffffff\n    /* \"#utility.yul\":182:256   */\n  sub\n    /* \"#utility.yul\":179:180   */\n  dup3\n    /* \"#utility.yul\":176:257   */\n  gt\n    /* \"#utility.yul\":173:280   */\n  iszero\n  tag_15\n  jumpi\n    /* \"#utility.yul\":260:278   */\n  tag_16\n  tag_17\n  jump\t// in\ntag_16:\n    /* \"#utility.yul\":173:280   */\ntag_15:\n    /* \"#utility.yul\":304:305   */\n  dup3\n    /* \"#utility.yul\":301:302   */\n  dup3\n    /* \"#utility.yul\":297:306   */\n  add\n    /* \"#utility.yul\":290:306   */\n  swap1\n  pop\n    /* \"#utility.yul\":7:312   */\n  swap3\n  swap2\n  pop\n  pop\n  jump\t// out\n    /* \"#utility.yul\":318:395   */\ntag_13:\n    /* \"#utility.yul\":355:362   */\n  0x00\n    /* \"#utility.yul\":384:389   */\n  dup2\n    /* \"#utility.yul\":373:389   */\n  swap1\n  pop\n    /* \"#utility.yul\":318:395   */\n  swap2\n  swap1\n  pop\n  jump\t// out\n    /* \"#utility.yul\":401:581   */\ntag_17:\n    /* \"#utility.yul\":449:526   */\n  0x4e487b7100000000000000000000000000000000000000000000000000000000\n    /* \"#utility.yul\":446:447   */\n  0x00\n    /* \"#utility.yul\":439:527   */\n  mstore\n    /* \"#utility.yul\":546:550   */\n  0x11\n    /* \"#utility.yul\":543:544   */\n  0x04\n    /* \"#utility.yul\":536:551   */\n  mstore\n    /* \"#utility.yul\":570:574   */\n  0x24\n    /* \"#utility.yul\":567:568   */\n  0x00\n    /* \"#utility.yul\":560:575   */\n  revert\n    /* \"#utility.yul\":587:767   */\ntag_6:\n    /* \"#utility.yul\":635:712   */\n  0x4e487b7100000000000000000000000000000000000000000000000000000000\n    /* \"#utility.yul\":632:633   */\n  0x00\n    /* \"#utility.yul\":625:713   */\n  mstore\n    /* \"#utility.yul\":732:736   */\n  0x21\n    /* \"#utility.yul\":729:730   */\n  0x04\n    /* \"#utility.yul\":722:737   */\n  mstore\n    /* \"#utility.yul\":756:760   */\n  0x24\n    /* \"#utility.yul\":753:754   */\n  0x00\n    /* \"#utility.yul\":746:761   */\n  revert\n    /* \"auction.sol\":63:1942  contract auction{\r... */\ntag_9:\n  dataSize(sub_0)\n  dup1\n  dataOffset(sub_0)\n  0x00\n  codecopy\n  0x00\n  return\nstop\n\nsub_0: assembly {\n        /* \"auction.sol\":63:1942  contract auction{\r... */\n      mstore(0x40, 0x80)\n      jumpi(tag_1, lt(calldatasize, 0x04))\n      shr(0xe0, calldataload(0x00))\n      dup1\n      0x91f90157\n      gt\n      tag_12\n      jumpi\n      dup1\n      0x91f90157\n      eq\n      tag_7\n      jumpi\n      dup1\n      0x9d957d45\n      eq\n      tag_8\n      jumpi\n      dup1\n      0xa118be02\n      eq\n      tag_9\n      jumpi\n      dup1\n      0xb3cc167a\n      eq\n      tag_10\n      jumpi\n      dup1\n      0xf3fb05df\n      eq\n      tag_11\n      jumpi\n      jump(tag_1)\n    tag_12:\n      dup1\n      0x1998aeef\n      eq\n      tag_2\n      jumpi\n      dup1\n      0x2352f320\n      eq\n      tag_3\n      jumpi\n      dup1\n      0x4f5150ca\n      eq\n      tag_4\n      jumpi\n      dup1\n      0x62ea82db\n      eq\n      tag_5\n      jumpi\n      dup1\n      0x7fb45099\n      eq\n      tag_6\n      jumpi\n    tag_1:\n      0x00\n      dup1\n      revert\n        /* \"auction.sol\":1398:1939  function bid() public payable notOwner started ended{\r... */\n    tag_2:\n      tag_13\n      tag_14\n      jump\t// in\n    tag_13:\n      stop\n        /* \"auction.sol\":1303:1390  function cancelAuc() public owner{\r... */\n    tag_3:\n      callvalue\n      dup1\n      iszero\n      tag_15\n      jumpi\n      0x00\n      dup1\n      revert\n    tag_15:\n      pop\n      tag_16\n      tag_17\n      jump\t// in\n    tag_16:\n      stop\n        /* \"auction.sol\":324:353  uint public highestPayableBid */\n    tag_4:\n      callvalue\n      dup1\n      iszero\n      tag_18\n      jumpi\n      0x00\n      dup1\n      revert\n    tag_18:\n      pop\n      tag_19\n      tag_20\n      jump\t// in\n    tag_19:\n      mload(0x40)\n      tag_21\n      swap2\n      swap1\n      tag_22\n      jump\t// in\n    tag_21:\n      mload(0x40)\n      dup1\n      swap2\n      sub\n      swap1\n      return\n        /* \"auction.sol\":436:470  mapping(address=>uint) public bids */\n    tag_5:\n      callvalue\n      dup1\n      iszero\n      tag_23\n      jumpi\n      0x00\n      dup1\n      revert\n    tag_23:\n      pop\n      tag_24\n      0x04\n      dup1\n      calldatasize\n      sub\n      dup2\n      add\n      swap1\n      tag_25\n      swap2\n      swap1\n      tag_26\n      jump\t// in\n    tag_25:\n      tag_27\n      jump\t// in\n    tag_24:\n      mload(0x40)\n      tag_28\n      swap2\n      swap1\n      tag_22\n      jump\t// in\n    tag_28:\n      mload(0x40)\n      dup1\n      swap2\n      sub\n      swap1\n      return\n        /* \"auction.sol\":282:315  auction_state public auctionState */\n    tag_6:\n      callvalue\n      dup1\n      iszero\n      tag_29\n      jumpi\n      0x00\n      dup1\n      revert\n    tag_29:\n      pop\n      tag_30\n      tag_31\n      jump\t// in\n    tag_30:\n      mload(0x40)\n      tag_32\n      swap2\n      swap1\n      tag_33\n      jump\t// in\n    tag_32:\n      mload(0x40)\n      dup1\n      swap2\n      sub\n      swap1\n      return\n        /* \"auction.sol\":393:429  address payable public highestBidder */\n    tag_7:\n      callvalue\n      dup1\n      iszero\n      tag_34\n      jumpi\n      0x00\n      dup1\n      revert\n    tag_34:\n      pop\n      tag_35\n      tag_36\n      jump\t// in\n    tag_35:\n      mload(0x40)\n      tag_37\n      swap2\n      swap1\n      tag_38\n      jump\t// in\n    tag_37:\n      mload(0x40)\n      dup1\n      swap2\n      sub\n      swap1\n      return\n        /* \"auction.sol\":164:183  uint public etblock */\n    tag_8:\n      callvalue\n      dup1\n      iszero\n      tag_39\n      jumpi\n      0x00\n      dup1\n      revert\n    tag_39:\n      pop\n      tag_40\n      tag_41\n      jump\t// in\n    tag_40:\n      mload(0x40)\n      tag_42\n      swap2\n      swap1\n      tag_22\n      jump\t// in\n    tag_42:\n      mload(0x40)\n      dup1\n      swap2\n      sub\n      swap1\n      return\n        /* \"auction.sol\":125:144  uint public stblock */\n    tag_9:\n      callvalue\n      dup1\n      iszero\n      tag_43\n      jumpi\n      0x00\n      dup1\n      revert\n    tag_43:\n      pop\n      tag_44\n      tag_45\n      jump\t// in\n    tag_44:\n      mload(0x40)\n      tag_46\n      swap2\n      swap1\n      tag_22\n      jump\t// in\n    tag_46:\n      mload(0x40)\n      dup1\n      swap2\n      sub\n      swap1\n      return\n        /* \"auction.sol\":360:384  uint public bidIncrement */\n    tag_10:\n      callvalue\n      dup1\n      iszero\n      tag_47\n      jumpi\n      0x00\n      dup1\n      revert\n    tag_47:\n      pop\n      tag_48\n      tag_49\n      jump\t// in\n    tag_48:\n      mload(0x40)\n      tag_50\n      swap2\n      swap1\n      tag_22\n      jump\t// in\n    tag_50:\n      mload(0x40)\n      dup1\n      swap2\n      sub\n      swap1\n      return\n        /* \"auction.sol\":86:118  address payable public auctioner */\n    tag_11:\n      callvalue\n      dup1\n      iszero\n      tag_51\n      jumpi\n      0x00\n      dup1\n      revert\n    tag_51:\n      pop\n      tag_52\n      tag_53\n      jump\t// in\n    tag_52:\n      mload(0x40)\n      tag_54\n      swap2\n      swap1\n      tag_38\n      jump\t// in\n    tag_54:\n      mload(0x40)\n      dup1\n      swap2\n      sub\n      swap1\n      return\n        /* \"auction.sol\":1398:1939  function bid() public payable notOwner started ended{\r... */\n    tag_14:\n        /* \"auction.sol\":799:808  auctioner */\n      0x00\n      dup1\n      sload\n      swap1\n      0x0100\n      exp\n      swap1\n      div\n      0xffffffffffffffffffffffffffffffffffffffff\n      and\n        /* \"auction.sol\":785:808  msg.sender != auctioner */\n      0xffffffffffffffffffffffffffffffffffffffff\n      and\n        /* \"auction.sol\":785:795  msg.sender */\n      caller\n        /* \"auction.sol\":785:808  msg.sender != auctioner */\n      0xffffffffffffffffffffffffffffffffffffffff\n      and\n      eq\n      iszero\n        /* \"auction.sol\":777:829  require(msg.sender != auctioner, \"Owner cannot bid\") */\n      tag_56\n      jumpi\n      mload(0x40)\n      0x08c379a000000000000000000000000000000000000000000000000000000000\n      dup2\n      mstore\n      0x04\n      add\n      tag_57\n      swap1\n      tag_58\n      jump\t// in\n    tag_57:\n      mload(0x40)\n      dup1\n      swap2\n      sub\n      swap1\n      revert\n    tag_56:\n        /* \"auction.sol\":1018:1025  stblock */\n      sload(0x01)\n        /* \"auction.sol\":1002:1014  block.number */\n      number\n        /* \"auction.sol\":1002:1025  block.number >= stblock */\n      lt\n      iszero\n        /* \"auction.sol\":994:1026  require(block.number >= stblock) */\n      tag_60\n      jumpi\n      0x00\n      dup1\n      revert\n    tag_60:\n        /* \"auction.sol\":1102:1109  etblock */\n      sload(0x02)\n        /* \"auction.sol\":1087:1099  block.number */\n      number\n        /* \"auction.sol\":1087:1109  block.number < etblock */\n      lt\n        /* \"auction.sol\":1079:1110  require(block.number < etblock) */\n      tag_62\n      jumpi\n      0x00\n      dup1\n      revert\n    tag_62:\n        /* \"auction.sol\":1485:1506  auction_state.running */\n      0x01\n        /* \"auction.sol\":1469:1506  auctionState == auction_state.running */\n      0x03\n      dup2\n      gt\n      iszero\n      tag_64\n      jumpi\n      tag_65\n      tag_66\n      jump\t// in\n    tag_65:\n    tag_64:\n        /* \"auction.sol\":1469:1481  auctionState */\n      0x03\n      0x00\n      swap1\n      sload\n      swap1\n      0x0100\n      exp\n      swap1\n      div\n      0xff\n      and\n        /* \"auction.sol\":1469:1506  auctionState == auction_state.running */\n      0x03\n      dup2\n      gt\n      iszero\n      tag_67\n      jumpi\n      tag_68\n      tag_66\n      jump\t// in\n    tag_68:\n    tag_67:\n      eq\n        /* \"auction.sol\":1461:1527  require(auctionState == auction_state.running, \"Auction is ended\") */\n      tag_69\n      jumpi\n      mload(0x40)\n      0x08c379a000000000000000000000000000000000000000000000000000000000\n      dup2\n      mstore\n      0x04\n      add\n      tag_70\n      swap1\n      tag_71\n      jump\t// in\n    tag_70:\n      mload(0x40)\n      dup1\n      swap2\n      sub\n      swap1\n      revert\n    tag_69:\n        /* \"auction.sol\":1558:1565  1 ether */\n      0x0de0b6b3a7640000\n        /* \"auction.sol\":1546:1555  msg.value */\n      callvalue\n        /* \"auction.sol\":1546:1565  msg.value > 1 ether */\n      gt\n        /* \"auction.sol\":1538:1590  require(msg.value > 1 ether, \"Ether is less than 1\") */\n      tag_72\n      jumpi\n      mload(0x40)\n      0x08c379a000000000000000000000000000000000000000000000000000000000\n      dup2\n      mstore\n      0x04\n      add\n      tag_73\n      swap1\n      tag_74\n      jump\t// in\n    tag_73:\n      mload(0x40)\n      dup1\n      swap2\n      sub\n      swap1\n      revert\n    tag_72:\n        /* \"auction.sol\":1603:1621  uint currentBidder */\n      0x00\n        /* \"auction.sol\":1643:1655  bidIncrement */\n      sload(0x05)\n        /* \"auction.sol\":1624:1628  bids */\n      0x07\n        /* \"auction.sol\":1624:1640  bids[msg.sender] */\n      0x00\n        /* \"auction.sol\":1629:1639  msg.sender */\n      caller\n        /* \"auction.sol\":1624:1640  bids[msg.sender] */\n      0xffffffffffffffffffffffffffffffffffffffff\n      and\n      0xffffffffffffffffffffffffffffffffffffffff\n      and\n      dup2\n      mstore\n      0x20\n      add\n      swap1\n      dup2\n      mstore\n      0x20\n      add\n      0x00\n      keccak256\n      sload\n        /* \"auction.sol\":1624:1655  bids[msg.sender] + bidIncrement */\n      tag_75\n      swap2\n      swap1\n      tag_76\n      jump\t// in\n    tag_75:\n        /* \"auction.sol\":1603:1655  uint currentBidder = bids[msg.sender] + bidIncrement */\n      swap1\n      pop\n        /* \"auction.sol\":1692:1709  highestPayableBid */\n      sload(0x04)\n        /* \"auction.sol\":1676:1689  currentBidder */\n      dup2\n        /* \"auction.sol\":1676:1709  currentBidder > highestPayableBid */\n      gt\n        /* \"auction.sol\":1668:1738  require(currentBidder > highestPayableBid, \"Less than highestpayable\") */\n      tag_77\n      jumpi\n      mload(0x40)\n      0x08c379a000000000000000000000000000000000000000000000000000000000\n      dup2\n      mstore\n      0x04\n      add\n      tag_78\n      swap1\n      tag_79\n      jump\t// in\n    tag_78:\n      mload(0x40)\n      dup1\n      swap2\n      sub\n      swap1\n      revert\n    tag_77:\n        /* \"auction.sol\":1770:1783  currentBidder */\n      dup1\n        /* \"auction.sol\":1751:1755  bids */\n      0x07\n        /* \"auction.sol\":1751:1767  bids[msg.sender] */\n      0x00\n        /* \"auction.sol\":1756:1766  msg.sender */\n      caller\n        /* \"auction.sol\":1751:1767  bids[msg.sender] */\n      0xffffffffffffffffffffffffffffffffffffffff\n      and\n      0xffffffffffffffffffffffffffffffffffffffff\n      and\n      dup2\n      mstore\n      0x20\n      add\n      swap1\n      dup2\n      mstore\n      0x20\n      add\n      0x00\n      keccak256\n        /* \"auction.sol\":1751:1783  bids[msg.sender] = currentBidder */\n      dup2\n      swap1\n      sstore\n      pop\n        /* \"auction.sol\":1813:1817  bids */\n      0x07\n        /* \"auction.sol\":1813:1832  bids[highestBidder] */\n      0x00\n        /* \"auction.sol\":1818:1831  highestBidder */\n      0x06\n      0x00\n      swap1\n      sload\n      swap1\n      0x0100\n      exp\n      swap1\n      div\n      0xffffffffffffffffffffffffffffffffffffffff\n      and\n        /* \"auction.sol\":1813:1832  bids[highestBidder] */\n      0xffffffffffffffffffffffffffffffffffffffff\n      and\n      0xffffffffffffffffffffffffffffffffffffffff\n      and\n      dup2\n      mstore\n      0x20\n      add\n      swap1\n      dup2\n      mstore\n      0x20\n      add\n      0x00\n      keccak256\n      sload\n        /* \"auction.sol\":1797:1810  currentBidder */\n      dup2\n        /* \"auction.sol\":1797:1832  currentBidder < bids[highestBidder] */\n      lt\n        /* \"auction.sol\":1794:1932  if(currentBidder < bids[highestBidder]){\r... */\n      iszero\n      tag_80\n      jumpi\n        /* \"auction.sol\":1868:1920  min(currentBidder+bidIncrement, bids[highestBidder]) */\n      tag_81\n        /* \"auction.sol\":1886:1898  bidIncrement */\n      sload(0x05)\n        /* \"auction.sol\":1872:1885  currentBidder */\n      dup3\n        /* \"auction.sol\":1872:1898  currentBidder+bidIncrement */\n      tag_82\n      swap2\n      swap1\n      tag_76\n      jump\t// in\n    tag_82:\n        /* \"auction.sol\":1900:1904  bids */\n      0x07\n        /* \"auction.sol\":1900:1919  bids[highestBidder] */\n      0x00\n        /* \"auction.sol\":1905:1918  highestBidder */\n      0x06\n      0x00\n      swap1\n      sload\n      swap1\n      0x0100\n      exp\n      swap1\n      div\n      0xffffffffffffffffffffffffffffffffffffffff\n      and\n        /* \"auction.sol\":1900:1919  bids[highestBidder] */\n      0xffffffffffffffffffffffffffffffffffffffff\n      and\n      0xffffffffffffffffffffffffffffffffffffffff\n      and\n      dup2\n      mstore\n      0x20\n      add\n      swap1\n      dup2\n      mstore\n      0x20\n      add\n      0x00\n      keccak256\n      sload\n        /* \"auction.sol\":1868:1871  min */\n      tag_83\n        /* \"auction.sol\":1868:1920  min(currentBidder+bidIncrement, bids[highestBidder]) */\n      jump\t// in\n    tag_81:\n        /* \"auction.sol\":1848:1865  highestPayableBid */\n      0x04\n        /* \"auction.sol\":1848:1920  highestPayableBid = min(currentBidder+bidIncrement, bids[highestBidder]) */\n      dup2\n      swap1\n      sstore\n      pop\n        /* \"auction.sol\":1794:1932  if(currentBidder < bids[highestBidder]){\r... */\n    tag_80:\n        /* \"auction.sol\":1450:1939  {\r... */\n      pop\n        /* \"auction.sol\":1398:1939  function bid() public payable notOwner started ended{\r... */\n      jump\t// out\n        /* \"auction.sol\":1303:1390  function cancelAuc() public owner{\r... */\n    tag_17:\n        /* \"auction.sol\":904:913  auctioner */\n      0x00\n      dup1\n      sload\n      swap1\n      0x0100\n      exp\n      swap1\n      div\n      0xffffffffffffffffffffffffffffffffffffffff\n      and\n        /* \"auction.sol\":890:913  msg.sender == auctioner */\n      0xffffffffffffffffffffffffffffffffffffffff\n      and\n        /* \"auction.sol\":890:900  msg.sender */\n      caller\n        /* \"auction.sol\":890:913  msg.sender == auctioner */\n      0xffffffffffffffffffffffffffffffffffffffff\n      and\n      eq\n        /* \"auction.sol\":882:939  require(msg.sender == auctioner, \"You are not the owner\") */\n      tag_85\n      jumpi\n      mload(0x40)\n      0x08c379a000000000000000000000000000000000000000000000000000000000\n      dup2\n      mstore\n      0x04\n      add\n      tag_86\n      swap1\n      tag_87\n      jump\t// in\n    tag_86:\n      mload(0x40)\n      dup1\n      swap2\n      sub\n      swap1\n      revert\n    tag_85:\n        /* \"auction.sol\":1362:1382  auction_state.cancel */\n      0x03\n        /* \"auction.sol\":1347:1359  auctionState */\n      dup1\n      0x00\n        /* \"auction.sol\":1347:1382  auctionState = auction_state.cancel */\n      0x0100\n      exp\n      dup2\n      sload\n      dup2\n      0xff\n      mul\n      not\n      and\n      swap1\n      dup4\n      0x03\n      dup2\n      gt\n      iszero\n      tag_89\n      jumpi\n      tag_90\n      tag_66\n      jump\t// in\n    tag_90:\n    tag_89:\n      mul\n      or\n      swap1\n      sstore\n      pop\n        /* \"auction.sol\":1303:1390  function cancelAuc() public owner{\r... */\n      jump\t// out\n        /* \"auction.sol\":324:353  uint public highestPayableBid */\n    tag_20:\n      sload(0x04)\n      dup2\n      jump\t// out\n        /* \"auction.sol\":436:470  mapping(address=>uint) public bids */\n    tag_27:\n      mstore(0x20, 0x07)\n      dup1\n      0x00\n      mstore\n      keccak256(0x00, 0x40)\n      0x00\n      swap2\n      pop\n      swap1\n      pop\n      sload\n      dup2\n      jump\t// out\n        /* \"auction.sol\":282:315  auction_state public auctionState */\n    tag_31:\n      0x03\n      0x00\n      swap1\n      sload\n      swap1\n      0x0100\n      exp\n      swap1\n      div\n      0xff\n      and\n      dup2\n      jump\t// out\n        /* \"auction.sol\":393:429  address payable public highestBidder */\n    tag_36:\n      0x06\n      0x00\n      swap1\n      sload\n      swap1\n      0x0100\n      exp\n      swap1\n      div\n      0xffffffffffffffffffffffffffffffffffffffff\n      and\n      dup2\n      jump\t// out\n        /* \"auction.sol\":164:183  uint public etblock */\n    tag_41:\n      sload(0x02)\n      dup2\n      jump\t// out\n        /* \"auction.sol\":125:144  uint public stblock */\n    tag_45:\n      sload(0x01)\n      dup2\n      jump\t// out\n        /* \"auction.sol\":360:384  uint public bidIncrement */\n    tag_49:\n      sload(0x05)\n      dup2\n      jump\t// out\n        /* \"auction.sol\":86:118  address payable public auctioner */\n    tag_53:\n      0x00\n      dup1\n      sload\n      swap1\n      0x0100\n      exp\n      swap1\n      div\n      0xffffffffffffffffffffffffffffffffffffffff\n      and\n      dup2\n      jump\t// out\n        /* \"auction.sol\":1138:1295  function min(uint a, uint b) private pure returns(uint){\r... */\n    tag_83:\n        /* \"auction.sol\":1188:1192  uint */\n      0x00\n        /* \"auction.sol\":1212:1213  b */\n      dup2\n        /* \"auction.sol\":1207:1208  a */\n      dup4\n        /* \"auction.sol\":1207:1213  a <= b */\n      gt\n        /* \"auction.sol\":1204:1288  if(a <= b){\r... */\n      tag_92\n      jumpi\n        /* \"auction.sol\":1236:1237  a */\n      dup3\n        /* \"auction.sol\":1229:1237  return a */\n      swap1\n      pop\n      jump(tag_91)\n        /* \"auction.sol\":1204:1288  if(a <= b){\r... */\n    tag_92:\n        /* \"auction.sol\":1275:1276  b */\n      dup2\n        /* \"auction.sol\":1268:1276  return b */\n      swap1\n      pop\n        /* \"auction.sol\":1138:1295  function min(uint a, uint b) private pure returns(uint){\r... */\n    tag_91:\n      swap3\n      swap2\n      pop\n      pop\n      jump\t// out\n        /* \"#utility.yul\":7:146   */\n    tag_95:\n        /* \"#utility.yul\":53:58   */\n      0x00\n        /* \"#utility.yul\":91:97   */\n      dup2\n        /* \"#utility.yul\":78:98   */\n      calldataload\n        /* \"#utility.yul\":69:98   */\n      swap1\n      pop\n        /* \"#utility.yul\":107:140   */\n      tag_97\n        /* \"#utility.yul\":134:139   */\n      dup2\n        /* \"#utility.yul\":107:140   */\n      tag_98\n      jump\t// in\n    tag_97:\n        /* \"#utility.yul\":7:146   */\n      swap3\n      swap2\n      pop\n      pop\n      jump\t// out\n        /* \"#utility.yul\":152:481   */\n    tag_26:\n        /* \"#utility.yul\":211:217   */\n      0x00\n        /* \"#utility.yul\":260:262   */\n      0x20\n        /* \"#utility.yul\":248:257   */\n      dup3\n        /* \"#utility.yul\":239:246   */\n      dup5\n        /* \"#utility.yul\":235:258   */\n      sub\n        /* \"#utility.yul\":231:263   */\n      slt\n        /* \"#utility.yul\":228:347   */\n      iszero\n      tag_100\n      jumpi\n        /* \"#utility.yul\":266:345   */\n      tag_101\n      tag_102\n      jump\t// in\n    tag_101:\n        /* \"#utility.yul\":228:347   */\n    tag_100:\n        /* \"#utility.yul\":386:387   */\n      0x00\n        /* \"#utility.yul\":411:464   */\n      tag_103\n        /* \"#utility.yul\":456:463   */\n      dup5\n        /* \"#utility.yul\":447:453   */\n      dup3\n        /* \"#utility.yul\":436:445   */\n      dup6\n        /* \"#utility.yul\":432:454   */\n      add\n        /* \"#utility.yul\":411:464   */\n      tag_95\n      jump\t// in\n    tag_103:\n        /* \"#utility.yul\":401:464   */\n      swap2\n      pop\n        /* \"#utility.yul\":357:474   */\n      pop\n        /* \"#utility.yul\":152:481   */\n      swap3\n      swap2\n      pop\n      pop\n      jump\t// out\n        /* \"#utility.yul\":487:629   */\n    tag_104:\n        /* \"#utility.yul\":590:622   */\n      tag_106\n        /* \"#utility.yul\":616:621   */\n      dup2\n        /* \"#utility.yul\":590:622   */\n      tag_107\n      jump\t// in\n    tag_106:\n        /* \"#utility.yul\":585:588   */\n      dup3\n        /* \"#utility.yul\":578:623   */\n      mstore\n        /* \"#utility.yul\":487:629   */\n      pop\n      pop\n      jump\t// out\n        /* \"#utility.yul\":635:794   */\n    tag_108:\n        /* \"#utility.yul\":736:787   */\n      tag_110\n        /* \"#utility.yul\":781:786   */\n      dup2\n        /* \"#utility.yul\":736:787   */\n      tag_111\n      jump\t// in\n    tag_110:\n        /* \"#utility.yul\":731:734   */\n      dup3\n        /* \"#utility.yul\":724:788   */\n      mstore\n        /* \"#utility.yul\":635:794   */\n      pop\n      pop\n      jump\t// out\n        /* \"#utility.yul\":800:1166   */\n    tag_112:\n        /* \"#utility.yul\":942:945   */\n      0x00\n        /* \"#utility.yul\":963:1030   */\n      tag_114\n        /* \"#utility.yul\":1027:1029   */\n      0x15\n        /* \"#utility.yul\":1022:1025   */\n      dup4\n        /* \"#utility.yul\":963:1030   */\n      tag_115\n      jump\t// in\n    tag_114:\n        /* \"#utility.yul\":956:1030   */\n      swap2\n      pop\n        /* \"#utility.yul\":1039:1132   */\n      tag_116\n        /* \"#utility.yul\":1128:1131   */\n      dup3\n        /* \"#utility.yul\":1039:1132   */\n      tag_117\n      jump\t// in\n    tag_116:\n        /* \"#utility.yul\":1157:1159   */\n      0x20\n        /* \"#utility.yul\":1152:1155   */\n      dup3\n        /* \"#utility.yul\":1148:1160   */\n      add\n        /* \"#utility.yul\":1141:1160   */\n      swap1\n      pop\n        /* \"#utility.yul\":800:1166   */\n      swap2\n      swap1\n      pop\n      jump\t// out\n        /* \"#utility.yul\":1172:1538   */\n    tag_118:\n        /* \"#utility.yul\":1314:1317   */\n      0x00\n        /* \"#utility.yul\":1335:1402   */\n      tag_120\n        /* \"#utility.yul\":1399:1401   */\n      0x18\n        /* \"#utility.yul\":1394:1397   */\n      dup4\n        /* \"#utility.yul\":1335:1402   */\n      tag_115\n      jump\t// in\n    tag_120:\n        /* \"#utility.yul\":1328:1402   */\n      swap2\n      pop\n        /* \"#utility.yul\":1411:1504   */\n      tag_121\n        /* \"#utility.yul\":1500:1503   */\n      dup3\n        /* \"#utility.yul\":1411:1504   */\n      tag_122\n      jump\t// in\n    tag_121:\n        /* \"#utility.yul\":1529:1531   */\n      0x20\n        /* \"#utility.yul\":1524:1527   */\n      dup3\n        /* \"#utility.yul\":1520:1532   */\n      add\n        /* \"#utility.yul\":1513:1532   */\n      swap1\n      pop\n        /* \"#utility.yul\":1172:1538   */\n      swap2\n      swap1\n      pop\n      jump\t// out\n        /* \"#utility.yul\":1544:1910   */\n    tag_123:\n        /* \"#utility.yul\":1686:1689   */\n      0x00\n        /* \"#utility.yul\":1707:1774   */\n      tag_125\n        /* \"#utility.yul\":1771:1773   */\n      0x10\n        /* \"#utility.yul\":1766:1769   */\n      dup4\n        /* \"#utility.yul\":1707:1774   */\n      tag_115\n      jump\t// in\n    tag_125:\n        /* \"#utility.yul\":1700:1774   */\n      swap2\n      pop\n        /* \"#utility.yul\":1783:1876   */\n      tag_126\n        /* \"#utility.yul\":1872:1875   */\n      dup3\n        /* \"#utility.yul\":1783:1876   */\n      tag_127\n      jump\t// in\n    tag_126:\n        /* \"#utility.yul\":1901:1903   */\n      0x20\n        /* \"#utility.yul\":1896:1899   */\n      dup3\n        /* \"#utility.yul\":1892:1904   */\n      add\n        /* \"#utility.yul\":1885:1904   */\n      swap1\n      pop\n        /* \"#utility.yul\":1544:1910   */\n      swap2\n      swap1\n      pop\n      jump\t// out\n        /* \"#utility.yul\":1916:2282   */\n    tag_128:\n        /* \"#utility.yul\":2058:2061   */\n      0x00\n        /* \"#utility.yul\":2079:2146   */\n      tag_130\n        /* \"#utility.yul\":2143:2145   */\n      0x14\n        /* \"#utility.yul\":2138:2141   */\n      dup4\n        /* \"#utility.yul\":2079:2146   */\n      tag_115\n      jump\t// in\n    tag_130:\n        /* \"#utility.yul\":2072:2146   */\n      swap2\n      pop\n        /* \"#utility.yul\":2155:2248   */\n      tag_131\n        /* \"#utility.yul\":2244:2247   */\n      dup3\n        /* \"#utility.yul\":2155:2248   */\n      tag_132\n      jump\t// in\n    tag_131:\n        /* \"#utility.yul\":2273:2275   */\n      0x20\n        /* \"#utility.yul\":2268:2271   */\n      dup3\n        /* \"#utility.yul\":2264:2276   */\n      add\n        /* \"#utility.yul\":2257:2276   */\n      swap1\n      pop\n        /* \"#utility.yul\":1916:2282   */\n      swap2\n      swap1\n      pop\n      jump\t// out\n        /* \"#utility.yul\":2288:2654   */\n    tag_133:\n        /* \"#utility.yul\":2430:2433   */\n      0x00\n        /* \"#utility.yul\":2451:2518   */\n      tag_135\n        /* \"#utility.yul\":2515:2517   */\n      0x10\n        /* \"#utility.yul\":2510:2513   */\n      dup4\n        /* \"#utility.yul\":2451:2518   */\n      tag_115\n      jump\t// in\n    tag_135:\n        /* \"#utility.yul\":2444:2518   */\n      swap2\n      pop\n        /* \"#utility.yul\":2527:2620   */\n      tag_136\n        /* \"#utility.yul\":2616:2619   */\n      dup3\n        /* \"#utility.yul\":2527:2620   */\n      tag_137\n      jump\t// in\n    tag_136:\n        /* \"#utility.yul\":2645:2647   */\n      0x20\n        /* \"#utility.yul\":2640:2643   */\n      dup3\n        /* \"#utility.yul\":2636:2648   */\n      add\n        /* \"#utility.yul\":2629:2648   */\n      swap1\n      pop\n        /* \"#utility.yul\":2288:2654   */\n      swap2\n      swap1\n      pop\n      jump\t// out\n        /* \"#utility.yul\":2660:2778   */\n    tag_138:\n        /* \"#utility.yul\":2747:2771   */\n      tag_140\n        /* \"#utility.yul\":2765:2770   */\n      dup2\n        /* \"#utility.yul\":2747:2771   */\n      tag_141\n      jump\t// in\n    tag_140:\n        /* \"#utility.yul\":2742:2745   */\n      dup3\n        /* \"#utility.yul\":2735:2772   */\n      mstore\n        /* \"#utility.yul\":2660:2778   */\n      pop\n      pop\n      jump\t// out\n        /* \"#utility.yul\":2784:3038   */\n    tag_38:\n        /* \"#utility.yul\":2893:2897   */\n      0x00\n        /* \"#utility.yul\":2931:2933   */\n      0x20\n        /* \"#utility.yul\":2920:2929   */\n      dup3\n        /* \"#utility.yul\":2916:2934   */\n      add\n        /* \"#utility.yul\":2908:2934   */\n      swap1\n      pop\n        /* \"#utility.yul\":2944:3031   */\n      tag_143\n        /* \"#utility.yul\":3028:3029   */\n      0x00\n        /* \"#utility.yul\":3017:3026   */\n      dup4\n        /* \"#utility.yul\":3013:3030   */\n      add\n        /* \"#utility.yul\":3004:3010   */\n      dup5\n        /* \"#utility.yul\":2944:3031   */\n      tag_104\n      jump\t// in\n    tag_143:\n        /* \"#utility.yul\":2784:3038   */\n      swap3\n      swap2\n      pop\n      pop\n      jump\t// out\n        /* \"#utility.yul\":3044:3294   */\n    tag_33:\n        /* \"#utility.yul\":3151:3155   */\n      0x00\n        /* \"#utility.yul\":3189:3191   */\n      0x20\n        /* \"#utility.yul\":3178:3187   */\n      dup3\n        /* \"#utility.yul\":3174:3192   */\n      add\n        /* \"#utility.yul\":3166:3192   */\n      swap1\n      pop\n        /* \"#utility.yul\":3202:3287   */\n      tag_145\n        /* \"#utility.yul\":3284:3285   */\n      0x00\n        /* \"#utility.yul\":3273:3282   */\n      dup4\n        /* \"#utility.yul\":3269:3286   */\n      add\n        /* \"#utility.yul\":3260:3266   */\n      dup5\n        /* \"#utility.yul\":3202:3287   */\n      tag_108\n      jump\t// in\n    tag_145:\n        /* \"#utility.yul\":3044:3294   */\n      swap3\n      swap2\n      pop\n      pop\n      jump\t// out\n        /* \"#utility.yul\":3300:3719   */\n    tag_87:\n        /* \"#utility.yul\":3466:3470   */\n      0x00\n        /* \"#utility.yul\":3504:3506   */\n      0x20\n        /* \"#utility.yul\":3493:3502   */\n      dup3\n        /* \"#utility.yul\":3489:3507   */\n      add\n        /* \"#utility.yul\":3481:3507   */\n      swap1\n      pop\n        /* \"#utility.yul\":3553:3562   */\n      dup2\n        /* \"#utility.yul\":3547:3551   */\n      dup2\n        /* \"#utility.yul\":3543:3563   */\n      sub\n        /* \"#utility.yul\":3539:3540   */\n      0x00\n        /* \"#utility.yul\":3528:3537   */\n      dup4\n        /* \"#utility.yul\":3524:3541   */\n      add\n        /* \"#utility.yul\":3517:3564   */\n      mstore\n        /* \"#utility.yul\":3581:3712   */\n      tag_147\n        /* \"#utility.yul\":3707:3711   */\n      dup2\n        /* \"#utility.yul\":3581:3712   */\n      tag_112\n      jump\t// in\n    tag_147:\n        /* \"#utility.yul\":3573:3712   */\n      swap1\n      pop\n        /* \"#utility.yul\":3300:3719   */\n      swap2\n      swap1\n      pop\n      jump\t// out\n        /* \"#utility.yul\":3725:4144   */\n    tag_79:\n        /* \"#utility.yul\":3891:3895   */\n      0x00\n        /* \"#utility.yul\":3929:3931   */\n      0x20\n        /* \"#utility.yul\":3918:3927   */\n      dup3\n        /* \"#utility.yul\":3914:3932   */\n      add\n        /* \"#utility.yul\":3906:3932   */\n      swap1\n      pop\n        /* \"#utility.yul\":3978:3987   */\n      dup2\n        /* \"#utility.yul\":3972:3976   */\n      dup2\n        /* \"#utility.yul\":3968:3988   */\n      sub\n        /* \"#utility.yul\":3964:3965   */\n      0x00\n        /* \"#utility.yul\":3953:3962   */\n      dup4\n        /* \"#utility.yul\":3949:3966   */\n      add\n        /* \"#utility.yul\":3942:3989   */\n      mstore\n        /* \"#utility.yul\":4006:4137   */\n      tag_149\n        /* \"#utility.yul\":4132:4136   */\n      dup2\n        /* \"#utility.yul\":4006:4137   */\n      tag_118\n      jump\t// in\n    tag_149:\n        /* \"#utility.yul\":3998:4137   */\n      swap1\n      pop\n        /* \"#utility.yul\":3725:4144   */\n      swap2\n      swap1\n      pop\n      jump\t// out\n        /* \"#utility.yul\":4150:4569   */\n    tag_58:\n        /* \"#utility.yul\":4316:4320   */\n      0x00\n        /* \"#utility.yul\":4354:4356   */\n      0x20\n        /* \"#utility.yul\":4343:4352   */\n      dup3\n        /* \"#utility.yul\":4339:4357   */\n      add\n        /* \"#utility.yul\":4331:4357   */\n      swap1\n      pop\n        /* \"#utility.yul\":4403:4412   */\n      dup2\n        /* \"#utility.yul\":4397:4401   */\n      dup2\n        /* \"#utility.yul\":4393:4413   */\n      sub\n        /* \"#utility.yul\":4389:4390   */\n      0x00\n        /* \"#utility.yul\":4378:4387   */\n      dup4\n        /* \"#utility.yul\":4374:4391   */\n      add\n        /* \"#utility.yul\":4367:4414   */\n      mstore\n        /* \"#utility.yul\":4431:4562   */\n      tag_151\n        /* \"#utility.yul\":4557:4561   */\n      dup2\n        /* \"#utility.yul\":4431:4562   */\n      tag_123\n      jump\t// in\n    tag_151:\n        /* \"#utility.yul\":4423:4562   */\n      swap1\n      pop\n        /* \"#utility.yul\":4150:4569   */\n      swap2\n      swap1\n      pop\n      jump\t// out\n        /* \"#utility.yul\":4575:4994   */\n    tag_74:\n        /* \"#utility.yul\":4741:4745   */\n      0x00\n        /* \"#utility.yul\":4779:4781   */\n      0x20\n        /* \"#utility.yul\":4768:4777   */\n      dup3\n        /* \"#utility.yul\":4764:4782   */\n      add\n        /* \"#utility.yul\":4756:4782   */\n      swap1\n      pop\n        /* \"#utility.yul\":4828:4837   */\n      dup2\n        /* \"#utility.yul\":4822:4826   */\n      dup2\n        /* \"#utility.yul\":4818:4838   */\n      sub\n        /* \"#utility.yul\":4814:4815   */\n      0x00\n        /* \"#utility.yul\":4803:4812   */\n      dup4\n        /* \"#utility.yul\":4799:4816   */\n      add\n        /* \"#utility.yul\":4792:4839   */\n      mstore\n        /* \"#utility.yul\":4856:4987   */\n      tag_153\n        /* \"#utility.yul\":4982:4986   */\n      dup2\n        /* \"#utility.yul\":4856:4987   */\n      tag_128\n      jump\t// in\n    tag_153:\n        /* \"#utility.yul\":4848:4987   */\n      swap1\n      pop\n        /* \"#utility.yul\":4575:4994   */\n      swap2\n      swap1\n      pop\n      jump\t// out\n        /* \"#utility.yul\":5000:5419   */\n    tag_71:\n        /* \"#utility.yul\":5166:5170   */\n      0x00\n        /* \"#utility.yul\":5204:5206   */\n      0x20\n        /* \"#utility.yul\":5193:5202   */\n      dup3\n        /* \"#utility.yul\":5189:5207   */\n      add\n        /* \"#utility.yul\":5181:5207   */\n      swap1\n      pop\n        /* \"#utility.yul\":5253:5262   */\n      dup2\n        /* \"#utility.yul\":5247:5251   */\n      dup2\n        /* \"#utility.yul\":5243:5263   */\n      sub\n        /* \"#utility.yul\":5239:5240   */\n      0x00\n        /* \"#utility.yul\":5228:5237   */\n      dup4\n        /* \"#utility.yul\":5224:5241   */\n      add\n        /* \"#utility.yul\":5217:5264   */\n      mstore\n        /* \"#utility.yul\":5281:5412   */\n      tag_155\n        /* \"#utility.yul\":5407:5411   */\n      dup2\n        /* \"#utility.yul\":5281:5412   */\n      tag_133\n      jump\t// in\n    tag_155:\n        /* \"#utility.yul\":5273:5412   */\n      swap1\n      pop\n        /* \"#utility.yul\":5000:5419   */\n      swap2\n      swap1\n      pop\n      jump\t// out\n        /* \"#utility.yul\":5425:5647   */\n    tag_22:\n        /* \"#utility.yul\":5518:5522   */\n      0x00\n        /* \"#utility.yul\":5556:5558   */\n      0x20\n        /* \"#utility.yul\":5545:5554   */\n      dup3\n        /* \"#utility.yul\":5541:5559   */\n      add\n        /* \"#utility.yul\":5533:5559   */\n      swap1\n      pop\n        /* \"#utility.yul\":5569:5640   */\n      tag_157\n        /* \"#utility.yul\":5637:5638   */\n      0x00\n        /* \"#utility.yul\":5626:5635   */\n      dup4\n        /* \"#utility.yul\":5622:5639   */\n      add\n        /* \"#utility.yul\":5613:5619   */\n      dup5\n        /* \"#utility.yul\":5569:5640   */\n      tag_138\n      jump\t// in\n    tag_157:\n        /* \"#utility.yul\":5425:5647   */\n      swap3\n      swap2\n      pop\n      pop\n      jump\t// out\n        /* \"#utility.yul\":5734:5903   */\n    tag_115:\n        /* \"#utility.yul\":5818:5829   */\n      0x00\n        /* \"#utility.yul\":5852:5858   */\n      dup3\n        /* \"#utility.yul\":5847:5850   */\n      dup3\n        /* \"#utility.yul\":5840:5859   */\n      mstore\n        /* \"#utility.yul\":5892:5896   */\n      0x20\n        /* \"#utility.yul\":5887:5890   */\n      dup3\n        /* \"#utility.yul\":5883:5897   */\n      add\n        /* \"#utility.yul\":5868:5897   */\n      swap1\n      pop\n        /* \"#utility.yul\":5734:5903   */\n      swap3\n      swap2\n      pop\n      pop\n      jump\t// out\n        /* \"#utility.yul\":5909:6214   */\n    tag_76:\n        /* \"#utility.yul\":5949:5952   */\n      0x00\n        /* \"#utility.yul\":5968:5988   */\n      tag_162\n        /* \"#utility.yul\":5986:5987   */\n      dup3\n        /* \"#utility.yul\":5968:5988   */\n      tag_141\n      jump\t// in\n    tag_162:\n        /* \"#utility.yul\":5963:5988   */\n      swap2\n      pop\n        /* \"#utility.yul\":6002:6022   */\n      tag_163\n        /* \"#utility.yul\":6020:6021   */\n      dup4\n        /* \"#utility.yul\":6002:6022   */\n      tag_141\n      jump\t// in\n    tag_163:\n        /* \"#utility.yul\":5997:6022   */\n      swap3\n      pop\n        /* \"#utility.yul\":6156:6157   */\n      dup3\n        /* \"#utility.yul\":6088:6154   */\n      0xffffffffffffffffffffffffffffffffffffffffffffffffffffffffffffffff\n        /* \"#utility.yul\":6084:6158   */\n      sub\n        /* \"#utility.yul\":6081:6082   */\n      dup3\n        /* \"#utility.yul\":6078:6159   */\n      gt\n        /* \"#utility.yul\":6075:6182   */\n      iszero\n      tag_164\n      jumpi\n        /* \"#utility.yul\":6162:6180   */\n      tag_165\n      tag_166\n      jump\t// in\n    tag_165:\n        /* \"#utility.yul\":6075:6182   */\n    tag_164:\n        /* \"#utility.yul\":6206:6207   */\n      dup3\n        /* \"#utility.yul\":6203:6204   */\n      dup3\n        /* \"#utility.yul\":6199:6208   */\n      add\n        /* \"#utility.yul\":6192:6208   */\n      swap1\n      pop\n        /* \"#utility.yul\":5909:6214   */\n      swap3\n      swap2\n      pop\n      pop\n      jump\t// out\n        /* \"#utility.yul\":6220:6316   */\n    tag_167:\n        /* \"#utility.yul\":6257:6264   */\n      0x00\n        /* \"#utility.yul\":6286:6310   */\n      tag_169\n        /* \"#utility.yul\":6304:6309   */\n      dup3\n        /* \"#utility.yul\":6286:6310   */\n      tag_170\n      jump\t// in\n    tag_169:\n        /* \"#utility.yul\":6275:6310   */\n      swap1\n      pop\n        /* \"#utility.yul\":6220:6316   */\n      swap2\n      swap1\n      pop\n      jump\t// out\n        /* \"#utility.yul\":6322:6426   */\n    tag_107:\n        /* \"#utility.yul\":6367:6374   */\n      0x00\n        /* \"#utility.yul\":6396:6420   */\n      tag_172\n        /* \"#utility.yul\":6414:6419   */\n      dup3\n        /* \"#utility.yul\":6396:6420   */\n      tag_170\n      jump\t// in\n    tag_172:\n        /* \"#utility.yul\":6385:6420   */\n      swap1\n      pop\n        /* \"#utility.yul\":6322:6426   */\n      swap2\n      swap1\n      pop\n      jump\t// out\n        /* \"#utility.yul\":6432:6575   */\n    tag_173:\n        /* \"#utility.yul\":6485:6492   */\n      0x00\n        /* \"#utility.yul\":6514:6519   */\n      dup2\n        /* \"#utility.yul\":6503:6519   */\n      swap1\n      pop\n        /* \"#utility.yul\":6520:6569   */\n      tag_175\n        /* \"#utility.yul\":6563:6568   */\n      dup3\n        /* \"#utility.yul\":6520:6569   */\n      tag_176\n      jump\t// in\n    tag_175:\n        /* \"#utility.yul\":6432:6575   */\n      swap2\n      swap1\n      pop\n      jump\t// out\n        /* \"#utility.yul\":6581:6707   */\n    tag_170:\n        /* \"#utility.yul\":6618:6625   */\n      0x00\n        /* \"#utility.yul\":6658:6700   */\n      0xffffffffffffffffffffffffffffffffffffffff\n        /* \"#utility.yul\":6651:6656   */\n      dup3\n        /* \"#utility.yul\":6647:6701   */\n      and\n        /* \"#utility.yul\":6636:6701   */\n      swap1\n      pop\n        /* \"#utility.yul\":6581:6707   */\n      swap2\n      swap1\n      pop\n      jump\t// out\n        /* \"#utility.yul\":6713:6790   */\n    tag_141:\n        /* \"#utility.yul\":6750:6757   */\n      0x00\n        /* \"#utility.yul\":6779:6784   */\n      dup2\n        /* \"#utility.yul\":6768:6784   */\n      swap1\n      pop\n        /* \"#utility.yul\":6713:6790   */\n      swap2\n      swap1\n      pop\n      jump\t// out\n        /* \"#utility.yul\":6796:6939   */\n    tag_111:\n        /* \"#utility.yul\":6860:6869   */\n      0x00\n        /* \"#utility.yul\":6893:6933   */\n      tag_180\n        /* \"#utility.yul\":6927:6932   */\n      dup3\n        /* \"#utility.yul\":6893:6933   */\n      tag_173\n      jump\t// in\n    tag_180:\n        /* \"#utility.yul\":6880:6933   */\n      swap1\n      pop\n        /* \"#utility.yul\":6796:6939   */\n      swap2\n      swap1\n      pop\n      jump\t// out\n        /* \"#utility.yul\":6945:7125   */\n    tag_166:\n        /* \"#utility.yul\":6993:7070   */\n      0x4e487b7100000000000000000000000000000000000000000000000000000000\n        /* \"#utility.yul\":6990:6991   */\n      0x00\n        /* \"#utility.yul\":6983:7071   */\n      mstore\n        /* \"#utility.yul\":7090:7094   */\n      0x11\n        /* \"#utility.yul\":7087:7088   */\n      0x04\n        /* \"#utility.yul\":7080:7095   */\n      mstore\n        /* \"#utility.yul\":7114:7118   */\n      0x24\n        /* \"#utility.yul\":7111:7112   */\n      0x00\n        /* \"#utility.yul\":7104:7119   */\n      revert\n        /* \"#utility.yul\":7131:7311   */\n    tag_66:\n        /* \"#utility.yul\":7179:7256   */\n      0x4e487b7100000000000000000000000000000000000000000000000000000000\n        /* \"#utility.yul\":7176:7177   */\n      0x00\n        /* \"#utility.yul\":7169:7257   */\n      mstore\n        /* \"#utility.yul\":7276:7280   */\n      0x21\n        /* \"#utility.yul\":7273:7274   */\n      0x04\n        /* \"#utility.yul\":7266:7281   */\n      mstore\n        /* \"#utility.yul\":7300:7304   */\n      0x24\n        /* \"#utility.yul\":7297:7298   */\n      0x00\n        /* \"#utility.yul\":7290:7305   */\n      revert\n        /* \"#utility.yul\":7440:7557   */\n    tag_102:\n        /* \"#utility.yul\":7549:7550   */\n      0x00\n        /* \"#utility.yul\":7546:7547   */\n      dup1\n        /* \"#utility.yul\":7539:7551   */\n      revert\n        /* \"#utility.yul\":7563:7734   */\n    tag_117:\n        /* \"#utility.yul\":7703:7726   */\n      0x596f7520617265206e6f7420746865206f776e65720000000000000000000000\n        /* \"#utility.yul\":7699:7700   */\n      0x00\n        /* \"#utility.yul\":7691:7697   */\n      dup3\n        /* \"#utility.yul\":7687:7701   */\n      add\n        /* \"#utility.yul\":7680:7727   */\n      mstore\n        /* \"#utility.yul\":7563:7734   */\n      pop\n      jump\t// out\n        /* \"#utility.yul\":7740:7914   */\n    tag_122:\n        /* \"#utility.yul\":7880:7906   */\n      0x4c657373207468616e206869676865737470617961626c650000000000000000\n        /* \"#utility.yul\":7876:7877   */\n      0x00\n        /* \"#utility.yul\":7868:7874   */\n      dup3\n        /* \"#utility.yul\":7864:7878   */\n      add\n        /* \"#utility.yul\":7857:7907   */\n      mstore\n        /* \"#utility.yul\":7740:7914   */\n      pop\n      jump\t// out\n        /* \"#utility.yul\":7920:8086   */\n    tag_127:\n        /* \"#utility.yul\":8060:8078   */\n      0x4f776e65722063616e6e6f742062696400000000000000000000000000000000\n        /* \"#utility.yul\":8056:8057   */\n      0x00\n        /* \"#utility.yul\":8048:8054   */\n      dup3\n        /* \"#utility.yul\":8044:8058   */\n      add\n        /* \"#utility.yul\":8037:8079   */\n      mstore\n        /* \"#utility.yul\":7920:8086   */\n      pop\n      jump\t// out\n        /* \"#utility.yul\":8092:8262   */\n    tag_132:\n        /* \"#utility.yul\":8232:8254   */\n      0x4574686572206973206c657373207468616e2031000000000000000000000000\n        /* \"#utility.yul\":8228:8229   */\n      0x00\n        /* \"#utility.yul\":8220:8226   */\n      dup3\n        /* \"#utility.yul\":8216:8230   */\n      add\n        /* \"#utility.yul\":8209:8255   */\n      mstore\n        /* \"#utility.yul\":8092:8262   */\n      pop\n      jump\t// out\n        /* \"#utility.yul\":8268:8434   */\n    tag_137:\n        /* \"#utility.yul\":8408:8426   */\n      0x41756374696f6e20697320656e64656400000000000000000000000000000000\n        /* \"#utility.yul\":8404:8405   */\n      0x00\n        /* \"#utility.yul\":8396:8402   */\n      dup3\n        /* \"#utility.yul\":8392:8406   */\n      add\n        /* \"#utility.yul\":8385:8427   */\n      mstore\n        /* \"#utility.yul\":8268:8434   */\n      pop\n      jump\t// out\n        /* \"#utility.yul\":8440:8561   */\n    tag_176:\n        /* \"#utility.yul\":8529:8530   */\n      0x04\n        /* \"#utility.yul\":8522:8527   */\n      dup2\n        /* \"#utility.yul\":8519:8531   */\n      lt\n        /* \"#utility.yul\":8509:8555   */\n      tag_192\n      jumpi\n        /* \"#utility.yul\":8535:8553   */\n      tag_193\n      tag_66\n      jump\t// in\n    tag_193:\n        /* \"#utility.yul\":8509:8555   */\n    tag_192:\n        /* \"#utility.yul\":8440:8561   */\n      pop\n      jump\t// out\n        /* \"#utility.yul\":8567:8689   */\n    tag_98:\n        /* \"#utility.yul\":8640:8664   */\n      tag_195\n        /* \"#utility.yul\":8658:8663   */\n      dup2\n        /* \"#utility.yul\":8640:8664   */\n      tag_167\n      jump\t// in\n    tag_195:\n        /* \"#utility.yul\":8633:8638   */\n      dup2\n        /* \"#utility.yul\":8630:8665   */\n      eq\n        /* \"#utility.yul\":8620:8683   */\n      tag_196\n      jumpi\n        /* \"#utility.yul\":8679:8680   */\n      0x00\n        /* \"#utility.yul\":8676:8677   */\n      dup1\n        /* \"#utility.yul\":8669:8681   */\n      revert\n        /* \"#utility.yul\":8620:8683   */\n    tag_196:\n        /* \"#utility.yul\":8567:8689   */\n      pop\n      jump\t// out\n\n    auxdata: 0xa26469706673582212206add887fcb31bc0103771c806e55b2229b72c6784495c6e0d59f1cbbedb1dcfc64736f6c63430008070033\n}\n",
				"bytecode": {
					"linkReferences": {},
					"object": "608060405234801561001057600080fd5b50336000806101000a81548173ffffffffffffffffffffffffffffffffffffffff021916908373ffffffffffffffffffffffffffffffffffffffff1602179055506001600360006101000a81548160ff021916908360038111156100775761007661013b565b5b02179055504360018190555060f060015461009291906100ac565b600281905550670de0b6b3a764000060058190555061016a565b60006100b782610102565b91506100c283610102565b9250827fffffffffffffffffffffffffffffffffffffffffffffffffffffffffffffffff038211156100f7576100f661010c565b5b828201905092915050565b6000819050919050565b7f4e487b7100000000000000000000000000000000000000000000000000000000600052601160045260246000fd5b7f4e487b7100000000000000000000000000000000000000000000000000000000600052602160045260246000fd5b610b2d806101796000396000f3fe6080604052600436106100915760003560e01c806391f901571161005957806391f901571461014a5780639d957d4514610175578063a118be02146101a0578063b3cc167a146101cb578063f3fb05df146101f657610091565b80631998aeef146100965780632352f320146100a05780634f5150ca146100b757806362ea82db146100e25780637fb450991461011f575b600080fd5b61009e610221565b005b3480156100ac57600080fd5b506100b5610551565b005b3480156100c357600080fd5b506100cc61060b565b6040516100d991906108a7565b60405180910390f35b3480156100ee57600080fd5b50610109600480360381019061010491906106c8565b610611565b60405161011691906108a7565b60405180910390f35b34801561012b57600080fd5b50610134610629565b60405161014191906107ec565b60405180910390f35b34801561015657600080fd5b5061015f61063c565b60405161016c91906107d1565b60405180910390f35b34801561018157600080fd5b5061018a610662565b60405161019791906108a7565b60405180910390f35b3480156101ac57600080fd5b506101b5610668565b6040516101c291906108a7565b60405180910390f35b3480156101d757600080fd5b506101e061066e565b6040516101ed91906108a7565b60405180910390f35b34801561020257600080fd5b5061020b610674565b60405161021891906107d1565b60405180910390f35b60008054906101000a900473ffffffffffffffffffffffffffffffffffffffff1673ffffffffffffffffffffffffffffffffffffffff163373ffffffffffffffffffffffffffffffffffffffff1614156102b0576040517f08c379a00000000000000000000000000000000000000000000000000000000081526004016102a790610847565b60405180910390fd5b6001544310156102bf57600080fd5b60025443106102cd57600080fd5b600160038111156102e1576102e06109cb565b5b600360009054906101000a900460ff166003811115610303576103026109cb565b5b14610343576040517f08c379a000000000000000000000000000000000000000000000000000000000815260040161033a90610887565b60405180910390fd5b670de0b6b3a7640000341161038d576040517f08c379a000000000000000000000000000000000000000000000000000000000815260040161038490610867565b60405180910390fd5b6000600554600760003373ffffffffffffffffffffffffffffffffffffffff1673ffffffffffffffffffffffffffffffffffffffff168152602001908152602001600020546103dc91906108d3565b90506004548111610422576040517f08c379a000000000000000000000000000000000000000000000000000000000815260040161041990610827565b60405180910390fd5b80600760003373ffffffffffffffffffffffffffffffffffffffff1673ffffffffffffffffffffffffffffffffffffffff1681526020019081526020016000208190555060076000600660009054906101000a900473ffffffffffffffffffffffffffffffffffffffff1673ffffffffffffffffffffffffffffffffffffffff1673ffffffffffffffffffffffffffffffffffffffff1681526020019081526020016000205481101561054e57610547600554826104e091906108d3565b60076000600660009054906101000a900473ffffffffffffffffffffffffffffffffffffffff1673ffffffffffffffffffffffffffffffffffffffff1673ffffffffffffffffffffffffffffffffffffffff16815260200190815260200160002054610698565b6004819055505b50565b60008054906101000a900473ffffffffffffffffffffffffffffffffffffffff1673ffffffffffffffffffffffffffffffffffffffff163373ffffffffffffffffffffffffffffffffffffffff16146105df576040517f08c379a00000000000000000000000000000000000000000000000000000000081526004016105d690610807565b60405180910390fd5b60038060006101000a81548160ff02191690836003811115610604576106036109cb565b5b0217905550565b60045481565b60076020528060005260406000206000915090505481565b600360009054906101000a900460ff1681565b600660009054906101000a900473ffffffffffffffffffffffffffffffffffffffff1681565b60025481565b60015481565b60055481565b60008054906101000a900473ffffffffffffffffffffffffffffffffffffffff1681565b60008183116106a9578290506106ad565b8190505b92915050565b6000813590506106c281610ae0565b92915050565b6000602082840312156106de576106dd6109fa565b5b60006106ec848285016106b3565b91505092915050565b6106fe8161093b565b82525050565b61070d8161098a565b82525050565b60006107206015836108c2565b915061072b826109ff565b602082019050919050565b60006107436018836108c2565b915061074e82610a28565b602082019050919050565b60006107666010836108c2565b915061077182610a51565b602082019050919050565b60006107896014836108c2565b915061079482610a7a565b602082019050919050565b60006107ac6010836108c2565b91506107b782610aa3565b602082019050919050565b6107cb81610980565b82525050565b60006020820190506107e660008301846106f5565b92915050565b60006020820190506108016000830184610704565b92915050565b6000602082019050818103600083015261082081610713565b9050919050565b6000602082019050818103600083015261084081610736565b9050919050565b6000602082019050818103600083015261086081610759565b9050919050565b600060208201905081810360008301526108808161077c565b9050919050565b600060208201905081810360008301526108a08161079f565b9050919050565b60006020820190506108bc60008301846107c2565b92915050565b600082825260208201905092915050565b60006108de82610980565b91506108e983610980565b9250827fffffffffffffffffffffffffffffffffffffffffffffffffffffffffffffffff0382111561091e5761091d61099c565b5b828201905092915050565b600061093482610960565b9050919050565b600061094682610960565b9050919050565b600081905061095b82610acc565b919050565b600073ffffffffffffffffffffffffffffffffffffffff82169050919050565b6000819050919050565b60006109958261094d565b9050919050565b7f4e487b7100000000000000000000000000000000000000000000000000000000600052601160045260246000fd5b7f4e487b7100000000000000000000000000000000000000000000000000000000600052602160045260246000fd5b600080fd5b7f596f7520617265206e6f7420746865206f776e65720000000000000000000000600082015250565b7f4c657373207468616e206869676865737470617961626c650000000000000000600082015250565b7f4f776e65722063616e6e6f742062696400000000000000000000000000000000600082015250565b7f4574686572206973206c657373207468616e2031000000000000000000000000600082015250565b7f41756374696f6e20697320656e64656400000000000000000000000000000000600082015250565b60048110610add57610adc6109cb565b5b50565b610ae981610929565b8114610af457600080fd5b5056fea26469706673582212206add887fcb31bc0103771c806e55b2229b72c6784495c6e0d59f1cbbedb1dcfc64736f6c63430008070033",
					"opcodes": "PUSH1 0x80 PUSH1 0x40 MSTORE CALLVALUE DUP1 ISZERO PUSH2 0x10 JUMPI PUSH1 0x0 DUP1 REVERT JUMPDEST POP CALLER PUSH1 0x0 DUP1 PUSH2 0x100 EXP DUP2 SLOAD DUP2 PUSH20 0xFFFFFFFFFFFFFFFFFFFFFFFFFFFFFFFFFFFFFFFF MUL NOT AND SWAP1 DUP4 PUSH20 0xFFFFFFFFFFFFFFFFFFFFFFFFFFFFFFFFFFFFFFFF AND MUL OR SWAP1 SSTORE POP PUSH1 0x1 PUSH1 0x3 PUSH1 0x0 PUSH2 0x100 EXP DUP2 SLOAD DUP2 PUSH1 0xFF MUL NOT AND SWAP1 DUP4 PUSH1 0x3 DUP2 GT ISZERO PUSH2 0x77 JUMPI PUSH2 0x76 PUSH2 0x13B JUMP JUMPDEST JUMPDEST MUL OR SWAP1 SSTORE POP NUMBER PUSH1 0x1 DUP2 SWAP1 SSTORE POP PUSH1 0xF0 PUSH1 0x1 SLOAD PUSH2 0x92 SWAP2 SWAP1 PUSH2 0xAC JUMP JUMPDEST PUSH1 0x2 DUP2 SWAP1 SSTORE POP PUSH8 0xDE0B6B3A7640000 PUSH1 0x5 DUP2 SWAP1 SSTORE POP PUSH2 0x16A JUMP JUMPDEST PUSH1 0x0 PUSH2 0xB7 DUP3 PUSH2 0x102 JUMP JUMPDEST SWAP2 POP PUSH2 0xC2 DUP4 PUSH2 0x102 JUMP JUMPDEST SWAP3 POP DUP3 PUSH32 0xFFFFFFFFFFFFFFFFFFFFFFFFFFFFFFFFFFFFFFFFFFFFFFFFFFFFFFFFFFFFFFFF SUB DUP3 GT ISZERO PUSH2 0xF7 JUMPI PUSH2 0xF6 PUSH2 0x10C JUMP JUMPDEST JUMPDEST DUP3 DUP3 ADD SWAP1 POP SWAP3 SWAP2 POP POP JUMP JUMPDEST PUSH1 0x0 DUP2 SWAP1 POP SWAP2 SWAP1 POP JUMP JUMPDEST PUSH32 0x4E487B7100000000000000000000000000000000000000000000000000000000 PUSH1 0x0 MSTORE PUSH1 0x11 PUSH1 0x4 MSTORE PUSH1 0x24 PUSH1 0x0 REVERT JUMPDEST PUSH32 0x4E487B7100000000000000000000000000000000000000000000000000000000 PUSH1 0x0 MSTORE PUSH1 0x21 PUSH1 0x4 MSTORE PUSH1 0x24 PUSH1 0x0 REVERT JUMPDEST PUSH2 0xB2D DUP1 PUSH2 0x179 PUSH1 0x0 CODECOPY PUSH1 0x0 RETURN INVALID PUSH1 0x80 PUSH1 0x40 MSTORE PUSH1 0x4 CALLDATASIZE LT PUSH2 0x91 JUMPI PUSH1 0x0 CALLDATALOAD PUSH1 0xE0 SHR DUP1 PUSH4 0x91F90157 GT PUSH2 0x59 JUMPI DUP1 PUSH4 0x91F90157 EQ PUSH2 0x14A JUMPI DUP1 PUSH4 0x9D957D45 EQ PUSH2 0x175 JUMPI DUP1 PUSH4 0xA118BE02 EQ PUSH2 0x1A0 JUMPI DUP1 PUSH4 0xB3CC167A EQ PUSH2 0x1CB JUMPI DUP1 PUSH4 0xF3FB05DF EQ PUSH2 0x1F6 JUMPI PUSH2 0x91 JUMP JUMPDEST DUP1 PUSH4 0x1998AEEF EQ PUSH2 0x96 JUMPI DUP1 PUSH4 0x2352F320 EQ PUSH2 0xA0 JUMPI DUP1 PUSH4 0x4F5150CA EQ PUSH2 0xB7 JUMPI DUP1 PUSH4 0x62EA82DB EQ PUSH2 0xE2 JUMPI DUP1 PUSH4 0x7FB45099 EQ PUSH2 0x11F JUMPI JUMPDEST PUSH1 0x0 DUP1 REVERT JUMPDEST PUSH2 0x9E PUSH2 0x221 JUMP JUMPDEST STOP JUMPDEST CALLVALUE DUP1 ISZERO PUSH2 0xAC JUMPI PUSH1 0x0 DUP1 REVERT JUMPDEST POP PUSH2 0xB5 PUSH2 0x551 JUMP JUMPDEST STOP JUMPDEST CALLVALUE DUP1 ISZERO PUSH2 0xC3 JUMPI PUSH1 0x0 DUP1 REVERT JUMPDEST POP PUSH2 0xCC PUSH2 0x60B JUMP JUMPDEST PUSH1 0x40 MLOAD PUSH2 0xD9 SWAP2 SWAP1 PUSH2 0x8A7 JUMP JUMPDEST PUSH1 0x40 MLOAD DUP1 SWAP2 SUB SWAP1 RETURN JUMPDEST CALLVALUE DUP1 ISZERO PUSH2 0xEE JUMPI PUSH1 0x0 DUP1 REVERT JUMPDEST POP PUSH2 0x109 PUSH1 0x4 DUP1 CALLDATASIZE SUB DUP2 ADD SWAP1 PUSH2 0x104 SWAP2 SWAP1 PUSH2 0x6C8 JUMP JUMPDEST PUSH2 0x611 JUMP JUMPDEST PUSH1 0x40 MLOAD PUSH2 0x116 SWAP2 SWAP1 PUSH2 0x8A7 JUMP JUMPDEST PUSH1 0x40 MLOAD DUP1 SWAP2 SUB SWAP1 RETURN JUMPDEST CALLVALUE DUP1 ISZERO PUSH2 0x12B JUMPI PUSH1 0x0 DUP1 REVERT JUMPDEST POP PUSH2 0x134 PUSH2 0x629 JUMP JUMPDEST PUSH1 0x40 MLOAD PUSH2 0x141 SWAP2 SWAP1 PUSH2 0x7EC JUMP JUMPDEST PUSH1 0x40 MLOAD DUP1 SWAP2 SUB SWAP1 RETURN JUMPDEST CALLVALUE DUP1 ISZERO PUSH2 0x156 JUMPI PUSH1 0x0 DUP1 REVERT JUMPDEST POP PUSH2 0x15F PUSH2 0x63C JUMP JUMPDEST PUSH1 0x40 MLOAD PUSH2 0x16C SWAP2 SWAP1 PUSH2 0x7D1 JUMP JUMPDEST PUSH1 0x40 MLOAD DUP1 SWAP2 SUB SWAP1 RETURN JUMPDEST CALLVALUE DUP1 ISZERO PUSH2 0x181 JUMPI PUSH1 0x0 DUP1 REVERT JUMPDEST POP PUSH2 0x18A PUSH2 0x662 JUMP JUMPDEST PUSH1 0x40 MLOAD PUSH2 0x197 SWAP2 SWAP1 PUSH2 0x8A7 JUMP JUMPDEST PUSH1 0x40 MLOAD DUP1 SWAP2 SUB SWAP1 RETURN JUMPDEST CALLVALUE DUP1 ISZERO PUSH2 0x1AC JUMPI PUSH1 0x0 DUP1 REVERT JUMPDEST POP PUSH2 0x1B5 PUSH2 0x668 JUMP JUMPDEST PUSH1 0x40 MLOAD PUSH2 0x1C2 SWAP2 SWAP1 PUSH2 0x8A7 JUMP JUMPDEST PUSH1 0x40 MLOAD DUP1 SWAP2 SUB SWAP1 RETURN JUMPDEST CALLVALUE DUP1 ISZERO PUSH2 0x1D7 JUMPI PUSH1 0x0 DUP1 REVERT JUMPDEST POP PUSH2 0x1E0 PUSH2 0x66E JUMP JUMPDEST PUSH1 0x40 MLOAD PUSH2 0x1ED SWAP2 SWAP1 PUSH2 0x8A7 JUMP JUMPDEST PUSH1 0x40 MLOAD DUP1 SWAP2 SUB SWAP1 RETURN JUMPDEST CALLVALUE DUP1 ISZERO PUSH2 0x202 JUMPI PUSH1 0x0 DUP1 REVERT JUMPDEST POP PUSH2 0x20B PUSH2 0x674 JUMP JUMPDEST PUSH1 0x40 MLOAD PUSH2 0x218 SWAP2 SWAP1 PUSH2 0x7D1 JUMP JUMPDEST PUSH1 0x40 MLOAD DUP1 SWAP2 SUB SWAP1 RETURN JUMPDEST PUSH1 0x0 DUP1 SLOAD SWAP1 PUSH2 0x100 EXP SWAP1 DIV PUSH20 0xFFFFFFFFFFFFFFFFFFFFFFFFFFFFFFFFFFFFFFFF AND PUSH20 0xFFFFFFFFFFFFFFFFFFFFFFFFFFFFFFFFFFFFFFFF AND CALLER PUSH20 0xFFFFFFFFFFFFFFFFFFFFFFFFFFFFFFFFFFFFFFFF AND EQ ISZERO PUSH2 0x2B0 JUMPI PUSH1 0x40 MLOAD PUSH32 0x8C379A000000000000000000000000000000000000000000000000000000000 DUP2 MSTORE PUSH1 0x4 ADD PUSH2 0x2A7 SWAP1 PUSH2 0x847 JUMP JUMPDEST PUSH1 0x40 MLOAD DUP1 SWAP2 SUB SWAP1 REVERT JUMPDEST PUSH1 0x1 SLOAD NUMBER LT ISZERO PUSH2 0x2BF JUMPI PUSH1 0x0 DUP1 REVERT JUMPDEST PUSH1 0x2 SLOAD NUMBER LT PUSH2 0x2CD JUMPI PUSH1 0x0 DUP1 REVERT JUMPDEST PUSH1 0x1 PUSH1 0x3 DUP2 GT ISZERO PUSH2 0x2E1 JUMPI PUSH2 0x2E0 PUSH2 0x9CB JUMP JUMPDEST JUMPDEST PUSH1 0x3 PUSH1 0x0 SWAP1 SLOAD SWAP1 PUSH2 0x100 EXP SWAP1 DIV PUSH1 0xFF AND PUSH1 0x3 DUP2 GT ISZERO PUSH2 0x303 JUMPI PUSH2 0x302 PUSH2 0x9CB JUMP JUMPDEST JUMPDEST EQ PUSH2 0x343 JUMPI PUSH1 0x40 MLOAD PUSH32 0x8C379A000000000000000000000000000000000000000000000000000000000 DUP2 MSTORE PUSH1 0x4 ADD PUSH2 0x33A SWAP1 PUSH2 0x887 JUMP JUMPDEST PUSH1 0x40 MLOAD DUP1 SWAP2 SUB SWAP1 REVERT JUMPDEST PUSH8 0xDE0B6B3A7640000 CALLVALUE GT PUSH2 0x38D JUMPI PUSH1 0x40 MLOAD PUSH32 0x8C379A000000000000000000000000000000000000000000000000000000000 DUP2 MSTORE PUSH1 0x4 ADD PUSH2 0x384 SWAP1 PUSH2 0x867 JUMP JUMPDEST PUSH1 0x40 MLOAD DUP1 SWAP2 SUB SWAP1 REVERT JUMPDEST PUSH1 0x0 PUSH1 0x5 SLOAD PUSH1 0x7 PUSH1 0x0 CALLER PUSH20 0xFFFFFFFFFFFFFFFFFFFFFFFFFFFFFFFFFFFFFFFF AND PUSH20 0xFFFFFFFFFFFFFFFFFFFFFFFFFFFFFFFFFFFFFFFF AND DUP2 MSTORE PUSH1 0x20 ADD SWAP1 DUP2 MSTORE PUSH1 0x20 ADD PUSH1 0x0 KECCAK256 SLOAD PUSH2 0x3DC SWAP2 SWAP1 PUSH2 0x8D3 JUMP JUMPDEST SWAP1 POP PUSH1 0x4 SLOAD DUP2 GT PUSH2 0x422 JUMPI PUSH1 0x40 MLOAD PUSH32 0x8C379A000000000000000000000000000000000000000000000000000000000 DUP2 MSTORE PUSH1 0x4 ADD PUSH2 0x419 SWAP1 PUSH2 0x827 JUMP JUMPDEST PUSH1 0x40 MLOAD DUP1 SWAP2 SUB SWAP1 REVERT JUMPDEST DUP1 PUSH1 0x7 PUSH1 0x0 CALLER PUSH20 0xFFFFFFFFFFFFFFFFFFFFFFFFFFFFFFFFFFFFFFFF AND PUSH20 0xFFFFFFFFFFFFFFFFFFFFFFFFFFFFFFFFFFFFFFFF AND DUP2 MSTORE PUSH1 0x20 ADD SWAP1 DUP2 MSTORE PUSH1 0x20 ADD PUSH1 0x0 KECCAK256 DUP2 SWAP1 SSTORE POP PUSH1 0x7 PUSH1 0x0 PUSH1 0x6 PUSH1 0x0 SWAP1 SLOAD SWAP1 PUSH2 0x100 EXP SWAP1 DIV PUSH20 0xFFFFFFFFFFFFFFFFFFFFFFFFFFFFFFFFFFFFFFFF AND PUSH20 0xFFFFFFFFFFFFFFFFFFFFFFFFFFFFFFFFFFFFFFFF AND PUSH20 0xFFFFFFFFFFFFFFFFFFFFFFFFFFFFFFFFFFFFFFFF AND DUP2 MSTORE PUSH1 0x20 ADD SWAP1 DUP2 MSTORE PUSH1 0x20 ADD PUSH1 0x0 KECCAK256 SLOAD DUP2 LT ISZERO PUSH2 0x54E JUMPI PUSH2 0x547 PUSH1 0x5 SLOAD DUP3 PUSH2 0x4E0 SWAP2 SWAP1 PUSH2 0x8D3 JUMP JUMPDEST PUSH1 0x7 PUSH1 0x0 PUSH1 0x6 PUSH1 0x0 SWAP1 SLOAD SWAP1 PUSH2 0x100 EXP SWAP1 DIV PUSH20 0xFFFFFFFFFFFFFFFFFFFFFFFFFFFFFFFFFFFFFFFF AND PUSH20 0xFFFFFFFFFFFFFFFFFFFFFFFFFFFFFFFFFFFFFFFF AND PUSH20 0xFFFFFFFFFFFFFFFFFFFFFFFFFFFFFFFFFFFFFFFF AND DUP2 MSTORE PUSH1 0x20 ADD SWAP1 DUP2 MSTORE PUSH1 0x20 ADD PUSH1 0x0 KECCAK256 SLOAD PUSH2 0x698 JUMP JUMPDEST PUSH1 0x4 DUP2 SWAP1 SSTORE POP JUMPDEST POP JUMP JUMPDEST PUSH1 0x0 DUP1 SLOAD SWAP1 PUSH2 0x100 EXP SWAP1 DIV PUSH20 0xFFFFFFFFFFFFFFFFFFFFFFFFFFFFFFFFFFFFFFFF AND PUSH20 0xFFFFFFFFFFFFFFFFFFFFFFFFFFFFFFFFFFFFFFFF AND CALLER PUSH20 0xFFFFFFFFFFFFFFFFFFFFFFFFFFFFFFFFFFFFFFFF AND EQ PUSH2 0x5DF JUMPI PUSH1 0x40 MLOAD PUSH32 0x8C379A000000000000000000000000000000000000000000000000000000000 DUP2 MSTORE PUSH1 0x4 ADD PUSH2 0x5D6 SWAP1 PUSH2 0x807 JUMP JUMPDEST PUSH1 0x40 MLOAD DUP1 SWAP2 SUB SWAP1 REVERT JUMPDEST PUSH1 0x3 DUP1 PUSH1 0x0 PUSH2 0x100 EXP DUP2 SLOAD DUP2 PUSH1 0xFF MUL NOT AND SWAP1 DUP4 PUSH1 0x3 DUP2 GT ISZERO PUSH2 0x604 JUMPI PUSH2 0x603 PUSH2 0x9CB JUMP JUMPDEST JUMPDEST MUL OR SWAP1 SSTORE POP JUMP JUMPDEST PUSH1 0x4 SLOAD DUP2 JUMP JUMPDEST PUSH1 0x7 PUSH1 0x20 MSTORE DUP1 PUSH1 0x0 MSTORE PUSH1 0x40 PUSH1 0x0 KECCAK256 PUSH1 0x0 SWAP2 POP SWAP1 POP SLOAD DUP2 JUMP JUMPDEST PUSH1 0x3 PUSH1 0x0 SWAP1 SLOAD SWAP1 PUSH2 0x100 EXP SWAP1 DIV PUSH1 0xFF AND DUP2 JUMP JUMPDEST PUSH1 0x6 PUSH1 0x0 SWAP1 SLOAD SWAP1 PUSH2 0x100 EXP SWAP1 DIV PUSH20 0xFFFFFFFFFFFFFFFFFFFFFFFFFFFFFFFFFFFFFFFF AND DUP2 JUMP JUMPDEST PUSH1 0x2 SLOAD DUP2 JUMP JUMPDEST PUSH1 0x1 SLOAD DUP2 JUMP JUMPDEST PUSH1 0x5 SLOAD DUP2 JUMP JUMPDEST PUSH1 0x0 DUP1 SLOAD SWAP1 PUSH2 0x100 EXP SWAP1 DIV PUSH20 0xFFFFFFFFFFFFFFFFFFFFFFFFFFFFFFFFFFFFFFFF AND DUP2 JUMP JUMPDEST PUSH1 0x0 DUP2 DUP4 GT PUSH2 0x6A9 JUMPI DUP3 SWAP1 POP PUSH2 0x6AD JUMP JUMPDEST DUP2 SWAP1 POP JUMPDEST SWAP3 SWAP2 POP POP JUMP JUMPDEST PUSH1 0x0 DUP2 CALLDATALOAD SWAP1 POP PUSH2 0x6C2 DUP2 PUSH2 0xAE0 JUMP JUMPDEST SWAP3 SWAP2 POP POP JUMP JUMPDEST PUSH1 0x0 PUSH1 0x20 DUP3 DUP5 SUB SLT ISZERO PUSH2 0x6DE JUMPI PUSH2 0x6DD PUSH2 0x9FA JUMP JUMPDEST JUMPDEST PUSH1 0x0 PUSH2 0x6EC DUP5 DUP3 DUP6 ADD PUSH2 0x6B3 JUMP JUMPDEST SWAP2 POP POP SWAP3 SWAP2 POP POP JUMP JUMPDEST PUSH2 0x6FE DUP2 PUSH2 0x93B JUMP JUMPDEST DUP3 MSTORE POP POP JUMP JUMPDEST PUSH2 0x70D DUP2 PUSH2 0x98A JUMP JUMPDEST DUP3 MSTORE POP POP JUMP JUMPDEST PUSH1 0x0 PUSH2 0x720 PUSH1 0x15 DUP4 PUSH2 0x8C2 JUMP JUMPDEST SWAP2 POP PUSH2 0x72B DUP3 PUSH2 0x9FF JUMP JUMPDEST PUSH1 0x20 DUP3 ADD SWAP1 POP SWAP2 SWAP1 POP JUMP JUMPDEST PUSH1 0x0 PUSH2 0x743 PUSH1 0x18 DUP4 PUSH2 0x8C2 JUMP JUMPDEST SWAP2 POP PUSH2 0x74E DUP3 PUSH2 0xA28 JUMP JUMPDEST PUSH1 0x20 DUP3 ADD SWAP1 POP SWAP2 SWAP1 POP JUMP JUMPDEST PUSH1 0x0 PUSH2 0x766 PUSH1 0x10 DUP4 PUSH2 0x8C2 JUMP JUMPDEST SWAP2 POP PUSH2 0x771 DUP3 PUSH2 0xA51 JUMP JUMPDEST PUSH1 0x20 DUP3 ADD SWAP1 POP SWAP2 SWAP1 POP JUMP JUMPDEST PUSH1 0x0 PUSH2 0x789 PUSH1 0x14 DUP4 PUSH2 0x8C2 JUMP JUMPDEST SWAP2 POP PUSH2 0x794 DUP3 PUSH2 0xA7A JUMP JUMPDEST PUSH1 0x20 DUP3 ADD SWAP1 POP SWAP2 SWAP1 POP JUMP JUMPDEST PUSH1 0x0 PUSH2 0x7AC PUSH1 0x10 DUP4 PUSH2 0x8C2 JUMP JUMPDEST SWAP2 POP PUSH2 0x7B7 DUP3 PUSH2 0xAA3 JUMP JUMPDEST PUSH1 0x20 DUP3 ADD SWAP1 POP SWAP2 SWAP1 POP JUMP JUMPDEST PUSH2 0x7CB DUP2 PUSH2 0x980 JUMP JUMPDEST DUP3 MSTORE POP POP JUMP JUMPDEST PUSH1 0x0 PUSH1 0x20 DUP3 ADD SWAP1 POP PUSH2 0x7E6 PUSH1 0x0 DUP4 ADD DUP5 PUSH2 0x6F5 JUMP JUMPDEST SWAP3 SWAP2 POP POP JUMP JUMPDEST PUSH1 0x0 PUSH1 0x20 DUP3 ADD SWAP1 POP PUSH2 0x801 PUSH1 0x0 DUP4 ADD DUP5 PUSH2 0x704 JUMP JUMPDEST SWAP3 SWAP2 POP POP JUMP JUMPDEST PUSH1 0x0 PUSH1 0x20 DUP3 ADD SWAP1 POP DUP2 DUP2 SUB PUSH1 0x0 DUP4 ADD MSTORE PUSH2 0x820 DUP2 PUSH2 0x713 JUMP JUMPDEST SWAP1 POP SWAP2 SWAP1 POP JUMP JUMPDEST PUSH1 0x0 PUSH1 0x20 DUP3 ADD SWAP1 POP DUP2 DUP2 SUB PUSH1 0x0 DUP4 ADD MSTORE PUSH2 0x840 DUP2 PUSH2 0x736 JUMP JUMPDEST SWAP1 POP SWAP2 SWAP1 POP JUMP JUMPDEST PUSH1 0x0 PUSH1 0x20 DUP3 ADD SWAP1 POP DUP2 DUP2 SUB PUSH1 0x0 DUP4 ADD MSTORE PUSH2 0x860 DUP2 PUSH2 0x759 JUMP JUMPDEST SWAP1 POP SWAP2 SWAP1 POP JUMP JUMPDEST PUSH1 0x0 PUSH1 0x20 DUP3 ADD SWAP1 POP DUP2 DUP2 SUB PUSH1 0x0 DUP4 ADD MSTORE PUSH2 0x880 DUP2 PUSH2 0x77C JUMP JUMPDEST SWAP1 POP SWAP2 SWAP1 POP JUMP JUMPDEST PUSH1 0x0 PUSH1 0x20 DUP3 ADD SWAP1 POP DUP2 DUP2 SUB PUSH1 0x0 DUP4 ADD MSTORE PUSH2 0x8A0 DUP2 PUSH2 0x79F JUMP JUMPDEST SWAP1 POP SWAP2 SWAP1 POP JUMP JUMPDEST PUSH1 0x0 PUSH1 0x20 DUP3 ADD SWAP1 POP PUSH2 0x8BC PUSH1 0x0 DUP4 ADD DUP5 PUSH2 0x7C2 JUMP JUMPDEST SWAP3 SWAP2 POP POP JUMP JUMPDEST PUSH1 0x0 DUP3 DUP3 MSTORE PUSH1 0x20 DUP3 ADD SWAP1 POP SWAP3 SWAP2 POP POP JUMP JUMPDEST PUSH1 0x0 PUSH2 0x8DE DUP3 PUSH2 0x980 JUMP JUMPDEST SWAP2 POP PUSH2 0x8E9 DUP4 PUSH2 0x980 JUMP JUMPDEST SWAP3 POP DUP3 PUSH32 0xFFFFFFFFFFFFFFFFFFFFFFFFFFFFFFFFFFFFFFFFFFFFFFFFFFFFFFFFFFFFFFFF SUB DUP3 GT ISZERO PUSH2 0x91E JUMPI PUSH2 0x91D PUSH2 0x99C JUMP JUMPDEST JUMPDEST DUP3 DUP3 ADD SWAP1 POP SWAP3 SWAP2 POP POP JUMP JUMPDEST PUSH1 0x0 PUSH2 0x934 DUP3 PUSH2 0x960 JUMP JUMPDEST SWAP1 POP SWAP2 SWAP1 POP JUMP JUMPDEST PUSH1 0x0 PUSH2 0x946 DUP3 PUSH2 0x960 JUMP JUMPDEST SWAP1 POP SWAP2 SWAP1 POP JUMP JUMPDEST PUSH1 0x0 DUP2 SWAP1 POP PUSH2 0x95B DUP3 PUSH2 0xACC JUMP JUMPDEST SWAP2 SWAP1 POP JUMP JUMPDEST PUSH1 0x0 PUSH20 0xFFFFFFFFFFFFFFFFFFFFFFFFFFFFFFFFFFFFFFFF DUP3 AND SWAP1 POP SWAP2 SWAP1 POP JUMP JUMPDEST PUSH1 0x0 DUP2 SWAP1 POP SWAP2 SWAP1 POP JUMP JUMPDEST PUSH1 0x0 PUSH2 0x995 DUP3 PUSH2 0x94D JUMP JUMPDEST SWAP1 POP SWAP2 SWAP1 POP JUMP JUMPDEST PUSH32 0x4E487B7100000000000000000000000000000000000000000000000000000000 PUSH1 0x0 MSTORE PUSH1 0x11 PUSH1 0x4 MSTORE PUSH1 0x24 PUSH1 0x0 REVERT JUMPDEST PUSH32 0x4E487B7100000000000000000000000000000000000000000000000000000000 PUSH1 0x0 MSTORE PUSH1 0x21 PUSH1 0x4 MSTORE PUSH1 0x24 PUSH1 0x0 REVERT JUMPDEST PUSH1 0x0 DUP1 REVERT JUMPDEST PUSH32 0x596F7520617265206E6F7420746865206F776E65720000000000000000000000 PUSH1 0x0 DUP3 ADD MSTORE POP JUMP JUMPDEST PUSH32 0x4C657373207468616E206869676865737470617961626C650000000000000000 PUSH1 0x0 DUP3 ADD MSTORE POP JUMP JUMPDEST PUSH32 0x4F776E65722063616E6E6F742062696400000000000000000000000000000000 PUSH1 0x0 DUP3 ADD MSTORE POP JUMP JUMPDEST PUSH32 0x4574686572206973206C657373207468616E2031000000000000000000000000 PUSH1 0x0 DUP3 ADD MSTORE POP JUMP JUMPDEST PUSH32 0x41756374696F6E20697320656E64656400000000000000000000000000000000 PUSH1 0x0 DUP3 ADD MSTORE POP JUMP JUMPDEST PUSH1 0x4 DUP2 LT PUSH2 0xADD JUMPI PUSH2 0xADC PUSH2 0x9CB JUMP JUMPDEST JUMPDEST POP JUMP JUMPDEST PUSH2 0xAE9 DUP2 PUSH2 0x929 JUMP JUMPDEST DUP2 EQ PUSH2 0xAF4 JUMPI PUSH1 0x0 DUP1 REVERT JUMPDEST POP JUMP INVALID LOG2 PUSH5 0x6970667358 0x22 SLT KECCAK256 PUSH11 0xDD887FCB31BC0103771C80 PUSH15 0x55B2229B72C6784495C6E0D59F1CBB 0xED 0xB1 0xDC 0xFC PUSH5 0x736F6C6343 STOP ADDMOD SMOD STOP CALLER "
				},
				"gasEstimates": {
					"creation": {
						"codeDepositCost": "572200",
						"executionCost": "infinite",
						"totalCost": "infinite"
					},
					"external": {
						"auctionState()": "2649",
						"auctioner()": "2599",
						"bid()": "infinite",
						"bidIncrement()": "2495",
						"bids(address)": "2881",
						"cancelAuc()": "26621",
						"etblock()": "2451",
						"highestBidder()": "2514",
						"highestPayableBid()": "2474",
						"stblock()": "2473"
					},
					"internal": {
						"min(uint256,uint256)": "64"
					}
				},
				"methodIdentifiers": {
					"auctionState()": "7fb45099",
					"auctioner()": "f3fb05df",
					"bid()": "1998aeef",
					"bidIncrement()": "b3cc167a",
					"bids(address)": "62ea82db",
					"cancelAuc()": "2352f320",
					"etblock()": "9d957d45",
					"highestBidder()": "91f90157",
					"highestPayableBid()": "4f5150ca",
					"stblock()": "a118be02"
				}
			},
			"storageLayout": {
				"storage": [
					{
						"astId": 3,
						"contract": "auction.sol:auction",
						"label": "auctioner",
						"offset": 0,
						"slot": "0",
						"type": "t_address_payable"
					},
					{
						"astId": 5,
						"contract": "auction.sol:auction",
						"label": "stblock",
						"offset": 0,
						"slot": "1",
						"type": "t_uint256"
					},
					{
						"astId": 7,
						"contract": "auction.sol:auction",
						"label": "etblock",
						"offset": 0,
						"slot": "2",
						"type": "t_uint256"
					},
					{
						"astId": 15,
						"contract": "auction.sol:auction",
						"label": "auctionState",
						"offset": 0,
						"slot": "3",
						"type": "t_enum(auction_state)12"
					},
					{
						"astId": 17,
						"contract": "auction.sol:auction",
						"label": "highestPayableBid",
						"offset": 0,
						"slot": "4",
						"type": "t_uint256"
					},
					{
						"astId": 19,
						"contract": "auction.sol:auction",
						"label": "bidIncrement",
						"offset": 0,
						"slot": "5",
						"type": "t_uint256"
					},
					{
						"astId": 21,
						"contract": "auction.sol:auction",
						"label": "highestBidder",
						"offset": 0,
						"slot": "6",
						"type": "t_address_payable"
					},
					{
						"astId": 25,
						"contract": "auction.sol:auction",
						"label": "bids",
						"offset": 0,
						"slot": "7",
						"type": "t_mapping(t_address,t_uint256)"
					}
				],
				"types": {
					"t_address": {
						"encoding": "inplace",
						"label": "address",
						"numberOfBytes": "20"
					},
					"t_address_payable": {
						"encoding": "inplace",
						"label": "address payable",
						"numberOfBytes": "20"
					},
					"t_enum(auction_state)12": {
						"encoding": "inplace",
						"label": "enum auction.auction_state",
						"numberOfBytes": "1"
					},
					"t_mapping(t_address,t_uint256)": {
						"encoding": "mapping",
						"key": "t_address",
						"label": "mapping(address => uint256)",
						"numberOfBytes": "32",
						"value": "t_uint256"
					},
					"t_uint256": {
						"encoding": "inplace",
						"label": "uint256",
						"numberOfBytes": "32"
					}
				}
			},
			"userdoc": {
				"kind": "user",
				"methods": {},
				"version": 1
			}
		}
	}
}