{
	"auction.sol": {
		"auction": {
			"abi": [
				{
					"inputs": [],
					"stateMutability": "nonpayable",
					"type": "constructor"
				},
				{
					"inputs": [],
					"name": "auctionState",
					"outputs": [
						{
							"internalType": "enum auction.auction_state",
							"name": "",
							"type": "uint8"
						}
					],
					"stateMutability": "view",
					"type": "function"
				},
				{
					"inputs": [],
					"name": "auctioner",
					"outputs": [
						{
							"internalType": "address payable",
							"name": "",
							"type": "address"
						}
					],
					"stateMutability": "view",
					"type": "function"
				},
				{
					"inputs": [],
					"name": "bid",
					"outputs": [],
					"stateMutability": "payable",
					"type": "function"
				},
				{
					"inputs": [],
					"name": "bidIncrement",
					"outputs": [
						{
							"internalType": "uint256",
							"name": "",
							"type": "uint256"
						}
					],
					"stateMutability": "view",
					"type": "function"
				},
				{
					"inputs": [
						{
							"internalType": "address",
							"name": "",
							"type": "address"
						}
					],
					"name": "bids",
					"outputs": [
						{
							"internalType": "uint256",
							"name": "",
							"type": "uint256"
						}
					],
					"stateMutability": "view",
					"type": "function"
				},
				{
					"inputs": [],
					"name": "cancelAuc",
					"outputs": [],
					"stateMutability": "nonpayable",
					"type": "function"
				},
				{
					"inputs": [],
					"name": "etblock",
					"outputs": [
						{
							"internalType": "uint256",
							"name": "",
							"type": "uint256"
						}
					],
					"stateMutability": "view",
					"type": "function"
				},
				{
					"inputs": [],
					"name": "finalizeAuction",
					"outputs": [],
					"stateMutability": "nonpayable",
					"type": "function"
				},
				{
					"inputs": [],
					"name": "highestBidder",
					"outputs": [
						{
							"internalType": "address payable",
							"name": "",
							"type": "address"
						}
					],
					"stateMutability": "view",
					"type": "function"
				},
				{
					"inputs": [],
					"name": "highestPayableBid",
					"outputs": [
						{
							"internalType": "uint256",
							"name": "",
							"type": "uint256"
						}
					],
					"stateMutability": "view",
					"type": "function"
				},
				{
					"inputs": [],
					"name": "stblock",
					"outputs": [
						{
							"internalType": "uint256",
							"name": "",
							"type": "uint256"
						}
					],
					"stateMutability": "view",
					"type": "function"
				}
			],
			"devdoc": {
				"kind": "dev",
				"methods": {},
				"version": 1
			},
			"evm": {
				"assembly": "    /* \"auction.sol\":63:2934  contract auction{\r... */\n  mstore(0x40, 0x80)\n    /* \"auction.sol\":506:716  constructor(){\r... */\n  callvalue\n  dup1\n  iszero\n  tag_1\n  jumpi\n  0x00\n  dup1\n  revert\ntag_1:\n  pop\n    /* \"auction.sol\":550:560  msg.sender */\n  caller\n    /* \"auction.sol\":530:539  auctioner */\n  0x00\n  dup1\n    /* \"auction.sol\":530:561  auctioner = payable(msg.sender) */\n  0x0100\n  exp\n  dup2\n  sload\n  dup2\n  0xffffffffffffffffffffffffffffffffffffffff\n  mul\n  not\n  and\n  swap1\n  dup4\n  0xffffffffffffffffffffffffffffffffffffffff\n  and\n  mul\n  or\n  swap1\n  sstore\n  pop\n    /* \"auction.sol\":587:608  auction_state.running */\n  0x01\n    /* \"auction.sol\":572:584  auctionState */\n  0x03\n  0x00\n    /* \"auction.sol\":572:608  auctionState = auction_state.running */\n  0x0100\n  exp\n  dup2\n  sload\n  dup2\n  0xff\n  mul\n  not\n  and\n  swap1\n  dup4\n  0x03\n  dup2\n  gt\n  iszero\n  tag_4\n  jumpi\n  tag_5\n  tag_6\n  jump\t// in\ntag_5:\ntag_4:\n  mul\n  or\n  swap1\n  sstore\n  pop\n    /* \"auction.sol\":629:641  block.number */\n  number\n    /* \"auction.sol\":619:626  stblock */\n  0x01\n    /* \"auction.sol\":619:641  stblock = block.number */\n  dup2\n  swap1\n  sstore\n  pop\n    /* \"auction.sol\":672:675  240 */\n  0xf0\n    /* \"auction.sol\":662:669  stblock */\n  sload(0x01)\n    /* \"auction.sol\":662:675  stblock + 240 */\n  tag_7\n  swap2\n  swap1\n  tag_8\n  jump\t// in\ntag_7:\n    /* \"auction.sol\":652:659  etblock */\n  0x02\n    /* \"auction.sol\":652:675  etblock = stblock + 240 */\n  dup2\n  swap1\n  sstore\n  pop\n    /* \"auction.sol\":701:708  1 ether */\n  0x0de0b6b3a7640000\n    /* \"auction.sol\":686:698  bidIncrement */\n  0x05\n    /* \"auction.sol\":686:708  bidIncrement = 1 ether */\n  dup2\n  swap1\n  sstore\n  pop\n    /* \"auction.sol\":63:2934  contract auction{\r... */\n  jump(tag_9)\n    /* \"#utility.yul\":7:312   */\ntag_8:\n    /* \"#utility.yul\":47:50   */\n  0x00\n    /* \"#utility.yul\":66:86   */\n  tag_12\n    /* \"#utility.yul\":84:85   */\n  dup3\n    /* \"#utility.yul\":66:86   */\n  tag_13\n  jump\t// in\ntag_12:\n    /* \"#utility.yul\":61:86   */\n  swap2\n  pop\n    /* \"#utility.yul\":100:120   */\n  tag_14\n    /* \"#utility.yul\":118:119   */\n  dup4\n    /* \"#utility.yul\":100:120   */\n  tag_13\n  jump\t// in\ntag_14:\n    /* \"#utility.yul\":95:120   */\n  swap3\n  pop\n    /* \"#utility.yul\":254:255   */\n  dup3\n    /* \"#utility.yul\":186:252   */\n  0xffffffffffffffffffffffffffffffffffffffffffffffffffffffffffffffff\n    /* \"#utility.yul\":182:256   */\n  sub\n    /* \"#utility.yul\":179:180   */\n  dup3\n    /* \"#utility.yul\":176:257   */\n  gt\n    /* \"#utility.yul\":173:280   */\n  iszero\n  tag_15\n  jumpi\n    /* \"#utility.yul\":260:278   */\n  tag_16\n  tag_17\n  jump\t// in\ntag_16:\n    /* \"#utility.yul\":173:280   */\ntag_15:\n    /* \"#utility.yul\":304:305   */\n  dup3\n    /* \"#utility.yul\":301:302   */\n  dup3\n    /* \"#utility.yul\":297:306   */\n  add\n    /* \"#utility.yul\":290:306   */\n  swap1\n  pop\n    /* \"#utility.yul\":7:312   */\n  swap3\n  swap2\n  pop\n  pop\n  jump\t// out\n    /* \"#utility.yul\":318:395   */\ntag_13:\n    /* \"#utility.yul\":355:362   */\n  0x00\n    /* \"#utility.yul\":384:389   */\n  dup2\n    /* \"#utility.yul\":373:389   */\n  swap1\n  pop\n    /* \"#utility.yul\":318:395   */\n  swap2\n  swap1\n  pop\n  jump\t// out\n    /* \"#utility.yul\":401:581   */\ntag_17:\n    /* \"#utility.yul\":449:526   */\n  0x4e487b7100000000000000000000000000000000000000000000000000000000\n    /* \"#utility.yul\":446:447   */\n  0x00\n    /* \"#utility.yul\":439:527   */\n  mstore\n    /* \"#utility.yul\":546:550   */\n  0x11\n    /* \"#utility.yul\":543:544   */\n  0x04\n    /* \"#utility.yul\":536:551   */\n  mstore\n    /* \"#utility.yul\":570:574   */\n  0x24\n    /* \"#utility.yul\":567:568   */\n  0x00\n    /* \"#utility.yul\":560:575   */\n  revert\n    /* \"#utility.yul\":587:767   */\ntag_6:\n    /* \"#utility.yul\":635:712   */\n  0x4e487b7100000000000000000000000000000000000000000000000000000000\n    /* \"#utility.yul\":632:633   */\n  0x00\n    /* \"#utility.yul\":625:713   */\n  mstore\n    /* \"#utility.yul\":732:736   */\n  0x21\n    /* \"#utility.yul\":729:730   */\n  0x04\n    /* \"#utility.yul\":722:737   */\n  mstore\n    /* \"#utility.yul\":756:760   */\n  0x24\n    /* \"#utility.yul\":753:754   */\n  0x00\n    /* \"#utility.yul\":746:761   */\n  revert\n    /* \"auction.sol\":63:2934  contract auction{\r... */\ntag_9:\n  dataSize(sub_0)\n  dup1\n  dataOffset(sub_0)\n  0x00\n  codecopy\n  0x00\n  return\nstop\n\nsub_0: assembly {\n        /* \"auction.sol\":63:2934  contract auction{\r... */\n      mstore(0x40, 0x80)\n      jumpi(tag_1, lt(calldatasize, 0x04))\n      shr(0xe0, calldataload(0x00))\n      dup1\n      0x91f90157\n      gt\n      tag_13\n      jumpi\n      dup1\n      0x91f90157\n      eq\n      tag_7\n      jumpi\n      dup1\n      0x9d957d45\n      eq\n      tag_8\n      jumpi\n      dup1\n      0xa118be02\n      eq\n      tag_9\n      jumpi\n      dup1\n      0xb3cc167a\n      eq\n      tag_10\n      jumpi\n      dup1\n      0xf3fb05df\n      eq\n      tag_11\n      jumpi\n      dup1\n      0xf77282ab\n      eq\n      tag_12\n      jumpi\n      jump(tag_1)\n    tag_13:\n      dup1\n      0x1998aeef\n      eq\n      tag_2\n      jumpi\n      dup1\n      0x2352f320\n      eq\n      tag_3\n      jumpi\n      dup1\n      0x4f5150ca\n      eq\n      tag_4\n      jumpi\n      dup1\n      0x62ea82db\n      eq\n      tag_5\n      jumpi\n      dup1\n      0x7fb45099\n      eq\n      tag_6\n      jumpi\n    tag_1:\n      0x00\n      dup1\n      revert\n        /* \"auction.sol\":1398:1987  function bid() public payable notOwner started ended{\r... */\n    tag_2:\n      tag_14\n      tag_15\n      jump\t// in\n    tag_14:\n      stop\n        /* \"auction.sol\":1303:1390  function cancelAuc() public owner{\r... */\n    tag_3:\n      callvalue\n      dup1\n      iszero\n      tag_16\n      jumpi\n      0x00\n      dup1\n      revert\n    tag_16:\n      pop\n      tag_17\n      tag_18\n      jump\t// in\n    tag_17:\n      stop\n        /* \"auction.sol\":324:353  uint public highestPayableBid */\n    tag_4:\n      callvalue\n      dup1\n      iszero\n      tag_19\n      jumpi\n      0x00\n      dup1\n      revert\n    tag_19:\n      pop\n      tag_20\n      tag_21\n      jump\t// in\n    tag_20:\n      mload(0x40)\n      tag_22\n      swap2\n      swap1\n      tag_23\n      jump\t// in\n    tag_22:\n      mload(0x40)\n      dup1\n      swap2\n      sub\n      swap1\n      return\n        /* \"auction.sol\":436:470  mapping(address=>uint) public bids */\n    tag_5:\n      callvalue\n      dup1\n      iszero\n      tag_24\n      jumpi\n      0x00\n      dup1\n      revert\n    tag_24:\n      pop\n      tag_25\n      0x04\n      dup1\n      calldatasize\n      sub\n      dup2\n      add\n      swap1\n      tag_26\n      swap2\n      swap1\n      tag_27\n      jump\t// in\n    tag_26:\n      tag_28\n      jump\t// in\n    tag_25:\n      mload(0x40)\n      tag_29\n      swap2\n      swap1\n      tag_23\n      jump\t// in\n    tag_29:\n      mload(0x40)\n      dup1\n      swap2\n      sub\n      swap1\n      return\n        /* \"auction.sol\":282:315  auction_state public auctionState */\n    tag_6:\n      callvalue\n      dup1\n      iszero\n      tag_30\n      jumpi\n      0x00\n      dup1\n      revert\n    tag_30:\n      pop\n      tag_31\n      tag_32\n      jump\t// in\n    tag_31:\n      mload(0x40)\n      tag_33\n      swap2\n      swap1\n      tag_34\n      jump\t// in\n    tag_33:\n      mload(0x40)\n      dup1\n      swap2\n      sub\n      swap1\n      return\n        /* \"auction.sol\":393:429  address payable public highestBidder */\n    tag_7:\n      callvalue\n      dup1\n      iszero\n      tag_35\n      jumpi\n      0x00\n      dup1\n      revert\n    tag_35:\n      pop\n      tag_36\n      tag_37\n      jump\t// in\n    tag_36:\n      mload(0x40)\n      tag_38\n      swap2\n      swap1\n      tag_39\n      jump\t// in\n    tag_38:\n      mload(0x40)\n      dup1\n      swap2\n      sub\n      swap1\n      return\n        /* \"auction.sol\":164:183  uint public etblock */\n    tag_8:\n      callvalue\n      dup1\n      iszero\n      tag_40\n      jumpi\n      0x00\n      dup1\n      revert\n    tag_40:\n      pop\n      tag_41\n      tag_42\n      jump\t// in\n    tag_41:\n      mload(0x40)\n      tag_43\n      swap2\n      swap1\n      tag_23\n      jump\t// in\n    tag_43:\n      mload(0x40)\n      dup1\n      swap2\n      sub\n      swap1\n      return\n        /* \"auction.sol\":125:144  uint public stblock */\n    tag_9:\n      callvalue\n      dup1\n      iszero\n      tag_44\n      jumpi\n      0x00\n      dup1\n      revert\n    tag_44:\n      pop\n      tag_45\n      tag_46\n      jump\t// in\n    tag_45:\n      mload(0x40)\n      tag_47\n      swap2\n      swap1\n      tag_23\n      jump\t// in\n    tag_47:\n      mload(0x40)\n      dup1\n      swap2\n      sub\n      swap1\n      return\n        /* \"auction.sol\":360:384  uint public bidIncrement */\n    tag_10:\n      callvalue\n      dup1\n      iszero\n      tag_48\n      jumpi\n      0x00\n      dup1\n      revert\n    tag_48:\n      pop\n      tag_49\n      tag_50\n      jump\t// in\n    tag_49:\n      mload(0x40)\n      tag_51\n      swap2\n      swap1\n      tag_23\n      jump\t// in\n    tag_51:\n      mload(0x40)\n      dup1\n      swap2\n      sub\n      swap1\n      return\n        /* \"auction.sol\":86:118  address payable public auctioner */\n    tag_11:\n      callvalue\n      dup1\n      iszero\n      tag_52\n      jumpi\n      0x00\n      dup1\n      revert\n    tag_52:\n      pop\n      tag_53\n      tag_54\n      jump\t// in\n    tag_53:\n      mload(0x40)\n      tag_55\n      swap2\n      swap1\n      tag_39\n      jump\t// in\n    tag_55:\n      mload(0x40)\n      dup1\n      swap2\n      sub\n      swap1\n      return\n        /* \"auction.sol\":1995:2931  function finalizeAuction() public {\r... */\n    tag_12:\n      callvalue\n      dup1\n      iszero\n      tag_56\n      jumpi\n      0x00\n      dup1\n      revert\n    tag_56:\n      pop\n      tag_57\n      tag_58\n      jump\t// in\n    tag_57:\n      stop\n        /* \"auction.sol\":1398:1987  function bid() public payable notOwner started ended{\r... */\n    tag_15:\n        /* \"auction.sol\":799:808  auctioner */\n      0x00\n      dup1\n      sload\n      swap1\n      0x0100\n      exp\n      swap1\n      div\n      0xffffffffffffffffffffffffffffffffffffffff\n      and\n        /* \"auction.sol\":785:808  msg.sender != auctioner */\n      0xffffffffffffffffffffffffffffffffffffffff\n      and\n        /* \"auction.sol\":785:795  msg.sender */\n      caller\n        /* \"auction.sol\":785:808  msg.sender != auctioner */\n      0xffffffffffffffffffffffffffffffffffffffff\n      and\n      eq\n      iszero\n        /* \"auction.sol\":777:829  require(msg.sender != auctioner, \"Owner cannot bid\") */\n      tag_60\n      jumpi\n      mload(0x40)\n      0x08c379a000000000000000000000000000000000000000000000000000000000\n      dup2\n      mstore\n      0x04\n      add\n      tag_61\n      swap1\n      tag_62\n      jump\t// in\n    tag_61:\n      mload(0x40)\n      dup1\n      swap2\n      sub\n      swap1\n      revert\n    tag_60:\n        /* \"auction.sol\":1018:1025  stblock */\n      sload(0x01)\n        /* \"auction.sol\":1002:1014  block.number */\n      number\n        /* \"auction.sol\":1002:1025  block.number >= stblock */\n      lt\n      iszero\n        /* \"auction.sol\":994:1026  require(block.number >= stblock) */\n      tag_64\n      jumpi\n      0x00\n      dup1\n      revert\n    tag_64:\n        /* \"auction.sol\":1102:1109  etblock */\n      sload(0x02)\n        /* \"auction.sol\":1087:1099  block.number */\n      number\n        /* \"auction.sol\":1087:1109  block.number < etblock */\n      lt\n        /* \"auction.sol\":1079:1110  require(block.number < etblock) */\n      tag_66\n      jumpi\n      0x00\n      dup1\n      revert\n    tag_66:\n        /* \"auction.sol\":1485:1506  auction_state.running */\n      0x01\n        /* \"auction.sol\":1469:1506  auctionState == auction_state.running */\n      0x03\n      dup2\n      gt\n      iszero\n      tag_68\n      jumpi\n      tag_69\n      tag_70\n      jump\t// in\n    tag_69:\n    tag_68:\n        /* \"auction.sol\":1469:1481  auctionState */\n      0x03\n      0x00\n      swap1\n      sload\n      swap1\n      0x0100\n      exp\n      swap1\n      div\n      0xff\n      and\n        /* \"auction.sol\":1469:1506  auctionState == auction_state.running */\n      0x03\n      dup2\n      gt\n      iszero\n      tag_71\n      jumpi\n      tag_72\n      tag_70\n      jump\t// in\n    tag_72:\n    tag_71:\n      eq\n        /* \"auction.sol\":1461:1527  require(auctionState == auction_state.running, \"Auction is ended\") */\n      tag_73\n      jumpi\n      mload(0x40)\n      0x08c379a000000000000000000000000000000000000000000000000000000000\n      dup2\n      mstore\n      0x04\n      add\n      tag_74\n      swap1\n      tag_75\n      jump\t// in\n    tag_74:\n      mload(0x40)\n      dup1\n      swap2\n      sub\n      swap1\n      revert\n    tag_73:\n        /* \"auction.sol\":1559:1566  1 ether */\n      0x0de0b6b3a7640000\n        /* \"auction.sol\":1546:1555  msg.value */\n      callvalue\n        /* \"auction.sol\":1546:1566  msg.value >= 1 ether */\n      lt\n      iszero\n        /* \"auction.sol\":1538:1591  require(msg.value >= 1 ether, \"Ether is less than 1\") */\n      tag_76\n      jumpi\n      mload(0x40)\n      0x08c379a000000000000000000000000000000000000000000000000000000000\n      dup2\n      mstore\n      0x04\n      add\n      tag_77\n      swap1\n      tag_78\n      jump\t// in\n    tag_77:\n      mload(0x40)\n      dup1\n      swap2\n      sub\n      swap1\n      revert\n    tag_76:\n        /* \"auction.sol\":1604:1622  uint currentBidder */\n      0x00\n        /* \"auction.sol\":1644:1653  msg.value */\n      callvalue\n        /* \"auction.sol\":1625:1629  bids */\n      0x07\n        /* \"auction.sol\":1625:1641  bids[msg.sender] */\n      0x00\n        /* \"auction.sol\":1630:1640  msg.sender */\n      caller\n        /* \"auction.sol\":1625:1641  bids[msg.sender] */\n      0xffffffffffffffffffffffffffffffffffffffff\n      and\n      0xffffffffffffffffffffffffffffffffffffffff\n      and\n      dup2\n      mstore\n      0x20\n      add\n      swap1\n      dup2\n      mstore\n      0x20\n      add\n      0x00\n      keccak256\n      sload\n        /* \"auction.sol\":1625:1653  bids[msg.sender] + msg.value */\n      tag_79\n      swap2\n      swap1\n      tag_80\n      jump\t// in\n    tag_79:\n        /* \"auction.sol\":1604:1653  uint currentBidder = bids[msg.sender] + msg.value */\n      swap1\n      pop\n        /* \"auction.sol\":1690:1707  highestPayableBid */\n      sload(0x04)\n        /* \"auction.sol\":1674:1687  currentBidder */\n      dup2\n        /* \"auction.sol\":1674:1707  currentBidder > highestPayableBid */\n      gt\n        /* \"auction.sol\":1666:1736  require(currentBidder > highestPayableBid, \"Less than highestpayable\") */\n      tag_81\n      jumpi\n      mload(0x40)\n      0x08c379a000000000000000000000000000000000000000000000000000000000\n      dup2\n      mstore\n      0x04\n      add\n      tag_82\n      swap1\n      tag_83\n      jump\t// in\n    tag_82:\n      mload(0x40)\n      dup1\n      swap2\n      sub\n      swap1\n      revert\n    tag_81:\n        /* \"auction.sol\":1768:1781  currentBidder */\n      dup1\n        /* \"auction.sol\":1749:1753  bids */\n      0x07\n        /* \"auction.sol\":1749:1765  bids[msg.sender] */\n      0x00\n        /* \"auction.sol\":1754:1764  msg.sender */\n      caller\n        /* \"auction.sol\":1749:1765  bids[msg.sender] */\n      0xffffffffffffffffffffffffffffffffffffffff\n      and\n      0xffffffffffffffffffffffffffffffffffffffff\n      and\n      dup2\n      mstore\n      0x20\n      add\n      swap1\n      dup2\n      mstore\n      0x20\n      add\n      0x00\n      keccak256\n        /* \"auction.sol\":1749:1781  bids[msg.sender] = currentBidder */\n      dup2\n      swap1\n      sstore\n      pop\n        /* \"auction.sol\":1811:1815  bids */\n      0x07\n        /* \"auction.sol\":1811:1830  bids[highestBidder] */\n      0x00\n        /* \"auction.sol\":1816:1829  highestBidder */\n      0x06\n      0x00\n      swap1\n      sload\n      swap1\n      0x0100\n      exp\n      swap1\n      div\n      0xffffffffffffffffffffffffffffffffffffffff\n      and\n        /* \"auction.sol\":1811:1830  bids[highestBidder] */\n      0xffffffffffffffffffffffffffffffffffffffff\n      and\n      0xffffffffffffffffffffffffffffffffffffffff\n      and\n      dup2\n      mstore\n      0x20\n      add\n      swap1\n      dup2\n      mstore\n      0x20\n      add\n      0x00\n      keccak256\n      sload\n        /* \"auction.sol\":1795:1808  currentBidder */\n      dup2\n        /* \"auction.sol\":1795:1830  currentBidder < bids[highestBidder] */\n      lt\n        /* \"auction.sol\":1792:1980  if(currentBidder < bids[highestBidder]){\r... */\n      iszero\n      tag_84\n      jumpi\n        /* \"auction.sol\":1866:1918  min(currentBidder, bids[highestBidder]+bidIncrement) */\n      tag_85\n        /* \"auction.sol\":1870:1883  currentBidder */\n      dup2\n        /* \"auction.sol\":1905:1917  bidIncrement */\n      sload(0x05)\n        /* \"auction.sol\":1885:1889  bids */\n      0x07\n        /* \"auction.sol\":1885:1904  bids[highestBidder] */\n      0x00\n        /* \"auction.sol\":1890:1903  highestBidder */\n      0x06\n      0x00\n      swap1\n      sload\n      swap1\n      0x0100\n      exp\n      swap1\n      div\n      0xffffffffffffffffffffffffffffffffffffffff\n      and\n        /* \"auction.sol\":1885:1904  bids[highestBidder] */\n      0xffffffffffffffffffffffffffffffffffffffff\n      and\n      0xffffffffffffffffffffffffffffffffffffffff\n      and\n      dup2\n      mstore\n      0x20\n      add\n      swap1\n      dup2\n      mstore\n      0x20\n      add\n      0x00\n      keccak256\n      sload\n        /* \"auction.sol\":1885:1917  bids[highestBidder]+bidIncrement */\n      tag_86\n      swap2\n      swap1\n      tag_80\n      jump\t// in\n    tag_86:\n        /* \"auction.sol\":1866:1869  min */\n      tag_87\n        /* \"auction.sol\":1866:1918  min(currentBidder, bids[highestBidder]+bidIncrement) */\n      jump\t// in\n    tag_85:\n        /* \"auction.sol\":1846:1863  highestPayableBid */\n      0x04\n        /* \"auction.sol\":1846:1918  highestPayableBid = min(currentBidder, bids[highestBidder]+bidIncrement) */\n      dup2\n      swap1\n      sstore\n      pop\n        /* \"auction.sol\":1957:1967  msg.sender */\n      caller\n        /* \"auction.sol\":1933:1946  highestBidder */\n      0x06\n      0x00\n        /* \"auction.sol\":1933:1968  highestBidder = payable(msg.sender) */\n      0x0100\n      exp\n      dup2\n      sload\n      dup2\n      0xffffffffffffffffffffffffffffffffffffffff\n      mul\n      not\n      and\n      swap1\n      dup4\n      0xffffffffffffffffffffffffffffffffffffffff\n      and\n      mul\n      or\n      swap1\n      sstore\n      pop\n        /* \"auction.sol\":1792:1980  if(currentBidder < bids[highestBidder]){\r... */\n    tag_84:\n        /* \"auction.sol\":1450:1987  {\r... */\n      pop\n        /* \"auction.sol\":1398:1987  function bid() public payable notOwner started ended{\r... */\n      jump\t// out\n        /* \"auction.sol\":1303:1390  function cancelAuc() public owner{\r... */\n    tag_18:\n        /* \"auction.sol\":904:913  auctioner */\n      0x00\n      dup1\n      sload\n      swap1\n      0x0100\n      exp\n      swap1\n      div\n      0xffffffffffffffffffffffffffffffffffffffff\n      and\n        /* \"auction.sol\":890:913  msg.sender == auctioner */\n      0xffffffffffffffffffffffffffffffffffffffff\n      and\n        /* \"auction.sol\":890:900  msg.sender */\n      caller\n        /* \"auction.sol\":890:913  msg.sender == auctioner */\n      0xffffffffffffffffffffffffffffffffffffffff\n      and\n      eq\n        /* \"auction.sol\":882:939  require(msg.sender == auctioner, \"You are not the owner\") */\n      tag_89\n      jumpi\n      mload(0x40)\n      0x08c379a000000000000000000000000000000000000000000000000000000000\n      dup2\n      mstore\n      0x04\n      add\n      tag_90\n      swap1\n      tag_91\n      jump\t// in\n    tag_90:\n      mload(0x40)\n      dup1\n      swap2\n      sub\n      swap1\n      revert\n    tag_89:\n        /* \"auction.sol\":1362:1382  auction_state.cancel */\n      0x03\n        /* \"auction.sol\":1347:1359  auctionState */\n      dup1\n      0x00\n        /* \"auction.sol\":1347:1382  auctionState = auction_state.cancel */\n      0x0100\n      exp\n      dup2\n      sload\n      dup2\n      0xff\n      mul\n      not\n      and\n      swap1\n      dup4\n      0x03\n      dup2\n      gt\n      iszero\n      tag_93\n      jumpi\n      tag_94\n      tag_70\n      jump\t// in\n    tag_94:\n    tag_93:\n      mul\n      or\n      swap1\n      sstore\n      pop\n        /* \"auction.sol\":1303:1390  function cancelAuc() public owner{\r... */\n      jump\t// out\n        /* \"auction.sol\":324:353  uint public highestPayableBid */\n    tag_21:\n      sload(0x04)\n      dup2\n      jump\t// out\n        /* \"auction.sol\":436:470  mapping(address=>uint) public bids */\n    tag_28:\n      mstore(0x20, 0x07)\n      dup1\n      0x00\n      mstore\n      keccak256(0x00, 0x40)\n      0x00\n      swap2\n      pop\n      swap1\n      pop\n      sload\n      dup2\n      jump\t// out\n        /* \"auction.sol\":282:315  auction_state public auctionState */\n    tag_32:\n      0x03\n      0x00\n      swap1\n      sload\n      swap1\n      0x0100\n      exp\n      swap1\n      div\n      0xff\n      and\n      dup2\n      jump\t// out\n        /* \"auction.sol\":393:429  address payable public highestBidder */\n    tag_37:\n      0x06\n      0x00\n      swap1\n      sload\n      swap1\n      0x0100\n      exp\n      swap1\n      div\n      0xffffffffffffffffffffffffffffffffffffffff\n      and\n      dup2\n      jump\t// out\n        /* \"auction.sol\":164:183  uint public etblock */\n    tag_42:\n      sload(0x02)\n      dup2\n      jump\t// out\n        /* \"auction.sol\":125:144  uint public stblock */\n    tag_46:\n      sload(0x01)\n      dup2\n      jump\t// out\n        /* \"auction.sol\":360:384  uint public bidIncrement */\n    tag_50:\n      sload(0x05)\n      dup2\n      jump\t// out\n        /* \"auction.sol\":86:118  address payable public auctioner */\n    tag_54:\n      0x00\n      dup1\n      sload\n      swap1\n      0x0100\n      exp\n      swap1\n      div\n      0xffffffffffffffffffffffffffffffffffffffff\n      and\n      dup2\n      jump\t// out\n        /* \"auction.sol\":1995:2931  function finalizeAuction() public {\r... */\n    tag_58:\n        /* \"auction.sol\":2064:2084  auction_state.cancel */\n      0x03\n        /* \"auction.sol\":2048:2084  auctionState == auction_state.cancel */\n      dup1\n      dup2\n      gt\n      iszero\n      tag_96\n      jumpi\n      tag_97\n      tag_70\n      jump\t// in\n    tag_97:\n    tag_96:\n        /* \"auction.sol\":2048:2060  auctionState */\n      0x03\n      0x00\n      swap1\n      sload\n      swap1\n      0x0100\n      exp\n      swap1\n      div\n      0xff\n      and\n        /* \"auction.sol\":2048:2084  auctionState == auction_state.cancel */\n      0x03\n      dup2\n      gt\n      iszero\n      tag_98\n      jumpi\n      tag_99\n      tag_70\n      jump\t// in\n    tag_99:\n    tag_98:\n      eq\n        /* \"auction.sol\":2048:2110  auctionState == auction_state.cancel || block.number > etblock */\n      dup1\n      tag_100\n      jumpi\n      pop\n        /* \"auction.sol\":2103:2110  etblock */\n      sload(0x02)\n        /* \"auction.sol\":2088:2100  block.number */\n      number\n        /* \"auction.sol\":2088:2110  block.number > etblock */\n      gt\n        /* \"auction.sol\":2048:2110  auctionState == auction_state.cancel || block.number > etblock */\n    tag_100:\n        /* \"auction.sol\":2040:2111  require(auctionState == auction_state.cancel || block.number > etblock) */\n      tag_101\n      jumpi\n      0x00\n      dup1\n      revert\n    tag_101:\n        /* \"auction.sol\":2144:2153  auctioner */\n      0x00\n      dup1\n      sload\n      swap1\n      0x0100\n      exp\n      swap1\n      div\n      0xffffffffffffffffffffffffffffffffffffffff\n      and\n        /* \"auction.sol\":2130:2153  msg.sender == auctioner */\n      0xffffffffffffffffffffffffffffffffffffffff\n      and\n        /* \"auction.sol\":2130:2140  msg.sender */\n      caller\n        /* \"auction.sol\":2130:2153  msg.sender == auctioner */\n      0xffffffffffffffffffffffffffffffffffffffff\n      and\n      eq\n        /* \"auction.sol\":2130:2177  msg.sender == auctioner || bids[msg.sender] > 0 */\n      dup1\n      tag_102\n      jumpi\n      pop\n        /* \"auction.sol\":2176:2177  0 */\n      0x00\n        /* \"auction.sol\":2157:2161  bids */\n      0x07\n        /* \"auction.sol\":2157:2173  bids[msg.sender] */\n      0x00\n        /* \"auction.sol\":2162:2172  msg.sender */\n      caller\n        /* \"auction.sol\":2157:2173  bids[msg.sender] */\n      0xffffffffffffffffffffffffffffffffffffffff\n      and\n      0xffffffffffffffffffffffffffffffffffffffff\n      and\n      dup2\n      mstore\n      0x20\n      add\n      swap1\n      dup2\n      mstore\n      0x20\n      add\n      0x00\n      keccak256\n      sload\n        /* \"auction.sol\":2157:2177  bids[msg.sender] > 0 */\n      gt\n        /* \"auction.sol\":2130:2177  msg.sender == auctioner || bids[msg.sender] > 0 */\n    tag_102:\n        /* \"auction.sol\":2122:2178  require(msg.sender == auctioner || bids[msg.sender] > 0) */\n      tag_103\n      jumpi\n      0x00\n      dup1\n      revert\n    tag_103:\n        /* \"auction.sol\":2191:2213  address payable person */\n      0x00\n        /* \"auction.sol\":2224:2234  uint value */\n      dup1\n        /* \"auction.sol\":2264:2284  auction_state.cancel */\n      0x03\n        /* \"auction.sol\":2248:2284  auctionState == auction_state.cancel */\n      dup1\n      dup2\n      gt\n      iszero\n      tag_104\n      jumpi\n      tag_105\n      tag_70\n      jump\t// in\n    tag_105:\n    tag_104:\n        /* \"auction.sol\":2248:2260  auctionState */\n      0x03\n      0x00\n      swap1\n      sload\n      swap1\n      0x0100\n      exp\n      swap1\n      div\n      0xff\n      and\n        /* \"auction.sol\":2248:2284  auctionState == auction_state.cancel */\n      0x03\n      dup2\n      gt\n      iszero\n      tag_106\n      jumpi\n      tag_107\n      tag_70\n      jump\t// in\n    tag_107:\n    tag_106:\n      eq\n        /* \"auction.sol\":2245:2860  if(auctionState == auction_state.cancel){\r... */\n      iszero\n      tag_108\n      jumpi\n        /* \"auction.sol\":2317:2327  msg.sender */\n      caller\n        /* \"auction.sol\":2300:2328  person = payable(msg.sender) */\n      swap2\n      pop\n        /* \"auction.sol\":2351:2355  bids */\n      0x07\n        /* \"auction.sol\":2351:2367  bids[msg.sender] */\n      0x00\n        /* \"auction.sol\":2356:2366  msg.sender */\n      caller\n        /* \"auction.sol\":2351:2367  bids[msg.sender] */\n      0xffffffffffffffffffffffffffffffffffffffff\n      and\n      0xffffffffffffffffffffffffffffffffffffffff\n      and\n      dup2\n      mstore\n      0x20\n      add\n      swap1\n      dup2\n      mstore\n      0x20\n      add\n      0x00\n      keccak256\n      sload\n        /* \"auction.sol\":2343:2367  value = bids[msg.sender] */\n      swap1\n      pop\n        /* \"auction.sol\":2245:2860  if(auctionState == auction_state.cancel){\r... */\n      jump(tag_109)\n    tag_108:\n        /* \"auction.sol\":2415:2424  auctioner */\n      0x00\n      dup1\n      sload\n      swap1\n      0x0100\n      exp\n      swap1\n      div\n      0xffffffffffffffffffffffffffffffffffffffff\n      and\n        /* \"auction.sol\":2401:2424  msg.sender == auctioner */\n      0xffffffffffffffffffffffffffffffffffffffff\n      and\n        /* \"auction.sol\":2401:2411  msg.sender */\n      caller\n        /* \"auction.sol\":2401:2424  msg.sender == auctioner */\n      0xffffffffffffffffffffffffffffffffffffffff\n      and\n      eq\n        /* \"auction.sol\":2398:2849  if(msg.sender == auctioner){\r... */\n      iszero\n      tag_110\n      jumpi\n        /* \"auction.sol\":2453:2462  auctioner */\n      0x00\n      dup1\n      sload\n      swap1\n      0x0100\n      exp\n      swap1\n      div\n      0xffffffffffffffffffffffffffffffffffffffff\n      and\n        /* \"auction.sol\":2444:2462  person = auctioner */\n      swap2\n      pop\n        /* \"auction.sol\":2489:2506  highestPayableBid */\n      sload(0x04)\n        /* \"auction.sol\":2481:2506  value = highestPayableBid */\n      swap1\n      pop\n        /* \"auction.sol\":2398:2849  if(msg.sender == auctioner){\r... */\n      jump(tag_111)\n    tag_110:\n        /* \"auction.sol\":2563:2576  highestBidder */\n      0x06\n      0x00\n      swap1\n      sload\n      swap1\n      0x0100\n      exp\n      swap1\n      div\n      0xffffffffffffffffffffffffffffffffffffffff\n      and\n        /* \"auction.sol\":2549:2576  msg.sender == highestBidder */\n      0xffffffffffffffffffffffffffffffffffffffff\n      and\n        /* \"auction.sol\":2549:2559  msg.sender */\n      caller\n        /* \"auction.sol\":2549:2576  msg.sender == highestBidder */\n      0xffffffffffffffffffffffffffffffffffffffff\n      and\n      eq\n        /* \"auction.sol\":2546:2834  if(msg.sender == highestBidder){\r... */\n      iszero\n      tag_112\n      jumpi\n        /* \"auction.sol\":2609:2622  highestBidder */\n      0x06\n      0x00\n      swap1\n      sload\n      swap1\n      0x0100\n      exp\n      swap1\n      div\n      0xffffffffffffffffffffffffffffffffffffffff\n      and\n        /* \"auction.sol\":2600:2622  person = highestBidder */\n      swap2\n      pop\n        /* \"auction.sol\":2675:2692  highestPayableBid */\n      sload(0x04)\n        /* \"auction.sol\":2653:2657  bids */\n      0x07\n        /* \"auction.sol\":2653:2672  bids[highestBidder] */\n      0x00\n        /* \"auction.sol\":2658:2671  highestBidder */\n      0x06\n      0x00\n      swap1\n      sload\n      swap1\n      0x0100\n      exp\n      swap1\n      div\n      0xffffffffffffffffffffffffffffffffffffffff\n      and\n        /* \"auction.sol\":2653:2672  bids[highestBidder] */\n      0xffffffffffffffffffffffffffffffffffffffff\n      and\n      0xffffffffffffffffffffffffffffffffffffffff\n      and\n      dup2\n      mstore\n      0x20\n      add\n      swap1\n      dup2\n      mstore\n      0x20\n      add\n      0x00\n      keccak256\n      sload\n        /* \"auction.sol\":2653:2692  bids[highestBidder] - highestPayableBid */\n      tag_113\n      swap2\n      swap1\n      tag_114\n      jump\t// in\n    tag_113:\n        /* \"auction.sol\":2645:2692  value = bids[highestBidder] - highestPayableBid */\n      swap1\n      pop\n        /* \"auction.sol\":2546:2834  if(msg.sender == highestBidder){\r... */\n      jump(tag_115)\n    tag_112:\n        /* \"auction.sol\":2756:2766  msg.sender */\n      caller\n        /* \"auction.sol\":2739:2767  person = payable(msg.sender) */\n      swap2\n      pop\n        /* \"auction.sol\":2798:2802  bids */\n      0x07\n        /* \"auction.sol\":2798:2814  bids[msg.sender] */\n      0x00\n        /* \"auction.sol\":2803:2813  msg.sender */\n      caller\n        /* \"auction.sol\":2798:2814  bids[msg.sender] */\n      0xffffffffffffffffffffffffffffffffffffffff\n      and\n      0xffffffffffffffffffffffffffffffffffffffff\n      and\n      dup2\n      mstore\n      0x20\n      add\n      swap1\n      dup2\n      mstore\n      0x20\n      add\n      0x00\n      keccak256\n      sload\n        /* \"auction.sol\":2790:2814  value = bids[msg.sender] */\n      swap1\n      pop\n        /* \"auction.sol\":2546:2834  if(msg.sender == highestBidder){\r... */\n    tag_115:\n        /* \"auction.sol\":2398:2849  if(msg.sender == auctioner){\r... */\n    tag_111:\n        /* \"auction.sol\":2245:2860  if(auctionState == auction_state.cancel){\r... */\n    tag_109:\n        /* \"auction.sol\":2889:2890  0 */\n      0x00\n        /* \"auction.sol\":2870:2874  bids */\n      0x07\n        /* \"auction.sol\":2870:2886  bids[msg.sender] */\n      0x00\n        /* \"auction.sol\":2875:2885  msg.sender */\n      caller\n        /* \"auction.sol\":2870:2886  bids[msg.sender] */\n      0xffffffffffffffffffffffffffffffffffffffff\n      and\n      0xffffffffffffffffffffffffffffffffffffffff\n      and\n      dup2\n      mstore\n      0x20\n      add\n      swap1\n      dup2\n      mstore\n      0x20\n      add\n      0x00\n      keccak256\n        /* \"auction.sol\":2870:2890  bids[msg.sender] = 0 */\n      dup2\n      swap1\n      sstore\n      pop\n        /* \"auction.sol\":2901:2907  person */\n      dup2\n        /* \"auction.sol\":2901:2916  person.transfer */\n      0xffffffffffffffffffffffffffffffffffffffff\n      and\n        /* \"auction.sol\":2901:2923  person.transfer(value) */\n      0x08fc\n        /* \"auction.sol\":2917:2922  value */\n      dup3\n        /* \"auction.sol\":2901:2923  person.transfer(value) */\n      swap1\n      dup2\n      iszero\n      mul\n      swap1\n      mload(0x40)\n      0x00\n      mload(0x40)\n      dup1\n      dup4\n      sub\n      dup2\n      dup6\n      dup9\n      dup9\n      call\n      swap4\n      pop\n      pop\n      pop\n      pop\n      iszero\n      dup1\n      iszero\n      tag_117\n      jumpi\n      returndatasize\n      0x00\n      dup1\n      returndatacopy\n      revert(0x00, returndatasize)\n    tag_117:\n      pop\n        /* \"auction.sol\":2029:2931  {\r... */\n      pop\n      pop\n        /* \"auction.sol\":1995:2931  function finalizeAuction() public {\r... */\n      jump\t// out\n        /* \"auction.sol\":1138:1295  function min(uint a, uint b) private pure returns(uint){\r... */\n    tag_87:\n        /* \"auction.sol\":1188:1192  uint */\n      0x00\n        /* \"auction.sol\":1212:1213  b */\n      dup2\n        /* \"auction.sol\":1207:1208  a */\n      dup4\n        /* \"auction.sol\":1207:1213  a <= b */\n      gt\n        /* \"auction.sol\":1204:1288  if(a <= b){\r... */\n      tag_119\n      jumpi\n        /* \"auction.sol\":1236:1237  a */\n      dup3\n        /* \"auction.sol\":1229:1237  return a */\n      swap1\n      pop\n      jump(tag_118)\n        /* \"auction.sol\":1204:1288  if(a <= b){\r... */\n    tag_119:\n        /* \"auction.sol\":1275:1276  b */\n      dup2\n        /* \"auction.sol\":1268:1276  return b */\n      swap1\n      pop\n        /* \"auction.sol\":1138:1295  function min(uint a, uint b) private pure returns(uint){\r... */\n    tag_118:\n      swap3\n      swap2\n      pop\n      pop\n      jump\t// out\n        /* \"#utility.yul\":7:146   */\n    tag_122:\n        /* \"#utility.yul\":53:58   */\n      0x00\n        /* \"#utility.yul\":91:97   */\n      dup2\n        /* \"#utility.yul\":78:98   */\n      calldataload\n        /* \"#utility.yul\":69:98   */\n      swap1\n      pop\n        /* \"#utility.yul\":107:140   */\n      tag_124\n        /* \"#utility.yul\":134:139   */\n      dup2\n        /* \"#utility.yul\":107:140   */\n      tag_125\n      jump\t// in\n    tag_124:\n        /* \"#utility.yul\":7:146   */\n      swap3\n      swap2\n      pop\n      pop\n      jump\t// out\n        /* \"#utility.yul\":152:481   */\n    tag_27:\n        /* \"#utility.yul\":211:217   */\n      0x00\n        /* \"#utility.yul\":260:262   */\n      0x20\n        /* \"#utility.yul\":248:257   */\n      dup3\n        /* \"#utility.yul\":239:246   */\n      dup5\n        /* \"#utility.yul\":235:258   */\n      sub\n        /* \"#utility.yul\":231:263   */\n      slt\n        /* \"#utility.yul\":228:347   */\n      iszero\n      tag_127\n      jumpi\n        /* \"#utility.yul\":266:345   */\n      tag_128\n      tag_129\n      jump\t// in\n    tag_128:\n        /* \"#utility.yul\":228:347   */\n    tag_127:\n        /* \"#utility.yul\":386:387   */\n      0x00\n        /* \"#utility.yul\":411:464   */\n      tag_130\n        /* \"#utility.yul\":456:463   */\n      dup5\n        /* \"#utility.yul\":447:453   */\n      dup3\n        /* \"#utility.yul\":436:445   */\n      dup6\n        /* \"#utility.yul\":432:454   */\n      add\n        /* \"#utility.yul\":411:464   */\n      tag_122\n      jump\t// in\n    tag_130:\n        /* \"#utility.yul\":401:464   */\n      swap2\n      pop\n        /* \"#utility.yul\":357:474   */\n      pop\n        /* \"#utility.yul\":152:481   */\n      swap3\n      swap2\n      pop\n      pop\n      jump\t// out\n        /* \"#utility.yul\":487:629   */\n    tag_131:\n        /* \"#utility.yul\":590:622   */\n      tag_133\n        /* \"#utility.yul\":616:621   */\n      dup2\n        /* \"#utility.yul\":590:622   */\n      tag_134\n      jump\t// in\n    tag_133:\n        /* \"#utility.yul\":585:588   */\n      dup3\n        /* \"#utility.yul\":578:623   */\n      mstore\n        /* \"#utility.yul\":487:629   */\n      pop\n      pop\n      jump\t// out\n        /* \"#utility.yul\":635:794   */\n    tag_135:\n        /* \"#utility.yul\":736:787   */\n      tag_137\n        /* \"#utility.yul\":781:786   */\n      dup2\n        /* \"#utility.yul\":736:787   */\n      tag_138\n      jump\t// in\n    tag_137:\n        /* \"#utility.yul\":731:734   */\n      dup3\n        /* \"#utility.yul\":724:788   */\n      mstore\n        /* \"#utility.yul\":635:794   */\n      pop\n      pop\n      jump\t// out\n        /* \"#utility.yul\":800:1166   */\n    tag_139:\n        /* \"#utility.yul\":942:945   */\n      0x00\n        /* \"#utility.yul\":963:1030   */\n      tag_141\n        /* \"#utility.yul\":1027:1029   */\n      0x15\n        /* \"#utility.yul\":1022:1025   */\n      dup4\n        /* \"#utility.yul\":963:1030   */\n      tag_142\n      jump\t// in\n    tag_141:\n        /* \"#utility.yul\":956:1030   */\n      swap2\n      pop\n        /* \"#utility.yul\":1039:1132   */\n      tag_143\n        /* \"#utility.yul\":1128:1131   */\n      dup3\n        /* \"#utility.yul\":1039:1132   */\n      tag_144\n      jump\t// in\n    tag_143:\n        /* \"#utility.yul\":1157:1159   */\n      0x20\n        /* \"#utility.yul\":1152:1155   */\n      dup3\n        /* \"#utility.yul\":1148:1160   */\n      add\n        /* \"#utility.yul\":1141:1160   */\n      swap1\n      pop\n        /* \"#utility.yul\":800:1166   */\n      swap2\n      swap1\n      pop\n      jump\t// out\n        /* \"#utility.yul\":1172:1538   */\n    tag_145:\n        /* \"#utility.yul\":1314:1317   */\n      0x00\n        /* \"#utility.yul\":1335:1402   */\n      tag_147\n        /* \"#utility.yul\":1399:1401   */\n      0x18\n        /* \"#utility.yul\":1394:1397   */\n      dup4\n        /* \"#utility.yul\":1335:1402   */\n      tag_142\n      jump\t// in\n    tag_147:\n        /* \"#utility.yul\":1328:1402   */\n      swap2\n      pop\n        /* \"#utility.yul\":1411:1504   */\n      tag_148\n        /* \"#utility.yul\":1500:1503   */\n      dup3\n        /* \"#utility.yul\":1411:1504   */\n      tag_149\n      jump\t// in\n    tag_148:\n        /* \"#utility.yul\":1529:1531   */\n      0x20\n        /* \"#utility.yul\":1524:1527   */\n      dup3\n        /* \"#utility.yul\":1520:1532   */\n      add\n        /* \"#utility.yul\":1513:1532   */\n      swap1\n      pop\n        /* \"#utility.yul\":1172:1538   */\n      swap2\n      swap1\n      pop\n      jump\t// out\n        /* \"#utility.yul\":1544:1910   */\n    tag_150:\n        /* \"#utility.yul\":1686:1689   */\n      0x00\n        /* \"#utility.yul\":1707:1774   */\n      tag_152\n        /* \"#utility.yul\":1771:1773   */\n      0x10\n        /* \"#utility.yul\":1766:1769   */\n      dup4\n        /* \"#utility.yul\":1707:1774   */\n      tag_142\n      jump\t// in\n    tag_152:\n        /* \"#utility.yul\":1700:1774   */\n      swap2\n      pop\n        /* \"#utility.yul\":1783:1876   */\n      tag_153\n        /* \"#utility.yul\":1872:1875   */\n      dup3\n        /* \"#utility.yul\":1783:1876   */\n      tag_154\n      jump\t// in\n    tag_153:\n        /* \"#utility.yul\":1901:1903   */\n      0x20\n        /* \"#utility.yul\":1896:1899   */\n      dup3\n        /* \"#utility.yul\":1892:1904   */\n      add\n        /* \"#utility.yul\":1885:1904   */\n      swap1\n      pop\n        /* \"#utility.yul\":1544:1910   */\n      swap2\n      swap1\n      pop\n      jump\t// out\n        /* \"#utility.yul\":1916:2282   */\n    tag_155:\n        /* \"#utility.yul\":2058:2061   */\n      0x00\n        /* \"#utility.yul\":2079:2146   */\n      tag_157\n        /* \"#utility.yul\":2143:2145   */\n      0x14\n        /* \"#utility.yul\":2138:2141   */\n      dup4\n        /* \"#utility.yul\":2079:2146   */\n      tag_142\n      jump\t// in\n    tag_157:\n        /* \"#utility.yul\":2072:2146   */\n      swap2\n      pop\n        /* \"#utility.yul\":2155:2248   */\n      tag_158\n        /* \"#utility.yul\":2244:2247   */\n      dup3\n        /* \"#utility.yul\":2155:2248   */\n      tag_159\n      jump\t// in\n    tag_158:\n        /* \"#utility.yul\":2273:2275   */\n      0x20\n        /* \"#utility.yul\":2268:2271   */\n      dup3\n        /* \"#utility.yul\":2264:2276   */\n      add\n        /* \"#utility.yul\":2257:2276   */\n      swap1\n      pop\n        /* \"#utility.yul\":1916:2282   */\n      swap2\n      swap1\n      pop\n      jump\t// out\n        /* \"#utility.yul\":2288:2654   */\n    tag_160:\n        /* \"#utility.yul\":2430:2433   */\n      0x00\n        /* \"#utility.yul\":2451:2518   */\n      tag_162\n        /* \"#utility.yul\":2515:2517   */\n      0x10\n        /* \"#utility.yul\":2510:2513   */\n      dup4\n        /* \"#utility.yul\":2451:2518   */\n      tag_142\n      jump\t// in\n    tag_162:\n        /* \"#utility.yul\":2444:2518   */\n      swap2\n      pop\n        /* \"#utility.yul\":2527:2620   */\n      tag_163\n        /* \"#utility.yul\":2616:2619   */\n      dup3\n        /* \"#utility.yul\":2527:2620   */\n      tag_164\n      jump\t// in\n    tag_163:\n        /* \"#utility.yul\":2645:2647   */\n      0x20\n        /* \"#utility.yul\":2640:2643   */\n      dup3\n        /* \"#utility.yul\":2636:2648   */\n      add\n        /* \"#utility.yul\":2629:2648   */\n      swap1\n      pop\n        /* \"#utility.yul\":2288:2654   */\n      swap2\n      swap1\n      pop\n      jump\t// out\n        /* \"#utility.yul\":2660:2778   */\n    tag_165:\n        /* \"#utility.yul\":2747:2771   */\n      tag_167\n        /* \"#utility.yul\":2765:2770   */\n      dup2\n        /* \"#utility.yul\":2747:2771   */\n      tag_168\n      jump\t// in\n    tag_167:\n        /* \"#utility.yul\":2742:2745   */\n      dup3\n        /* \"#utility.yul\":2735:2772   */\n      mstore\n        /* \"#utility.yul\":2660:2778   */\n      pop\n      pop\n      jump\t// out\n        /* \"#utility.yul\":2784:3038   */\n    tag_39:\n        /* \"#utility.yul\":2893:2897   */\n      0x00\n        /* \"#utility.yul\":2931:2933   */\n      0x20\n        /* \"#utility.yul\":2920:2929   */\n      dup3\n        /* \"#utility.yul\":2916:2934   */\n      add\n        /* \"#utility.yul\":2908:2934   */\n      swap1\n      pop\n        /* \"#utility.yul\":2944:3031   */\n      tag_170\n        /* \"#utility.yul\":3028:3029   */\n      0x00\n        /* \"#utility.yul\":3017:3026   */\n      dup4\n        /* \"#utility.yul\":3013:3030   */\n      add\n        /* \"#utility.yul\":3004:3010   */\n      dup5\n        /* \"#utility.yul\":2944:3031   */\n      tag_131\n      jump\t// in\n    tag_170:\n        /* \"#utility.yul\":2784:3038   */\n      swap3\n      swap2\n      pop\n      pop\n      jump\t// out\n        /* \"#utility.yul\":3044:3294   */\n    tag_34:\n        /* \"#utility.yul\":3151:3155   */\n      0x00\n        /* \"#utility.yul\":3189:3191   */\n      0x20\n        /* \"#utility.yul\":3178:3187   */\n      dup3\n        /* \"#utility.yul\":3174:3192   */\n      add\n        /* \"#utility.yul\":3166:3192   */\n      swap1\n      pop\n        /* \"#utility.yul\":3202:3287   */\n      tag_172\n        /* \"#utility.yul\":3284:3285   */\n      0x00\n        /* \"#utility.yul\":3273:3282   */\n      dup4\n        /* \"#utility.yul\":3269:3286   */\n      add\n        /* \"#utility.yul\":3260:3266   */\n      dup5\n        /* \"#utility.yul\":3202:3287   */\n      tag_135\n      jump\t// in\n    tag_172:\n        /* \"#utility.yul\":3044:3294   */\n      swap3\n      swap2\n      pop\n      pop\n      jump\t// out\n        /* \"#utility.yul\":3300:3719   */\n    tag_91:\n        /* \"#utility.yul\":3466:3470   */\n      0x00\n        /* \"#utility.yul\":3504:3506   */\n      0x20\n        /* \"#utility.yul\":3493:3502   */\n      dup3\n        /* \"#utility.yul\":3489:3507   */\n      add\n        /* \"#utility.yul\":3481:3507   */\n      swap1\n      pop\n        /* \"#utility.yul\":3553:3562   */\n      dup2\n        /* \"#utility.yul\":3547:3551   */\n      dup2\n        /* \"#utility.yul\":3543:3563   */\n      sub\n        /* \"#utility.yul\":3539:3540   */\n      0x00\n        /* \"#utility.yul\":3528:3537   */\n      dup4\n        /* \"#utility.yul\":3524:3541   */\n      add\n        /* \"#utility.yul\":3517:3564   */\n      mstore\n        /* \"#utility.yul\":3581:3712   */\n      tag_174\n        /* \"#utility.yul\":3707:3711   */\n      dup2\n        /* \"#utility.yul\":3581:3712   */\n      tag_139\n      jump\t// in\n    tag_174:\n        /* \"#utility.yul\":3573:3712   */\n      swap1\n      pop\n        /* \"#utility.yul\":3300:3719   */\n      swap2\n      swap1\n      pop\n      jump\t// out\n        /* \"#utility.yul\":3725:4144   */\n    tag_83:\n        /* \"#utility.yul\":3891:3895   */\n      0x00\n        /* \"#utility.yul\":3929:3931   */\n      0x20\n        /* \"#utility.yul\":3918:3927   */\n      dup3\n        /* \"#utility.yul\":3914:3932   */\n      add\n        /* \"#utility.yul\":3906:3932   */\n      swap1\n      pop\n        /* \"#utility.yul\":3978:3987   */\n      dup2\n        /* \"#utility.yul\":3972:3976   */\n      dup2\n        /* \"#utility.yul\":3968:3988   */\n      sub\n        /* \"#utility.yul\":3964:3965   */\n      0x00\n        /* \"#utility.yul\":3953:3962   */\n      dup4\n        /* \"#utility.yul\":3949:3966   */\n      add\n        /* \"#utility.yul\":3942:3989   */\n      mstore\n        /* \"#utility.yul\":4006:4137   */\n      tag_176\n        /* \"#utility.yul\":4132:4136   */\n      dup2\n        /* \"#utility.yul\":4006:4137   */\n      tag_145\n      jump\t// in\n    tag_176:\n        /* \"#utility.yul\":3998:4137   */\n      swap1\n      pop\n        /* \"#utility.yul\":3725:4144   */\n      swap2\n      swap1\n      pop\n      jump\t// out\n        /* \"#utility.yul\":4150:4569   */\n    tag_62:\n        /* \"#utility.yul\":4316:4320   */\n      0x00\n        /* \"#utility.yul\":4354:4356   */\n      0x20\n        /* \"#utility.yul\":4343:4352   */\n      dup3\n        /* \"#utility.yul\":4339:4357   */\n      add\n        /* \"#utility.yul\":4331:4357   */\n      swap1\n      pop\n        /* \"#utility.yul\":4403:4412   */\n      dup2\n        /* \"#utility.yul\":4397:4401   */\n      dup2\n        /* \"#utility.yul\":4393:4413   */\n      sub\n        /* \"#utility.yul\":4389:4390   */\n      0x00\n        /* \"#utility.yul\":4378:4387   */\n      dup4\n        /* \"#utility.yul\":4374:4391   */\n      add\n        /* \"#utility.yul\":4367:4414   */\n      mstore\n        /* \"#utility.yul\":4431:4562   */\n      tag_178\n        /* \"#utility.yul\":4557:4561   */\n      dup2\n        /* \"#utility.yul\":4431:4562   */\n      tag_150\n      jump\t// in\n    tag_178:\n        /* \"#utility.yul\":4423:4562   */\n      swap1\n      pop\n        /* \"#utility.yul\":4150:4569   */\n      swap2\n      swap1\n      pop\n      jump\t// out\n        /* \"#utility.yul\":4575:4994   */\n    tag_78:\n        /* \"#utility.yul\":4741:4745   */\n      0x00\n        /* \"#utility.yul\":4779:4781   */\n      0x20\n        /* \"#utility.yul\":4768:4777   */\n      dup3\n        /* \"#utility.yul\":4764:4782   */\n      add\n        /* \"#utility.yul\":4756:4782   */\n      swap1\n      pop\n        /* \"#utility.yul\":4828:4837   */\n      dup2\n        /* \"#utility.yul\":4822:4826   */\n      dup2\n        /* \"#utility.yul\":4818:4838   */\n      sub\n        /* \"#utility.yul\":4814:4815   */\n      0x00\n        /* \"#utility.yul\":4803:4812   */\n      dup4\n        /* \"#utility.yul\":4799:4816   */\n      add\n        /* \"#utility.yul\":4792:4839   */\n      mstore\n        /* \"#utility.yul\":4856:4987   */\n      tag_180\n        /* \"#utility.yul\":4982:4986   */\n      dup2\n        /* \"#utility.yul\":4856:4987   */\n      tag_155\n      jump\t// in\n    tag_180:\n        /* \"#utility.yul\":4848:4987   */\n      swap1\n      pop\n        /* \"#utility.yul\":4575:4994   */\n      swap2\n      swap1\n      pop\n      jump\t// out\n        /* \"#utility.yul\":5000:5419   */\n    tag_75:\n        /* \"#utility.yul\":5166:5170   */\n      0x00\n        /* \"#utility.yul\":5204:5206   */\n      0x20\n        /* \"#utility.yul\":5193:5202   */\n      dup3\n        /* \"#utility.yul\":5189:5207   */\n      add\n        /* \"#utility.yul\":5181:5207   */\n      swap1\n      pop\n        /* \"#utility.yul\":5253:5262   */\n      dup2\n        /* \"#utility.yul\":5247:5251   */\n      dup2\n        /* \"#utility.yul\":5243:5263   */\n      sub\n        /* \"#utility.yul\":5239:5240   */\n      0x00\n        /* \"#utility.yul\":5228:5237   */\n      dup4\n        /* \"#utility.yul\":5224:5241   */\n      add\n        /* \"#utility.yul\":5217:5264   */\n      mstore\n        /* \"#utility.yul\":5281:5412   */\n      tag_182\n        /* \"#utility.yul\":5407:5411   */\n      dup2\n        /* \"#utility.yul\":5281:5412   */\n      tag_160\n      jump\t// in\n    tag_182:\n        /* \"#utility.yul\":5273:5412   */\n      swap1\n      pop\n        /* \"#utility.yul\":5000:5419   */\n      swap2\n      swap1\n      pop\n      jump\t// out\n        /* \"#utility.yul\":5425:5647   */\n    tag_23:\n        /* \"#utility.yul\":5518:5522   */\n      0x00\n        /* \"#utility.yul\":5556:5558   */\n      0x20\n        /* \"#utility.yul\":5545:5554   */\n      dup3\n        /* \"#utility.yul\":5541:5559   */\n      add\n        /* \"#utility.yul\":5533:5559   */\n      swap1\n      pop\n        /* \"#utility.yul\":5569:5640   */\n      tag_184\n        /* \"#utility.yul\":5637:5638   */\n      0x00\n        /* \"#utility.yul\":5626:5635   */\n      dup4\n        /* \"#utility.yul\":5622:5639   */\n      add\n        /* \"#utility.yul\":5613:5619   */\n      dup5\n        /* \"#utility.yul\":5569:5640   */\n      tag_165\n      jump\t// in\n    tag_184:\n        /* \"#utility.yul\":5425:5647   */\n      swap3\n      swap2\n      pop\n      pop\n      jump\t// out\n        /* \"#utility.yul\":5734:5903   */\n    tag_142:\n        /* \"#utility.yul\":5818:5829   */\n      0x00\n        /* \"#utility.yul\":5852:5858   */\n      dup3\n        /* \"#utility.yul\":5847:5850   */\n      dup3\n        /* \"#utility.yul\":5840:5859   */\n      mstore\n        /* \"#utility.yul\":5892:5896   */\n      0x20\n        /* \"#utility.yul\":5887:5890   */\n      dup3\n        /* \"#utility.yul\":5883:5897   */\n      add\n        /* \"#utility.yul\":5868:5897   */\n      swap1\n      pop\n        /* \"#utility.yul\":5734:5903   */\n      swap3\n      swap2\n      pop\n      pop\n      jump\t// out\n        /* \"#utility.yul\":5909:6214   */\n    tag_80:\n        /* \"#utility.yul\":5949:5952   */\n      0x00\n        /* \"#utility.yul\":5968:5988   */\n      tag_189\n        /* \"#utility.yul\":5986:5987   */\n      dup3\n        /* \"#utility.yul\":5968:5988   */\n      tag_168\n      jump\t// in\n    tag_189:\n        /* \"#utility.yul\":5963:5988   */\n      swap2\n      pop\n        /* \"#utility.yul\":6002:6022   */\n      tag_190\n        /* \"#utility.yul\":6020:6021   */\n      dup4\n        /* \"#utility.yul\":6002:6022   */\n      tag_168\n      jump\t// in\n    tag_190:\n        /* \"#utility.yul\":5997:6022   */\n      swap3\n      pop\n        /* \"#utility.yul\":6156:6157   */\n      dup3\n        /* \"#utility.yul\":6088:6154   */\n      0xffffffffffffffffffffffffffffffffffffffffffffffffffffffffffffffff\n        /* \"#utility.yul\":6084:6158   */\n      sub\n        /* \"#utility.yul\":6081:6082   */\n      dup3\n        /* \"#utility.yul\":6078:6159   */\n      gt\n        /* \"#utility.yul\":6075:6182   */\n      iszero\n      tag_191\n      jumpi\n        /* \"#utility.yul\":6162:6180   */\n      tag_192\n      tag_193\n      jump\t// in\n    tag_192:\n        /* \"#utility.yul\":6075:6182   */\n    tag_191:\n        /* \"#utility.yul\":6206:6207   */\n      dup3\n        /* \"#utility.yul\":6203:6204   */\n      dup3\n        /* \"#utility.yul\":6199:6208   */\n      add\n        /* \"#utility.yul\":6192:6208   */\n      swap1\n      pop\n        /* \"#utility.yul\":5909:6214   */\n      swap3\n      swap2\n      pop\n      pop\n      jump\t// out\n        /* \"#utility.yul\":6220:6411   */\n    tag_114:\n        /* \"#utility.yul\":6260:6264   */\n      0x00\n        /* \"#utility.yul\":6280:6300   */\n      tag_195\n        /* \"#utility.yul\":6298:6299   */\n      dup3\n        /* \"#utility.yul\":6280:6300   */\n      tag_168\n      jump\t// in\n    tag_195:\n        /* \"#utility.yul\":6275:6300   */\n      swap2\n      pop\n        /* \"#utility.yul\":6314:6334   */\n      tag_196\n        /* \"#utility.yul\":6332:6333   */\n      dup4\n        /* \"#utility.yul\":6314:6334   */\n      tag_168\n      jump\t// in\n    tag_196:\n        /* \"#utility.yul\":6309:6334   */\n      swap3\n      pop\n        /* \"#utility.yul\":6353:6354   */\n      dup3\n        /* \"#utility.yul\":6350:6351   */\n      dup3\n        /* \"#utility.yul\":6347:6355   */\n      lt\n        /* \"#utility.yul\":6344:6378   */\n      iszero\n      tag_197\n      jumpi\n        /* \"#utility.yul\":6358:6376   */\n      tag_198\n      tag_193\n      jump\t// in\n    tag_198:\n        /* \"#utility.yul\":6344:6378   */\n    tag_197:\n        /* \"#utility.yul\":6403:6404   */\n      dup3\n        /* \"#utility.yul\":6400:6401   */\n      dup3\n        /* \"#utility.yul\":6396:6405   */\n      sub\n        /* \"#utility.yul\":6388:6405   */\n      swap1\n      pop\n        /* \"#utility.yul\":6220:6411   */\n      swap3\n      swap2\n      pop\n      pop\n      jump\t// out\n        /* \"#utility.yul\":6417:6513   */\n    tag_199:\n        /* \"#utility.yul\":6454:6461   */\n      0x00\n        /* \"#utility.yul\":6483:6507   */\n      tag_201\n        /* \"#utility.yul\":6501:6506   */\n      dup3\n        /* \"#utility.yul\":6483:6507   */\n      tag_202\n      jump\t// in\n    tag_201:\n        /* \"#utility.yul\":6472:6507   */\n      swap1\n      pop\n        /* \"#utility.yul\":6417:6513   */\n      swap2\n      swap1\n      pop\n      jump\t// out\n        /* \"#utility.yul\":6519:6623   */\n    tag_134:\n        /* \"#utility.yul\":6564:6571   */\n      0x00\n        /* \"#utility.yul\":6593:6617   */\n      tag_204\n        /* \"#utility.yul\":6611:6616   */\n      dup3\n        /* \"#utility.yul\":6593:6617   */\n      tag_202\n      jump\t// in\n    tag_204:\n        /* \"#utility.yul\":6582:6617   */\n      swap1\n      pop\n        /* \"#utility.yul\":6519:6623   */\n      swap2\n      swap1\n      pop\n      jump\t// out\n        /* \"#utility.yul\":6629:6772   */\n    tag_205:\n        /* \"#utility.yul\":6682:6689   */\n      0x00\n        /* \"#utility.yul\":6711:6716   */\n      dup2\n        /* \"#utility.yul\":6700:6716   */\n      swap1\n      pop\n        /* \"#utility.yul\":6717:6766   */\n      tag_207\n        /* \"#utility.yul\":6760:6765   */\n      dup3\n        /* \"#utility.yul\":6717:6766   */\n      tag_208\n      jump\t// in\n    tag_207:\n        /* \"#utility.yul\":6629:6772   */\n      swap2\n      swap1\n      pop\n      jump\t// out\n        /* \"#utility.yul\":6778:6904   */\n    tag_202:\n        /* \"#utility.yul\":6815:6822   */\n      0x00\n        /* \"#utility.yul\":6855:6897   */\n      0xffffffffffffffffffffffffffffffffffffffff\n        /* \"#utility.yul\":6848:6853   */\n      dup3\n        /* \"#utility.yul\":6844:6898   */\n      and\n        /* \"#utility.yul\":6833:6898   */\n      swap1\n      pop\n        /* \"#utility.yul\":6778:6904   */\n      swap2\n      swap1\n      pop\n      jump\t// out\n        /* \"#utility.yul\":6910:6987   */\n    tag_168:\n        /* \"#utility.yul\":6947:6954   */\n      0x00\n        /* \"#utility.yul\":6976:6981   */\n      dup2\n        /* \"#utility.yul\":6965:6981   */\n      swap1\n      pop\n        /* \"#utility.yul\":6910:6987   */\n      swap2\n      swap1\n      pop\n      jump\t// out\n        /* \"#utility.yul\":6993:7136   */\n    tag_138:\n        /* \"#utility.yul\":7057:7066   */\n      0x00\n        /* \"#utility.yul\":7090:7130   */\n      tag_212\n        /* \"#utility.yul\":7124:7129   */\n      dup3\n        /* \"#utility.yul\":7090:7130   */\n      tag_205\n      jump\t// in\n    tag_212:\n        /* \"#utility.yul\":7077:7130   */\n      swap1\n      pop\n        /* \"#utility.yul\":6993:7136   */\n      swap2\n      swap1\n      pop\n      jump\t// out\n        /* \"#utility.yul\":7142:7322   */\n    tag_193:\n        /* \"#utility.yul\":7190:7267   */\n      0x4e487b7100000000000000000000000000000000000000000000000000000000\n        /* \"#utility.yul\":7187:7188   */\n      0x00\n        /* \"#utility.yul\":7180:7268   */\n      mstore\n        /* \"#utility.yul\":7287:7291   */\n      0x11\n        /* \"#utility.yul\":7284:7285   */\n      0x04\n        /* \"#utility.yul\":7277:7292   */\n      mstore\n        /* \"#utility.yul\":7311:7315   */\n      0x24\n        /* \"#utility.yul\":7308:7309   */\n      0x00\n        /* \"#utility.yul\":7301:7316   */\n      revert\n        /* \"#utility.yul\":7328:7508   */\n    tag_70:\n        /* \"#utility.yul\":7376:7453   */\n      0x4e487b7100000000000000000000000000000000000000000000000000000000\n        /* \"#utility.yul\":7373:7374   */\n      0x00\n        /* \"#utility.yul\":7366:7454   */\n      mstore\n        /* \"#utility.yul\":7473:7477   */\n      0x21\n        /* \"#utility.yul\":7470:7471   */\n      0x04\n        /* \"#utility.yul\":7463:7478   */\n      mstore\n        /* \"#utility.yul\":7497:7501   */\n      0x24\n        /* \"#utility.yul\":7494:7495   */\n      0x00\n        /* \"#utility.yul\":7487:7502   */\n      revert\n        /* \"#utility.yul\":7637:7754   */\n    tag_129:\n        /* \"#utility.yul\":7746:7747   */\n      0x00\n        /* \"#utility.yul\":7743:7744   */\n      dup1\n        /* \"#utility.yul\":7736:7748   */\n      revert\n        /* \"#utility.yul\":7760:7931   */\n    tag_144:\n        /* \"#utility.yul\":7900:7923   */\n      0x596f7520617265206e6f7420746865206f776e65720000000000000000000000\n        /* \"#utility.yul\":7896:7897   */\n      0x00\n        /* \"#utility.yul\":7888:7894   */\n      dup3\n        /* \"#utility.yul\":7884:7898   */\n      add\n        /* \"#utility.yul\":7877:7924   */\n      mstore\n        /* \"#utility.yul\":7760:7931   */\n      pop\n      jump\t// out\n        /* \"#utility.yul\":7937:8111   */\n    tag_149:\n        /* \"#utility.yul\":8077:8103   */\n      0x4c657373207468616e206869676865737470617961626c650000000000000000\n        /* \"#utility.yul\":8073:8074   */\n      0x00\n        /* \"#utility.yul\":8065:8071   */\n      dup3\n        /* \"#utility.yul\":8061:8075   */\n      add\n        /* \"#utility.yul\":8054:8104   */\n      mstore\n        /* \"#utility.yul\":7937:8111   */\n      pop\n      jump\t// out\n        /* \"#utility.yul\":8117:8283   */\n    tag_154:\n        /* \"#utility.yul\":8257:8275   */\n      0x4f776e65722063616e6e6f742062696400000000000000000000000000000000\n        /* \"#utility.yul\":8253:8254   */\n      0x00\n        /* \"#utility.yul\":8245:8251   */\n      dup3\n        /* \"#utility.yul\":8241:8255   */\n      add\n        /* \"#utility.yul\":8234:8276   */\n      mstore\n        /* \"#utility.yul\":8117:8283   */\n      pop\n      jump\t// out\n        /* \"#utility.yul\":8289:8459   */\n    tag_159:\n        /* \"#utility.yul\":8429:8451   */\n      0x4574686572206973206c657373207468616e2031000000000000000000000000\n        /* \"#utility.yul\":8425:8426   */\n      0x00\n        /* \"#utility.yul\":8417:8423   */\n      dup3\n        /* \"#utility.yul\":8413:8427   */\n      add\n        /* \"#utility.yul\":8406:8452   */\n      mstore\n        /* \"#utility.yul\":8289:8459   */\n      pop\n      jump\t// out\n        /* \"#utility.yul\":8465:8631   */\n    tag_164:\n        /* \"#utility.yul\":8605:8623   */\n      0x41756374696f6e20697320656e64656400000000000000000000000000000000\n        /* \"#utility.yul\":8601:8602   */\n      0x00\n        /* \"#utility.yul\":8593:8599   */\n      dup3\n        /* \"#utility.yul\":8589:8603   */\n      add\n        /* \"#utility.yul\":8582:8624   */\n      mstore\n        /* \"#utility.yul\":8465:8631   */\n      pop\n      jump\t// out\n        /* \"#utility.yul\":8637:8758   */\n    tag_208:\n        /* \"#utility.yul\":8726:8727   */\n      0x04\n        /* \"#utility.yul\":8719:8724   */\n      dup2\n        /* \"#utility.yul\":8716:8728   */\n      lt\n        /* \"#utility.yul\":8706:8752   */\n      tag_224\n      jumpi\n        /* \"#utility.yul\":8732:8750   */\n      tag_225\n      tag_70\n      jump\t// in\n    tag_225:\n        /* \"#utility.yul\":8706:8752   */\n    tag_224:\n        /* \"#utility.yul\":8637:8758   */\n      pop\n      jump\t// out\n        /* \"#utility.yul\":8764:8886   */\n    tag_125:\n        /* \"#utility.yul\":8837:8861   */\n      tag_227\n        /* \"#utility.yul\":8855:8860   */\n      dup2\n        /* \"#utility.yul\":8837:8861   */\n      tag_199\n      jump\t// in\n    tag_227:\n        /* \"#utility.yul\":8830:8835   */\n      dup2\n        /* \"#utility.yul\":8827:8862   */\n      eq\n        /* \"#utility.yul\":8817:8880   */\n      tag_228\n      jumpi\n        /* \"#utility.yul\":8876:8877   */\n      0x00\n        /* \"#utility.yul\":8873:8874   */\n      dup1\n        /* \"#utility.yul\":8866:8878   */\n      revert\n        /* \"#utility.yul\":8817:8880   */\n    tag_228:\n        /* \"#utility.yul\":8764:8886   */\n      pop\n      jump\t// out\n\n    auxdata: 0xa26469706673582212202483c03132220d6d12db016cdb1c2cbc55c0265fd97a842b83083c45721c994d64736f6c63430008070033\n}\n",
				"bytecode": {
					"linkReferences": {},
					"object": "608060405234801561001057600080fd5b50336000806101000a81548173ffffffffffffffffffffffffffffffffffffffff021916908373ffffffffffffffffffffffffffffffffffffffff1602179055506001600360006101000a81548160ff021916908360038111156100775761007661013b565b5b02179055504360018190555060f060015461009291906100ac565b600281905550670de0b6b3a764000060058190555061016a565b60006100b782610102565b91506100c283610102565b9250827fffffffffffffffffffffffffffffffffffffffffffffffffffffffffffffffff038211156100f7576100f661010c565b5b828201905092915050565b6000819050919050565b7f4e487b7100000000000000000000000000000000000000000000000000000000600052601160045260246000fd5b7f4e487b7100000000000000000000000000000000000000000000000000000000600052602160045260246000fd5b610f82806101796000396000f3fe60806040526004361061009c5760003560e01c806391f901571161006457806391f90157146101555780639d957d4514610180578063a118be02146101ab578063b3cc167a146101d6578063f3fb05df14610201578063f77282ab1461022c5761009c565b80631998aeef146100a15780632352f320146100ab5780634f5150ca146100c257806362ea82db146100ed5780637fb450991461012a575b600080fd5b6100a9610243565b005b3480156100b757600080fd5b506100c06105b3565b005b3480156100ce57600080fd5b506100d761066d565b6040516100e49190610cc8565b60405180910390f35b3480156100f957600080fd5b50610114600480360381019061010f9190610ae9565b610673565b6040516101219190610cc8565b60405180910390f35b34801561013657600080fd5b5061013f61068b565b60405161014c9190610c0d565b60405180910390f35b34801561016157600080fd5b5061016a61069e565b6040516101779190610bf2565b60405180910390f35b34801561018c57600080fd5b506101956106c4565b6040516101a29190610cc8565b60405180910390f35b3480156101b757600080fd5b506101c06106ca565b6040516101cd9190610cc8565b60405180910390f35b3480156101e257600080fd5b506101eb6106d0565b6040516101f89190610cc8565b60405180910390f35b34801561020d57600080fd5b506102166106d6565b6040516102239190610bf2565b60405180910390f35b34801561023857600080fd5b506102416106fa565b005b60008054906101000a900473ffffffffffffffffffffffffffffffffffffffff1673ffffffffffffffffffffffffffffffffffffffff163373ffffffffffffffffffffffffffffffffffffffff1614156102d2576040517f08c379a00000000000000000000000000000000000000000000000000000000081526004016102c990610c68565b60405180910390fd5b6001544310156102e157600080fd5b60025443106102ef57600080fd5b6001600381111561030357610302610e20565b5b600360009054906101000a900460ff16600381111561032557610324610e20565b5b14610365576040517f08c379a000000000000000000000000000000000000000000000000000000000815260040161035c90610ca8565b60405180910390fd5b670de0b6b3a76400003410156103b0576040517f08c379a00000000000000000000000000000000000000000000000000000000081526004016103a790610c88565b60405180910390fd5b600034600760003373ffffffffffffffffffffffffffffffffffffffff1673ffffffffffffffffffffffffffffffffffffffff168152602001908152602001600020546103fd9190610cf4565b90506004548111610443576040517f08c379a000000000000000000000000000000000000000000000000000000000815260040161043a90610c48565b60405180910390fd5b80600760003373ffffffffffffffffffffffffffffffffffffffff1673ffffffffffffffffffffffffffffffffffffffff1681526020019081526020016000208190555060076000600660009054906101000a900473ffffffffffffffffffffffffffffffffffffffff1673ffffffffffffffffffffffffffffffffffffffff1673ffffffffffffffffffffffffffffffffffffffff168152602001908152602001600020548110156105b0576105688160055460076000600660009054906101000a900473ffffffffffffffffffffffffffffffffffffffff1673ffffffffffffffffffffffffffffffffffffffff1673ffffffffffffffffffffffffffffffffffffffff168152602001908152602001600020546105639190610cf4565b610ab9565b60048190555033600660006101000a81548173ffffffffffffffffffffffffffffffffffffffff021916908373ffffffffffffffffffffffffffffffffffffffff1602179055505b50565b60008054906101000a900473ffffffffffffffffffffffffffffffffffffffff1673ffffffffffffffffffffffffffffffffffffffff163373ffffffffffffffffffffffffffffffffffffffff1614610641576040517f08c379a000000000000000000000000000000000000000000000000000000000815260040161063890610c28565b60405180910390fd5b60038060006101000a81548160ff0219169083600381111561066657610665610e20565b5b0217905550565b60045481565b60076020528060005260406000206000915090505481565b600360009054906101000a900460ff1681565b600660009054906101000a900473ffffffffffffffffffffffffffffffffffffffff1681565b60025481565b60015481565b60055481565b60008054906101000a900473ffffffffffffffffffffffffffffffffffffffff1681565b60038081111561070d5761070c610e20565b5b600360009054906101000a900460ff16600381111561072f5761072e610e20565b5b148061073c575060025443115b61074557600080fd5b60008054906101000a900473ffffffffffffffffffffffffffffffffffffffff1673ffffffffffffffffffffffffffffffffffffffff163373ffffffffffffffffffffffffffffffffffffffff1614806107de57506000600760003373ffffffffffffffffffffffffffffffffffffffff1673ffffffffffffffffffffffffffffffffffffffff16815260200190815260200160002054115b6107e757600080fd5b6000806003808111156107fd576107fc610e20565b5b600360009054906101000a900460ff16600381111561081f5761081e610e20565b5b141561086f57339150600760003373ffffffffffffffffffffffffffffffffffffffff1673ffffffffffffffffffffffffffffffffffffffff168152602001908152602001600020549050610a29565b60008054906101000a900473ffffffffffffffffffffffffffffffffffffffff1673ffffffffffffffffffffffffffffffffffffffff163373ffffffffffffffffffffffffffffffffffffffff1614156108f05760008054906101000a900473ffffffffffffffffffffffffffffffffffffffff1691506004549050610a28565b600660009054906101000a900473ffffffffffffffffffffffffffffffffffffffff1673ffffffffffffffffffffffffffffffffffffffff163373ffffffffffffffffffffffffffffffffffffffff1614156109e157600660009054906101000a900473ffffffffffffffffffffffffffffffffffffffff16915060045460076000600660009054906101000a900473ffffffffffffffffffffffffffffffffffffffff1673ffffffffffffffffffffffffffffffffffffffff1673ffffffffffffffffffffffffffffffffffffffff168152602001908152602001600020546109da9190610d4a565b9050610a27565b339150600760003373ffffffffffffffffffffffffffffffffffffffff1673ffffffffffffffffffffffffffffffffffffffff1681526020019081526020016000205490505b5b5b6000600760003373ffffffffffffffffffffffffffffffffffffffff1673ffffffffffffffffffffffffffffffffffffffff168152602001908152602001600020819055508173ffffffffffffffffffffffffffffffffffffffff166108fc829081150290604051600060405180830381858888f19350505050158015610ab4573d6000803e3d6000fd5b505050565b6000818311610aca57829050610ace565b8190505b92915050565b600081359050610ae381610f35565b92915050565b600060208284031215610aff57610afe610e4f565b5b6000610b0d84828501610ad4565b91505092915050565b610b1f81610d90565b82525050565b610b2e81610ddf565b82525050565b6000610b41601583610ce3565b9150610b4c82610e54565b602082019050919050565b6000610b64601883610ce3565b9150610b6f82610e7d565b602082019050919050565b6000610b87601083610ce3565b9150610b9282610ea6565b602082019050919050565b6000610baa601483610ce3565b9150610bb582610ecf565b602082019050919050565b6000610bcd601083610ce3565b9150610bd882610ef8565b602082019050919050565b610bec81610dd5565b82525050565b6000602082019050610c076000830184610b16565b92915050565b6000602082019050610c226000830184610b25565b92915050565b60006020820190508181036000830152610c4181610b34565b9050919050565b60006020820190508181036000830152610c6181610b57565b9050919050565b60006020820190508181036000830152610c8181610b7a565b9050919050565b60006020820190508181036000830152610ca181610b9d565b9050919050565b60006020820190508181036000830152610cc181610bc0565b9050919050565b6000602082019050610cdd6000830184610be3565b92915050565b600082825260208201905092915050565b6000610cff82610dd5565b9150610d0a83610dd5565b9250827fffffffffffffffffffffffffffffffffffffffffffffffffffffffffffffffff03821115610d3f57610d3e610df1565b5b828201905092915050565b6000610d5582610dd5565b9150610d6083610dd5565b925082821015610d7357610d72610df1565b5b828203905092915050565b6000610d8982610db5565b9050919050565b6000610d9b82610db5565b9050919050565b6000819050610db082610f21565b919050565b600073ffffffffffffffffffffffffffffffffffffffff82169050919050565b6000819050919050565b6000610dea82610da2565b9050919050565b7f4e487b7100000000000000000000000000000000000000000000000000000000600052601160045260246000fd5b7f4e487b7100000000000000000000000000000000000000000000000000000000600052602160045260246000fd5b600080fd5b7f596f7520617265206e6f7420746865206f776e65720000000000000000000000600082015250565b7f4c657373207468616e206869676865737470617961626c650000000000000000600082015250565b7f4f776e65722063616e6e6f742062696400000000000000000000000000000000600082015250565b7f4574686572206973206c657373207468616e2031000000000000000000000000600082015250565b7f41756374696f6e20697320656e64656400000000000000000000000000000000600082015250565b60048110610f3257610f31610e20565b5b50565b610f3e81610d7e565b8114610f4957600080fd5b5056fea26469706673582212202483c03132220d6d12db016cdb1c2cbc55c0265fd97a842b83083c45721c994d64736f6c63430008070033",
					"opcodes": "PUSH1 0x80 PUSH1 0x40 MSTORE CALLVALUE DUP1 ISZERO PUSH2 0x10 JUMPI PUSH1 0x0 DUP1 REVERT JUMPDEST POP CALLER PUSH1 0x0 DUP1 PUSH2 0x100 EXP DUP2 SLOAD DUP2 PUSH20 0xFFFFFFFFFFFFFFFFFFFFFFFFFFFFFFFFFFFFFFFF MUL NOT AND SWAP1 DUP4 PUSH20 0xFFFFFFFFFFFFFFFFFFFFFFFFFFFFFFFFFFFFFFFF AND MUL OR SWAP1 SSTORE POP PUSH1 0x1 PUSH1 0x3 PUSH1 0x0 PUSH2 0x100 EXP DUP2 SLOAD DUP2 PUSH1 0xFF MUL NOT AND SWAP1 DUP4 PUSH1 0x3 DUP2 GT ISZERO PUSH2 0x77 JUMPI PUSH2 0x76 PUSH2 0x13B JUMP JUMPDEST JUMPDEST MUL OR SWAP1 SSTORE POP NUMBER PUSH1 0x1 DUP2 SWAP1 SSTORE POP PUSH1 0xF0 PUSH1 0x1 SLOAD PUSH2 0x92 SWAP2 SWAP1 PUSH2 0xAC JUMP JUMPDEST PUSH1 0x2 DUP2 SWAP1 SSTORE POP PUSH8 0xDE0B6B3A7640000 PUSH1 0x5 DUP2 SWAP1 SSTORE POP PUSH2 0x16A JUMP JUMPDEST PUSH1 0x0 PUSH2 0xB7 DUP3 PUSH2 0x102 JUMP JUMPDEST SWAP2 POP PUSH2 0xC2 DUP4 PUSH2 0x102 JUMP JUMPDEST SWAP3 POP DUP3 PUSH32 0xFFFFFFFFFFFFFFFFFFFFFFFFFFFFFFFFFFFFFFFFFFFFFFFFFFFFFFFFFFFFFFFF SUB DUP3 GT ISZERO PUSH2 0xF7 JUMPI PUSH2 0xF6 PUSH2 0x10C JUMP JUMPDEST JUMPDEST DUP3 DUP3 ADD SWAP1 POP SWAP3 SWAP2 POP POP JUMP JUMPDEST PUSH1 0x0 DUP2 SWAP1 POP SWAP2 SWAP1 POP JUMP JUMPDEST PUSH32 0x4E487B7100000000000000000000000000000000000000000000000000000000 PUSH1 0x0 MSTORE PUSH1 0x11 PUSH1 0x4 MSTORE PUSH1 0x24 PUSH1 0x0 REVERT JUMPDEST PUSH32 0x4E487B7100000000000000000000000000000000000000000000000000000000 PUSH1 0x0 MSTORE PUSH1 0x21 PUSH1 0x4 MSTORE PUSH1 0x24 PUSH1 0x0 REVERT JUMPDEST PUSH2 0xF82 DUP1 PUSH2 0x179 PUSH1 0x0 CODECOPY PUSH1 0x0 RETURN INVALID PUSH1 0x80 PUSH1 0x40 MSTORE PUSH1 0x4 CALLDATASIZE LT PUSH2 0x9C JUMPI PUSH1 0x0 CALLDATALOAD PUSH1 0xE0 SHR DUP1 PUSH4 0x91F90157 GT PUSH2 0x64 JUMPI DUP1 PUSH4 0x91F90157 EQ PUSH2 0x155 JUMPI DUP1 PUSH4 0x9D957D45 EQ PUSH2 0x180 JUMPI DUP1 PUSH4 0xA118BE02 EQ PUSH2 0x1AB JUMPI DUP1 PUSH4 0xB3CC167A EQ PUSH2 0x1D6 JUMPI DUP1 PUSH4 0xF3FB05DF EQ PUSH2 0x201 JUMPI DUP1 PUSH4 0xF77282AB EQ PUSH2 0x22C JUMPI PUSH2 0x9C JUMP JUMPDEST DUP1 PUSH4 0x1998AEEF EQ PUSH2 0xA1 JUMPI DUP1 PUSH4 0x2352F320 EQ PUSH2 0xAB JUMPI DUP1 PUSH4 0x4F5150CA EQ PUSH2 0xC2 JUMPI DUP1 PUSH4 0x62EA82DB EQ PUSH2 0xED JUMPI DUP1 PUSH4 0x7FB45099 EQ PUSH2 0x12A JUMPI JUMPDEST PUSH1 0x0 DUP1 REVERT JUMPDEST PUSH2 0xA9 PUSH2 0x243 JUMP JUMPDEST STOP JUMPDEST CALLVALUE DUP1 ISZERO PUSH2 0xB7 JUMPI PUSH1 0x0 DUP1 REVERT JUMPDEST POP PUSH2 0xC0 PUSH2 0x5B3 JUMP JUMPDEST STOP JUMPDEST CALLVALUE DUP1 ISZERO PUSH2 0xCE JUMPI PUSH1 0x0 DUP1 REVERT JUMPDEST POP PUSH2 0xD7 PUSH2 0x66D JUMP JUMPDEST PUSH1 0x40 MLOAD PUSH2 0xE4 SWAP2 SWAP1 PUSH2 0xCC8 JUMP JUMPDEST PUSH1 0x40 MLOAD DUP1 SWAP2 SUB SWAP1 RETURN JUMPDEST CALLVALUE DUP1 ISZERO PUSH2 0xF9 JUMPI PUSH1 0x0 DUP1 REVERT JUMPDEST POP PUSH2 0x114 PUSH1 0x4 DUP1 CALLDATASIZE SUB DUP2 ADD SWAP1 PUSH2 0x10F SWAP2 SWAP1 PUSH2 0xAE9 JUMP JUMPDEST PUSH2 0x673 JUMP JUMPDEST PUSH1 0x40 MLOAD PUSH2 0x121 SWAP2 SWAP1 PUSH2 0xCC8 JUMP JUMPDEST PUSH1 0x40 MLOAD DUP1 SWAP2 SUB SWAP1 RETURN JUMPDEST CALLVALUE DUP1 ISZERO PUSH2 0x136 JUMPI PUSH1 0x0 DUP1 REVERT JUMPDEST POP PUSH2 0x13F PUSH2 0x68B JUMP JUMPDEST PUSH1 0x40 MLOAD PUSH2 0x14C SWAP2 SWAP1 PUSH2 0xC0D JUMP JUMPDEST PUSH1 0x40 MLOAD DUP1 SWAP2 SUB SWAP1 RETURN JUMPDEST CALLVALUE DUP1 ISZERO PUSH2 0x161 JUMPI PUSH1 0x0 DUP1 REVERT JUMPDEST POP PUSH2 0x16A PUSH2 0x69E JUMP JUMPDEST PUSH1 0x40 MLOAD PUSH2 0x177 SWAP2 SWAP1 PUSH2 0xBF2 JUMP JUMPDEST PUSH1 0x40 MLOAD DUP1 SWAP2 SUB SWAP1 RETURN JUMPDEST CALLVALUE DUP1 ISZERO PUSH2 0x18C JUMPI PUSH1 0x0 DUP1 REVERT JUMPDEST POP PUSH2 0x195 PUSH2 0x6C4 JUMP JUMPDEST PUSH1 0x40 MLOAD PUSH2 0x1A2 SWAP2 SWAP1 PUSH2 0xCC8 JUMP JUMPDEST PUSH1 0x40 MLOAD DUP1 SWAP2 SUB SWAP1 RETURN JUMPDEST CALLVALUE DUP1 ISZERO PUSH2 0x1B7 JUMPI PUSH1 0x0 DUP1 REVERT JUMPDEST POP PUSH2 0x1C0 PUSH2 0x6CA JUMP JUMPDEST PUSH1 0x40 MLOAD PUSH2 0x1CD SWAP2 SWAP1 PUSH2 0xCC8 JUMP JUMPDEST PUSH1 0x40 MLOAD DUP1 SWAP2 SUB SWAP1 RETURN JUMPDEST CALLVALUE DUP1 ISZERO PUSH2 0x1E2 JUMPI PUSH1 0x0 DUP1 REVERT JUMPDEST POP PUSH2 0x1EB PUSH2 0x6D0 JUMP JUMPDEST PUSH1 0x40 MLOAD PUSH2 0x1F8 SWAP2 SWAP1 PUSH2 0xCC8 JUMP JUMPDEST PUSH1 0x40 MLOAD DUP1 SWAP2 SUB SWAP1 RETURN JUMPDEST CALLVALUE DUP1 ISZERO PUSH2 0x20D JUMPI PUSH1 0x0 DUP1 REVERT JUMPDEST POP PUSH2 0x216 PUSH2 0x6D6 JUMP JUMPDEST PUSH1 0x40 MLOAD PUSH2 0x223 SWAP2 SWAP1 PUSH2 0xBF2 JUMP JUMPDEST PUSH1 0x40 MLOAD DUP1 SWAP2 SUB SWAP1 RETURN JUMPDEST CALLVALUE DUP1 ISZERO PUSH2 0x238 JUMPI PUSH1 0x0 DUP1 REVERT JUMPDEST POP PUSH2 0x241 PUSH2 0x6FA JUMP JUMPDEST STOP JUMPDEST PUSH1 0x0 DUP1 SLOAD SWAP1 PUSH2 0x100 EXP SWAP1 DIV PUSH20 0xFFFFFFFFFFFFFFFFFFFFFFFFFFFFFFFFFFFFFFFF AND PUSH20 0xFFFFFFFFFFFFFFFFFFFFFFFFFFFFFFFFFFFFFFFF AND CALLER PUSH20 0xFFFFFFFFFFFFFFFFFFFFFFFFFFFFFFFFFFFFFFFF AND EQ ISZERO PUSH2 0x2D2 JUMPI PUSH1 0x40 MLOAD PUSH32 0x8C379A000000000000000000000000000000000000000000000000000000000 DUP2 MSTORE PUSH1 0x4 ADD PUSH2 0x2C9 SWAP1 PUSH2 0xC68 JUMP JUMPDEST PUSH1 0x40 MLOAD DUP1 SWAP2 SUB SWAP1 REVERT JUMPDEST PUSH1 0x1 SLOAD NUMBER LT ISZERO PUSH2 0x2E1 JUMPI PUSH1 0x0 DUP1 REVERT JUMPDEST PUSH1 0x2 SLOAD NUMBER LT PUSH2 0x2EF JUMPI PUSH1 0x0 DUP1 REVERT JUMPDEST PUSH1 0x1 PUSH1 0x3 DUP2 GT ISZERO PUSH2 0x303 JUMPI PUSH2 0x302 PUSH2 0xE20 JUMP JUMPDEST JUMPDEST PUSH1 0x3 PUSH1 0x0 SWAP1 SLOAD SWAP1 PUSH2 0x100 EXP SWAP1 DIV PUSH1 0xFF AND PUSH1 0x3 DUP2 GT ISZERO PUSH2 0x325 JUMPI PUSH2 0x324 PUSH2 0xE20 JUMP JUMPDEST JUMPDEST EQ PUSH2 0x365 JUMPI PUSH1 0x40 MLOAD PUSH32 0x8C379A000000000000000000000000000000000000000000000000000000000 DUP2 MSTORE PUSH1 0x4 ADD PUSH2 0x35C SWAP1 PUSH2 0xCA8 JUMP JUMPDEST PUSH1 0x40 MLOAD DUP1 SWAP2 SUB SWAP1 REVERT JUMPDEST PUSH8 0xDE0B6B3A7640000 CALLVALUE LT ISZERO PUSH2 0x3B0 JUMPI PUSH1 0x40 MLOAD PUSH32 0x8C379A000000000000000000000000000000000000000000000000000000000 DUP2 MSTORE PUSH1 0x4 ADD PUSH2 0x3A7 SWAP1 PUSH2 0xC88 JUMP JUMPDEST PUSH1 0x40 MLOAD DUP1 SWAP2 SUB SWAP1 REVERT JUMPDEST PUSH1 0x0 CALLVALUE PUSH1 0x7 PUSH1 0x0 CALLER PUSH20 0xFFFFFFFFFFFFFFFFFFFFFFFFFFFFFFFFFFFFFFFF AND PUSH20 0xFFFFFFFFFFFFFFFFFFFFFFFFFFFFFFFFFFFFFFFF AND DUP2 MSTORE PUSH1 0x20 ADD SWAP1 DUP2 MSTORE PUSH1 0x20 ADD PUSH1 0x0 KECCAK256 SLOAD PUSH2 0x3FD SWAP2 SWAP1 PUSH2 0xCF4 JUMP JUMPDEST SWAP1 POP PUSH1 0x4 SLOAD DUP2 GT PUSH2 0x443 JUMPI PUSH1 0x40 MLOAD PUSH32 0x8C379A000000000000000000000000000000000000000000000000000000000 DUP2 MSTORE PUSH1 0x4 ADD PUSH2 0x43A SWAP1 PUSH2 0xC48 JUMP JUMPDEST PUSH1 0x40 MLOAD DUP1 SWAP2 SUB SWAP1 REVERT JUMPDEST DUP1 PUSH1 0x7 PUSH1 0x0 CALLER PUSH20 0xFFFFFFFFFFFFFFFFFFFFFFFFFFFFFFFFFFFFFFFF AND PUSH20 0xFFFFFFFFFFFFFFFFFFFFFFFFFFFFFFFFFFFFFFFF AND DUP2 MSTORE PUSH1 0x20 ADD SWAP1 DUP2 MSTORE PUSH1 0x20 ADD PUSH1 0x0 KECCAK256 DUP2 SWAP1 SSTORE POP PUSH1 0x7 PUSH1 0x0 PUSH1 0x6 PUSH1 0x0 SWAP1 SLOAD SWAP1 PUSH2 0x100 EXP SWAP1 DIV PUSH20 0xFFFFFFFFFFFFFFFFFFFFFFFFFFFFFFFFFFFFFFFF AND PUSH20 0xFFFFFFFFFFFFFFFFFFFFFFFFFFFFFFFFFFFFFFFF AND PUSH20 0xFFFFFFFFFFFFFFFFFFFFFFFFFFFFFFFFFFFFFFFF AND DUP2 MSTORE PUSH1 0x20 ADD SWAP1 DUP2 MSTORE PUSH1 0x20 ADD PUSH1 0x0 KECCAK256 SLOAD DUP2 LT ISZERO PUSH2 0x5B0 JUMPI PUSH2 0x568 DUP2 PUSH1 0x5 SLOAD PUSH1 0x7 PUSH1 0x0 PUSH1 0x6 PUSH1 0x0 SWAP1 SLOAD SWAP1 PUSH2 0x100 EXP SWAP1 DIV PUSH20 0xFFFFFFFFFFFFFFFFFFFFFFFFFFFFFFFFFFFFFFFF AND PUSH20 0xFFFFFFFFFFFFFFFFFFFFFFFFFFFFFFFFFFFFFFFF AND PUSH20 0xFFFFFFFFFFFFFFFFFFFFFFFFFFFFFFFFFFFFFFFF AND DUP2 MSTORE PUSH1 0x20 ADD SWAP1 DUP2 MSTORE PUSH1 0x20 ADD PUSH1 0x0 KECCAK256 SLOAD PUSH2 0x563 SWAP2 SWAP1 PUSH2 0xCF4 JUMP JUMPDEST PUSH2 0xAB9 JUMP JUMPDEST PUSH1 0x4 DUP2 SWAP1 SSTORE POP CALLER PUSH1 0x6 PUSH1 0x0 PUSH2 0x100 EXP DUP2 SLOAD DUP2 PUSH20 0xFFFFFFFFFFFFFFFFFFFFFFFFFFFFFFFFFFFFFFFF MUL NOT AND SWAP1 DUP4 PUSH20 0xFFFFFFFFFFFFFFFFFFFFFFFFFFFFFFFFFFFFFFFF AND MUL OR SWAP1 SSTORE POP JUMPDEST POP JUMP JUMPDEST PUSH1 0x0 DUP1 SLOAD SWAP1 PUSH2 0x100 EXP SWAP1 DIV PUSH20 0xFFFFFFFFFFFFFFFFFFFFFFFFFFFFFFFFFFFFFFFF AND PUSH20 0xFFFFFFFFFFFFFFFFFFFFFFFFFFFFFFFFFFFFFFFF AND CALLER PUSH20 0xFFFFFFFFFFFFFFFFFFFFFFFFFFFFFFFFFFFFFFFF AND EQ PUSH2 0x641 JUMPI PUSH1 0x40 MLOAD PUSH32 0x8C379A000000000000000000000000000000000000000000000000000000000 DUP2 MSTORE PUSH1 0x4 ADD PUSH2 0x638 SWAP1 PUSH2 0xC28 JUMP JUMPDEST PUSH1 0x40 MLOAD DUP1 SWAP2 SUB SWAP1 REVERT JUMPDEST PUSH1 0x3 DUP1 PUSH1 0x0 PUSH2 0x100 EXP DUP2 SLOAD DUP2 PUSH1 0xFF MUL NOT AND SWAP1 DUP4 PUSH1 0x3 DUP2 GT ISZERO PUSH2 0x666 JUMPI PUSH2 0x665 PUSH2 0xE20 JUMP JUMPDEST JUMPDEST MUL OR SWAP1 SSTORE POP JUMP JUMPDEST PUSH1 0x4 SLOAD DUP2 JUMP JUMPDEST PUSH1 0x7 PUSH1 0x20 MSTORE DUP1 PUSH1 0x0 MSTORE PUSH1 0x40 PUSH1 0x0 KECCAK256 PUSH1 0x0 SWAP2 POP SWAP1 POP SLOAD DUP2 JUMP JUMPDEST PUSH1 0x3 PUSH1 0x0 SWAP1 SLOAD SWAP1 PUSH2 0x100 EXP SWAP1 DIV PUSH1 0xFF AND DUP2 JUMP JUMPDEST PUSH1 0x6 PUSH1 0x0 SWAP1 SLOAD SWAP1 PUSH2 0x100 EXP SWAP1 DIV PUSH20 0xFFFFFFFFFFFFFFFFFFFFFFFFFFFFFFFFFFFFFFFF AND DUP2 JUMP JUMPDEST PUSH1 0x2 SLOAD DUP2 JUMP JUMPDEST PUSH1 0x1 SLOAD DUP2 JUMP JUMPDEST PUSH1 0x5 SLOAD DUP2 JUMP JUMPDEST PUSH1 0x0 DUP1 SLOAD SWAP1 PUSH2 0x100 EXP SWAP1 DIV PUSH20 0xFFFFFFFFFFFFFFFFFFFFFFFFFFFFFFFFFFFFFFFF AND DUP2 JUMP JUMPDEST PUSH1 0x3 DUP1 DUP2 GT ISZERO PUSH2 0x70D JUMPI PUSH2 0x70C PUSH2 0xE20 JUMP JUMPDEST JUMPDEST PUSH1 0x3 PUSH1 0x0 SWAP1 SLOAD SWAP1 PUSH2 0x100 EXP SWAP1 DIV PUSH1 0xFF AND PUSH1 0x3 DUP2 GT ISZERO PUSH2 0x72F JUMPI PUSH2 0x72E PUSH2 0xE20 JUMP JUMPDEST JUMPDEST EQ DUP1 PUSH2 0x73C JUMPI POP PUSH1 0x2 SLOAD NUMBER GT JUMPDEST PUSH2 0x745 JUMPI PUSH1 0x0 DUP1 REVERT JUMPDEST PUSH1 0x0 DUP1 SLOAD SWAP1 PUSH2 0x100 EXP SWAP1 DIV PUSH20 0xFFFFFFFFFFFFFFFFFFFFFFFFFFFFFFFFFFFFFFFF AND PUSH20 0xFFFFFFFFFFFFFFFFFFFFFFFFFFFFFFFFFFFFFFFF AND CALLER PUSH20 0xFFFFFFFFFFFFFFFFFFFFFFFFFFFFFFFFFFFFFFFF AND EQ DUP1 PUSH2 0x7DE JUMPI POP PUSH1 0x0 PUSH1 0x7 PUSH1 0x0 CALLER PUSH20 0xFFFFFFFFFFFFFFFFFFFFFFFFFFFFFFFFFFFFFFFF AND PUSH20 0xFFFFFFFFFFFFFFFFFFFFFFFFFFFFFFFFFFFFFFFF AND DUP2 MSTORE PUSH1 0x20 ADD SWAP1 DUP2 MSTORE PUSH1 0x20 ADD PUSH1 0x0 KECCAK256 SLOAD GT JUMPDEST PUSH2 0x7E7 JUMPI PUSH1 0x0 DUP1 REVERT JUMPDEST PUSH1 0x0 DUP1 PUSH1 0x3 DUP1 DUP2 GT ISZERO PUSH2 0x7FD JUMPI PUSH2 0x7FC PUSH2 0xE20 JUMP JUMPDEST JUMPDEST PUSH1 0x3 PUSH1 0x0 SWAP1 SLOAD SWAP1 PUSH2 0x100 EXP SWAP1 DIV PUSH1 0xFF AND PUSH1 0x3 DUP2 GT ISZERO PUSH2 0x81F JUMPI PUSH2 0x81E PUSH2 0xE20 JUMP JUMPDEST JUMPDEST EQ ISZERO PUSH2 0x86F JUMPI CALLER SWAP2 POP PUSH1 0x7 PUSH1 0x0 CALLER PUSH20 0xFFFFFFFFFFFFFFFFFFFFFFFFFFFFFFFFFFFFFFFF AND PUSH20 0xFFFFFFFFFFFFFFFFFFFFFFFFFFFFFFFFFFFFFFFF AND DUP2 MSTORE PUSH1 0x20 ADD SWAP1 DUP2 MSTORE PUSH1 0x20 ADD PUSH1 0x0 KECCAK256 SLOAD SWAP1 POP PUSH2 0xA29 JUMP JUMPDEST PUSH1 0x0 DUP1 SLOAD SWAP1 PUSH2 0x100 EXP SWAP1 DIV PUSH20 0xFFFFFFFFFFFFFFFFFFFFFFFFFFFFFFFFFFFFFFFF AND PUSH20 0xFFFFFFFFFFFFFFFFFFFFFFFFFFFFFFFFFFFFFFFF AND CALLER PUSH20 0xFFFFFFFFFFFFFFFFFFFFFFFFFFFFFFFFFFFFFFFF AND EQ ISZERO PUSH2 0x8F0 JUMPI PUSH1 0x0 DUP1 SLOAD SWAP1 PUSH2 0x100 EXP SWAP1 DIV PUSH20 0xFFFFFFFFFFFFFFFFFFFFFFFFFFFFFFFFFFFFFFFF AND SWAP2 POP PUSH1 0x4 SLOAD SWAP1 POP PUSH2 0xA28 JUMP JUMPDEST PUSH1 0x6 PUSH1 0x0 SWAP1 SLOAD SWAP1 PUSH2 0x100 EXP SWAP1 DIV PUSH20 0xFFFFFFFFFFFFFFFFFFFFFFFFFFFFFFFFFFFFFFFF AND PUSH20 0xFFFFFFFFFFFFFFFFFFFFFFFFFFFFFFFFFFFFFFFF AND CALLER PUSH20 0xFFFFFFFFFFFFFFFFFFFFFFFFFFFFFFFFFFFFFFFF AND EQ ISZERO PUSH2 0x9E1 JUMPI PUSH1 0x6 PUSH1 0x0 SWAP1 SLOAD SWAP1 PUSH2 0x100 EXP SWAP1 DIV PUSH20 0xFFFFFFFFFFFFFFFFFFFFFFFFFFFFFFFFFFFFFFFF AND SWAP2 POP PUSH1 0x4 SLOAD PUSH1 0x7 PUSH1 0x0 PUSH1 0x6 PUSH1 0x0 SWAP1 SLOAD SWAP1 PUSH2 0x100 EXP SWAP1 DIV PUSH20 0xFFFFFFFFFFFFFFFFFFFFFFFFFFFFFFFFFFFFFFFF AND PUSH20 0xFFFFFFFFFFFFFFFFFFFFFFFFFFFFFFFFFFFFFFFF AND PUSH20 0xFFFFFFFFFFFFFFFFFFFFFFFFFFFFFFFFFFFFFFFF AND DUP2 MSTORE PUSH1 0x20 ADD SWAP1 DUP2 MSTORE PUSH1 0x20 ADD PUSH1 0x0 KECCAK256 SLOAD PUSH2 0x9DA SWAP2 SWAP1 PUSH2 0xD4A JUMP JUMPDEST SWAP1 POP PUSH2 0xA27 JUMP JUMPDEST CALLER SWAP2 POP PUSH1 0x7 PUSH1 0x0 CALLER PUSH20 0xFFFFFFFFFFFFFFFFFFFFFFFFFFFFFFFFFFFFFFFF AND PUSH20 0xFFFFFFFFFFFFFFFFFFFFFFFFFFFFFFFFFFFFFFFF AND DUP2 MSTORE PUSH1 0x20 ADD SWAP1 DUP2 MSTORE PUSH1 0x20 ADD PUSH1 0x0 KECCAK256 SLOAD SWAP1 POP JUMPDEST JUMPDEST JUMPDEST PUSH1 0x0 PUSH1 0x7 PUSH1 0x0 CALLER PUSH20 0xFFFFFFFFFFFFFFFFFFFFFFFFFFFFFFFFFFFFFFFF AND PUSH20 0xFFFFFFFFFFFFFFFFFFFFFFFFFFFFFFFFFFFFFFFF AND DUP2 MSTORE PUSH1 0x20 ADD SWAP1 DUP2 MSTORE PUSH1 0x20 ADD PUSH1 0x0 KECCAK256 DUP2 SWAP1 SSTORE POP DUP2 PUSH20 0xFFFFFFFFFFFFFFFFFFFFFFFFFFFFFFFFFFFFFFFF AND PUSH2 0x8FC DUP3 SWAP1 DUP2 ISZERO MUL SWAP1 PUSH1 0x40 MLOAD PUSH1 0x0 PUSH1 0x40 MLOAD DUP1 DUP4 SUB DUP2 DUP6 DUP9 DUP9 CALL SWAP4 POP POP POP POP ISZERO DUP1 ISZERO PUSH2 0xAB4 JUMPI RETURNDATASIZE PUSH1 0x0 DUP1 RETURNDATACOPY RETURNDATASIZE PUSH1 0x0 REVERT JUMPDEST POP POP POP JUMP JUMPDEST PUSH1 0x0 DUP2 DUP4 GT PUSH2 0xACA JUMPI DUP3 SWAP1 POP PUSH2 0xACE JUMP JUMPDEST DUP2 SWAP1 POP JUMPDEST SWAP3 SWAP2 POP POP JUMP JUMPDEST PUSH1 0x0 DUP2 CALLDATALOAD SWAP1 POP PUSH2 0xAE3 DUP2 PUSH2 0xF35 JUMP JUMPDEST SWAP3 SWAP2 POP POP JUMP JUMPDEST PUSH1 0x0 PUSH1 0x20 DUP3 DUP5 SUB SLT ISZERO PUSH2 0xAFF JUMPI PUSH2 0xAFE PUSH2 0xE4F JUMP JUMPDEST JUMPDEST PUSH1 0x0 PUSH2 0xB0D DUP5 DUP3 DUP6 ADD PUSH2 0xAD4 JUMP JUMPDEST SWAP2 POP POP SWAP3 SWAP2 POP POP JUMP JUMPDEST PUSH2 0xB1F DUP2 PUSH2 0xD90 JUMP JUMPDEST DUP3 MSTORE POP POP JUMP JUMPDEST PUSH2 0xB2E DUP2 PUSH2 0xDDF JUMP JUMPDEST DUP3 MSTORE POP POP JUMP JUMPDEST PUSH1 0x0 PUSH2 0xB41 PUSH1 0x15 DUP4 PUSH2 0xCE3 JUMP JUMPDEST SWAP2 POP PUSH2 0xB4C DUP3 PUSH2 0xE54 JUMP JUMPDEST PUSH1 0x20 DUP3 ADD SWAP1 POP SWAP2 SWAP1 POP JUMP JUMPDEST PUSH1 0x0 PUSH2 0xB64 PUSH1 0x18 DUP4 PUSH2 0xCE3 JUMP JUMPDEST SWAP2 POP PUSH2 0xB6F DUP3 PUSH2 0xE7D JUMP JUMPDEST PUSH1 0x20 DUP3 ADD SWAP1 POP SWAP2 SWAP1 POP JUMP JUMPDEST PUSH1 0x0 PUSH2 0xB87 PUSH1 0x10 DUP4 PUSH2 0xCE3 JUMP JUMPDEST SWAP2 POP PUSH2 0xB92 DUP3 PUSH2 0xEA6 JUMP JUMPDEST PUSH1 0x20 DUP3 ADD SWAP1 POP SWAP2 SWAP1 POP JUMP JUMPDEST PUSH1 0x0 PUSH2 0xBAA PUSH1 0x14 DUP4 PUSH2 0xCE3 JUMP JUMPDEST SWAP2 POP PUSH2 0xBB5 DUP3 PUSH2 0xECF JUMP JUMPDEST PUSH1 0x20 DUP3 ADD SWAP1 POP SWAP2 SWAP1 POP JUMP JUMPDEST PUSH1 0x0 PUSH2 0xBCD PUSH1 0x10 DUP4 PUSH2 0xCE3 JUMP JUMPDEST SWAP2 POP PUSH2 0xBD8 DUP3 PUSH2 0xEF8 JUMP JUMPDEST PUSH1 0x20 DUP3 ADD SWAP1 POP SWAP2 SWAP1 POP JUMP JUMPDEST PUSH2 0xBEC DUP2 PUSH2 0xDD5 JUMP JUMPDEST DUP3 MSTORE POP POP JUMP JUMPDEST PUSH1 0x0 PUSH1 0x20 DUP3 ADD SWAP1 POP PUSH2 0xC07 PUSH1 0x0 DUP4 ADD DUP5 PUSH2 0xB16 JUMP JUMPDEST SWAP3 SWAP2 POP POP JUMP JUMPDEST PUSH1 0x0 PUSH1 0x20 DUP3 ADD SWAP1 POP PUSH2 0xC22 PUSH1 0x0 DUP4 ADD DUP5 PUSH2 0xB25 JUMP JUMPDEST SWAP3 SWAP2 POP POP JUMP JUMPDEST PUSH1 0x0 PUSH1 0x20 DUP3 ADD SWAP1 POP DUP2 DUP2 SUB PUSH1 0x0 DUP4 ADD MSTORE PUSH2 0xC41 DUP2 PUSH2 0xB34 JUMP JUMPDEST SWAP1 POP SWAP2 SWAP1 POP JUMP JUMPDEST PUSH1 0x0 PUSH1 0x20 DUP3 ADD SWAP1 POP DUP2 DUP2 SUB PUSH1 0x0 DUP4 ADD MSTORE PUSH2 0xC61 DUP2 PUSH2 0xB57 JUMP JUMPDEST SWAP1 POP SWAP2 SWAP1 POP JUMP JUMPDEST PUSH1 0x0 PUSH1 0x20 DUP3 ADD SWAP1 POP DUP2 DUP2 SUB PUSH1 0x0 DUP4 ADD MSTORE PUSH2 0xC81 DUP2 PUSH2 0xB7A JUMP JUMPDEST SWAP1 POP SWAP2 SWAP1 POP JUMP JUMPDEST PUSH1 0x0 PUSH1 0x20 DUP3 ADD SWAP1 POP DUP2 DUP2 SUB PUSH1 0x0 DUP4 ADD MSTORE PUSH2 0xCA1 DUP2 PUSH2 0xB9D JUMP JUMPDEST SWAP1 POP SWAP2 SWAP1 POP JUMP JUMPDEST PUSH1 0x0 PUSH1 0x20 DUP3 ADD SWAP1 POP DUP2 DUP2 SUB PUSH1 0x0 DUP4 ADD MSTORE PUSH2 0xCC1 DUP2 PUSH2 0xBC0 JUMP JUMPDEST SWAP1 POP SWAP2 SWAP1 POP JUMP JUMPDEST PUSH1 0x0 PUSH1 0x20 DUP3 ADD SWAP1 POP PUSH2 0xCDD PUSH1 0x0 DUP4 ADD DUP5 PUSH2 0xBE3 JUMP JUMPDEST SWAP3 SWAP2 POP POP JUMP JUMPDEST PUSH1 0x0 DUP3 DUP3 MSTORE PUSH1 0x20 DUP3 ADD SWAP1 POP SWAP3 SWAP2 POP POP JUMP JUMPDEST PUSH1 0x0 PUSH2 0xCFF DUP3 PUSH2 0xDD5 JUMP JUMPDEST SWAP2 POP PUSH2 0xD0A DUP4 PUSH2 0xDD5 JUMP JUMPDEST SWAP3 POP DUP3 PUSH32 0xFFFFFFFFFFFFFFFFFFFFFFFFFFFFFFFFFFFFFFFFFFFFFFFFFFFFFFFFFFFFFFFF SUB DUP3 GT ISZERO PUSH2 0xD3F JUMPI PUSH2 0xD3E PUSH2 0xDF1 JUMP JUMPDEST JUMPDEST DUP3 DUP3 ADD SWAP1 POP SWAP3 SWAP2 POP POP JUMP JUMPDEST PUSH1 0x0 PUSH2 0xD55 DUP3 PUSH2 0xDD5 JUMP JUMPDEST SWAP2 POP PUSH2 0xD60 DUP4 PUSH2 0xDD5 JUMP JUMPDEST SWAP3 POP DUP3 DUP3 LT ISZERO PUSH2 0xD73 JUMPI PUSH2 0xD72 PUSH2 0xDF1 JUMP JUMPDEST JUMPDEST DUP3 DUP3 SUB SWAP1 POP SWAP3 SWAP2 POP POP JUMP JUMPDEST PUSH1 0x0 PUSH2 0xD89 DUP3 PUSH2 0xDB5 JUMP JUMPDEST SWAP1 POP SWAP2 SWAP1 POP JUMP JUMPDEST PUSH1 0x0 PUSH2 0xD9B DUP3 PUSH2 0xDB5 JUMP JUMPDEST SWAP1 POP SWAP2 SWAP1 POP JUMP JUMPDEST PUSH1 0x0 DUP2 SWAP1 POP PUSH2 0xDB0 DUP3 PUSH2 0xF21 JUMP JUMPDEST SWAP2 SWAP1 POP JUMP JUMPDEST PUSH1 0x0 PUSH20 0xFFFFFFFFFFFFFFFFFFFFFFFFFFFFFFFFFFFFFFFF DUP3 AND SWAP1 POP SWAP2 SWAP1 POP JUMP JUMPDEST PUSH1 0x0 DUP2 SWAP1 POP SWAP2 SWAP1 POP JUMP JUMPDEST PUSH1 0x0 PUSH2 0xDEA DUP3 PUSH2 0xDA2 JUMP JUMPDEST SWAP1 POP SWAP2 SWAP1 POP JUMP JUMPDEST PUSH32 0x4E487B7100000000000000000000000000000000000000000000000000000000 PUSH1 0x0 MSTORE PUSH1 0x11 PUSH1 0x4 MSTORE PUSH1 0x24 PUSH1 0x0 REVERT JUMPDEST PUSH32 0x4E487B7100000000000000000000000000000000000000000000000000000000 PUSH1 0x0 MSTORE PUSH1 0x21 PUSH1 0x4 MSTORE PUSH1 0x24 PUSH1 0x0 REVERT JUMPDEST PUSH1 0x0 DUP1 REVERT JUMPDEST PUSH32 0x596F7520617265206E6F7420746865206F776E65720000000000000000000000 PUSH1 0x0 DUP3 ADD MSTORE POP JUMP JUMPDEST PUSH32 0x4C657373207468616E206869676865737470617961626C650000000000000000 PUSH1 0x0 DUP3 ADD MSTORE POP JUMP JUMPDEST PUSH32 0x4F776E65722063616E6E6F742062696400000000000000000000000000000000 PUSH1 0x0 DUP3 ADD MSTORE POP JUMP JUMPDEST PUSH32 0x4574686572206973206C657373207468616E2031000000000000000000000000 PUSH1 0x0 DUP3 ADD MSTORE POP JUMP JUMPDEST PUSH32 0x41756374696F6E20697320656E64656400000000000000000000000000000000 PUSH1 0x0 DUP3 ADD MSTORE POP JUMP JUMPDEST PUSH1 0x4 DUP2 LT PUSH2 0xF32 JUMPI PUSH2 0xF31 PUSH2 0xE20 JUMP JUMPDEST JUMPDEST POP JUMP JUMPDEST PUSH2 0xF3E DUP2 PUSH2 0xD7E JUMP JUMPDEST DUP2 EQ PUSH2 0xF49 JUMPI PUSH1 0x0 DUP1 REVERT JUMPDEST POP JUMP INVALID LOG2 PUSH5 0x6970667358 0x22 SLT KECCAK256 0x24 DUP4 0xC0 BALANCE ORIGIN 0x22 0xD PUSH14 0x12DB016CDB1C2CBC55C0265FD97A DUP5 0x2B DUP4 ADDMOD EXTCODECOPY GASLIMIT PUSH19 0x1C994D64736F6C634300080700330000000000 "
				},
				"gasEstimates": {
					"creation": {
						"codeDepositCost": "794000",
						"executionCost": "infinite",
						"totalCost": "infinite"
					},
					"external": {
						"auctionState()": "2649",
						"auctioner()": "2599",
						"bid()": "infinite",
						"bidIncrement()": "2495",
						"bids(address)": "2881",
						"cancelAuc()": "26621",
						"etblock()": "2451",
						"finalizeAuction()": "infinite",
						"highestBidder()": "2514",
						"highestPayableBid()": "2474",
						"stblock()": "2473"
					},
					"internal": {
						"min(uint256,uint256)": "64"
					}
				},
				"methodIdentifiers": {
					"auctionState()": "7fb45099",
					"auctioner()": "f3fb05df",
					"bid()": "1998aeef",
					"bidIncrement()": "b3cc167a",
					"bids(address)": "62ea82db",
					"cancelAuc()": "2352f320",
					"etblock()": "9d957d45",
					"finalizeAuction()": "f77282ab",
					"highestBidder()": "91f90157",
					"highestPayableBid()": "4f5150ca",
					"stblock()": "a118be02"
				}
			},
			"storageLayout": {
				"storage": [
					{
						"astId": 3,
						"contract": "auction.sol:auction",
						"label": "auctioner",
						"offset": 0,
						"slot": "0",
						"type": "t_address_payable"
					},
					{
						"astId": 5,
						"contract": "auction.sol:auction",
						"label": "stblock",
						"offset": 0,
						"slot": "1",
						"type": "t_uint256"
					},
					{
						"astId": 7,
						"contract": "auction.sol:auction",
						"label": "etblock",
						"offset": 0,
						"slot": "2",
						"type": "t_uint256"
					},
					{
						"astId": 15,
						"contract": "auction.sol:auction",
						"label": "auctionState",
						"offset": 0,
						"slot": "3",
						"type": "t_enum(auction_state)12"
					},
					{
						"astId": 17,
						"contract": "auction.sol:auction",
						"label": "highestPayableBid",
						"offset": 0,
						"slot": "4",
						"type": "t_uint256"
					},
					{
						"astId": 19,
						"contract": "auction.sol:auction",
						"label": "bidIncrement",
						"offset": 0,
						"slot": "5",
						"type": "t_uint256"
					},
					{
						"astId": 21,
						"contract": "auction.sol:auction",
						"label": "highestBidder",
						"offset": 0,
						"slot": "6",
						"type": "t_address_payable"
					},
					{
						"astId": 25,
						"contract": "auction.sol:auction",
						"label": "bids",
						"offset": 0,
						"slot": "7",
						"type": "t_mapping(t_address,t_uint256)"
					}
				],
				"types": {
					"t_address": {
						"encoding": "inplace",
						"label": "address",
						"numberOfBytes": "20"
					},
					"t_address_payable": {
						"encoding": "inplace",
						"label": "address payable",
						"numberOfBytes": "20"
					},
					"t_enum(auction_state)12": {
						"encoding": "inplace",
						"label": "enum auction.auction_state",
						"numberOfBytes": "1"
					},
					"t_mapping(t_address,t_uint256)": {
						"encoding": "mapping",
						"key": "t_address",
						"label": "mapping(address => uint256)",
						"numberOfBytes": "32",
						"value": "t_uint256"
					},
					"t_uint256": {
						"encoding": "inplace",
						"label": "uint256",
						"numberOfBytes": "32"
					}
				}
			},
			"userdoc": {
				"kind": "user",
				"methods": {},
				"version": 1
			}
		}
	}
}